
Source Code
000001:                                                                                                  #  The AGC does not support 'immediate mode', where you can embed a fixed value into the operand.
000002:                                                                                                  #  So where you might do lda #48 in 6502 to load 48 into A, here 48 must be present somewhere in RAM
000003:                                                                                                  #  or ROM so that it has an address we can reference in 'CA MYCONSTANT'.
000004:                                                                                                  #  So these constants are stored in the ROM itself as data to be lookup up when needed.
000005:
000006:                                                                                                  # -----------------------------------------------------------------------
000007:                                                                                                  #  Constants and read-only memory.
000008:
000009:                                                                                                  #  Names of CPU registers.
000010:    5130                        A                  EQUALS   0
000011:    5130                        L                  EQUALS   1                                     #  L AND Q ARE BOTH CHANNELS AND REGISTERS.
000012:    5130                        Q                  EQUALS   2
000013:    5130                        EBANK              EQUALS   3
000014:    5130                        FBANK              EQUALS   4
000015:    5130                        Z                  EQUALS   5                                     #  ADJACENT TO FBANK AND BBANK FOR DXCH Z
000016:    5130                        BBANK              EQUALS   6                                     #  (DTCB) AND DXCH FBANK (DTCF).
000017:    5130                        ZEROES             EQUALS   7                                     #  REGISTER 7 IS A ZERO-SOURCE, USED BY ZL.
000018:    5130                        ARUPT              EQUALS   10                                    #  INTERRUPT STORAGE.
000019:    5130                        LRUPT              EQUALS   11
000020:    5130                        QRUPT              EQUALS   12
000021:    5130                        SAMPTIME           EQUALS   13                                    #  SAMPLED TIME 1 & 2.
000022:    5130                        ZRUPT              EQUALS   15                                    #  (13 AND 14 ARE SPARES.)
000023:    5130                        BANKRUPT           EQUALS   16                                    #  USUALLY HOLDS FBANK OR BBANK.
000024:    5130                        BRUPT              EQUALS   17                                    #  RESUME ADDRESS AS WELL.
000025:    5130                        CYR                EQUALS   20
000026:    5130                        SR                 EQUALS   21
000027:    5130                        CYL                EQUALS   22
000028:    5130                        EDOP               EQUALS   23
000029:
000030:
000031:    5130                        CH10               EQUALS   10
000032:    5130                        CH11               EQUALS   11
000033:    5130                        CH12               EQUALS   12
000034:    5130                        CH15               EQUALS   15
000035:    5130                        CH32               EQUALS   32
000036:    5130                        CH13               EQUALS   13
000037:    5130           00040        NOKEY              OCT      40
000038:
000039:    5131           40000        BIT15              DEC      16384      B-14
000040:    5132  0000007               ZERO               EQUALS   ZEROES
000041:
000042:
000043:    5132           00037        LOW5               OCT      37
000044:
000045:    5133           37774        O37774             OCT      37774
000046:    5134           37777        O37777             OCT      37777
000047:
000048:    5135           00012        TEN                DEC      10         B-14
000049:    5136           00034        CLEARBTN           DEC      28         B-14
000050:    5137           00022        RESETBTN           DEC      18         B-14
000051:    5140           77776        NEG_ONE            DEC      -1         B-14
000052:
000053:    5141           00024        TWENTY             DEC      20         B-14
000054:    5142           00025        TWENTY1            DEC      21         B-14
000055:    5143           00177        MASK128            DEC      127        B-14
000056:    5144           00017        MASK15             DEC      15         B-14
000057:    5145           00400        TWO56              DEC      256        B-14
000058:    5146           00016        FOURTEEN           DEC      14         B-14
000059:
000060:    5147           77776        NEG1               DEC      -1         B-14
000061:    5150           77775        NEG2               DEC      -2         B-14
000062:    5151           77772        NEG5               DEC      -5         B-14
000063:    5152           00176        BIT5               DEC      126        B-14
000064:
000065:

End of include-file Constants.agc.  Parent file is Main.agc


