
Source Code
000001:
000002:
000003:                                                                                                  # -----------------------------------------------------------------------
000004:                                                                                                  #  Constants and read-only memory.
000005:
000006:                                                                                                  #  Names of CPU registers.
000007:    4231                        A                  EQUALS   0
000008:    4231                        L                  EQUALS   1                                     #  L AND Q ARE BOTH CHANNELS AND REGISTERS.
000009:    4231                        Q                  EQUALS   2
000010:    4231                        EBANK              EQUALS   3
000011:    4231                        FBANK              EQUALS   4
000012:    4231                        Z                  EQUALS   5                                     #  ADJACENT TO FBANK AND BBANK FOR DXCH Z
000013:    4231                        BBANK              EQUALS   6                                     #  (DTCB) AND DXCH FBANK (DTCF).
000014:                                                                                                  #  REGISTER 7 IS A ZERO-SOURCE, USED BY ZL.
000015:    4231                        ZEROES             EQUALS   7
000016:    4231                        ARUPT              EQUALS   10                                    #  INTERRUPT STORAGE.
000017:    4231                        LRUPT              EQUALS   11
000018:    4231                        QRUPT              EQUALS   12
000019:    4231                        SAMPTIME           EQUALS   13                                    #  SAMPLED TIME 1 & 2.
000020:    4231                        ZRUPT              EQUALS   15                                    #  (13 AND 14 ARE SPARES.)
000021:    4231                        BANKRUPT           EQUALS   16                                    #  USUALLY HOLDS FBANK OR BBANK.
000022:    4231                        BRUPT              EQUALS   17                                    #  RESUME ADDRESS AS WELL.
000023:    4231                        CYR                EQUALS   20
000024:    4231                        SR                 EQUALS   21
000025:    4231                        CYL                EQUALS   22
000026:    4231                        EDOP               EQUALS   23
000027:
000028:                                                                                                  #  Patterns for display of digits.
000029:    4231           00000        DSPBLANK           OCT      0
000030:    4232           00025        DSP0               OCT      25
000031:    4233           00003        DSP1               OCT      3
000032:    4234           00031        DSP2               OCT      31
000033:    4235           00033        DSP3               OCT      33
000034:    4236           00017        DSP4               OCT      17
000035:    4237           00036        DSP5               OCT      36
000036:    4240           00034        DSP6               OCT      34
000037:    4241           00023        DSP7               OCT      23
000038:    4242           00035        DSP8               OCT      35
000039:    4243           00037        DSP9               OCT      37
000040:
000041:    4244           00177        MASK128            DEC      127        B-14
000042:    4245           00400        TWO56              DEC      256        B-14
000043:    4246                        SZERO              EQUALS   0
000044:    4246                        CH10               EQUALS   10
000045:    4246                        CH11               EQUALS   11
000046:    4246                        CH12               EQUALS   12
000047:    4246                        CH15               EQUALS   15
000048:    4246                        CH32               EQUALS   32
000049:    4246           00177        O177               OCT      177
000050:    4247           00377        O377               OCT      377
000051:    4250           03777        O3777              OCT      3777
000052:    4251           17777        O17777             OCT      17777
000053:    4252           20000        O20000             OCT      20000
000054:    4253           37774        O37774             OCT      37774
000055:    4254           37776        O37776             OCT      37776
000056:    4255           54000        O54000             OCT      54000
000057:    4256           50000        O50000             OCT      50000
000058:    4257           44000        O44000             OCT      44000
000059:    4260           40000        O40000             OCT      40000
000060:    4261           77770        O77770             OCT      77770
000061:    4262           74000        O-3777             OCT      74000
000062:    4263           73777        O-4000             OCT      73777
000063:    4264           60000        O-17777            OCT      60000
000064:    4265           57777        O-20000            OCT      57777
000065:    4266           40003        O-37774            OCT      40003
000066:    4267           40001        O-37776            OCT      40001
000067:    4270           77777        NEGZERO            OCT      77777
000068:    4271           77776        NEGONE             OCT      77776
000069:    4272           77775        NEGTWO             DEC      -2         B-14
000070:    4273           77774        NEGTHREE           DEC      -3         B-14
000071:    4274           77773        NEGFOUR            DEC      -4         B-14
000072:    4275           00001        ONE                OCT      1
000073:    4276           00002        TWO                OCT      2
000074:    4277           00003        THREE              OCT      3
000075:    4300           00005        FIVE               OCT      5
000076:    4301           00011        NINE               DEC      9          B-14
000077:    4302           00012        TEN                DEC      10         B-14
000078:    4303           00007        SEVEN              DEC      7          B-14
000079:    4304           00027        TWNTHREE           DEC      23         B-14
000080:    4305           00001        BIT1               OCT      1
000081:    4306           00100        BIT7               OCT      100
000082:    4307           01000        BIT10              OCT      1000
000083:    4310           20000        BIT14              OCT      20000
000084:    4311           37777        MAXP               OCT      37777
000085:    4312           37776        MAXP-1             OCT      37776
000086:    4313           37775        MAXP-2             OCT      37775
000087:    4314           37774        MAXP-3             OCT      37774
000088:    4315           40000        MAXN               OCT      40000
000089:    4316           40001        MAXN-1             OCT      40001
000090:    4317           40002        MAXN-2             OCT      40002
000091:    4320           40003        MAXN-3             OCT      40003
000092:    4321           00037        LOW5               OCT      37
000093:
000094:    4322           52525        MASKL1             OCT      52525
000095:    4323           25252        MASKR1             OCT      25252
000096:    4324           63146        MASKL2             OCT      63146
000097:    4325           14631        MASKR2             OCT      14631
000098:    4326           42104        ANDL1L2            OCT      42104
000099:    4327           10421        ANDL1R2            OCT      10421
000100:    4330           21042        ANDR1L2            OCT      21042
000101:    4331           04210        ANDR1R2            OCT      04210
000102:    4332           73567        ORL1L2             OCT      73567
000103:    4333           56735        ORL1R2             OCT      56735
000104:    4334           67356        ORR1L2             OCT      67356
000105:    4335           35673        ORR1R2             OCT      35673
000106:    4336           31463        XORL1L2            OCT      31463
000107:    4337           46314        XORL1R2            OCT      46314
000108:    4340           46314        XORR1L2            OCT      46314
000109:    4341           31463        XORR1R2            OCT      31463
000110:
000111:    4342           00036        CLEARBTN           DEC      30         B-14
000112:    4343           00016        R1D1               OCT      16                                    #  THESE 3 CONSTANTS FORM A PACKED TABLE.
000113:    4344           00011        R2D1               OCT      11                                    #  DONT SEPARATE.
000114:    4345           00004        R3D1               OCT      4
000115:    4346           00012        BINCON             DEC      10         B-14
000116:    4347           00024        TWENTY1            DEC      20         B-14
000117:
000118:    4350           00001        LEFTRIGHT           DEC      1          B-14
000119:    4351           00000        LR1                DEC      0          B-14
000120:    4352           00001        LR2                DEC      1          B-14
000121:    4353           00000        LR3                DEC      0          B-14
000122:    4354           00001        LR4                DEC      1          B-14
000123:    4355           00000        LR5                DEC      0          B-14
000124:    4356           00000        LR6                DEC      0          B-14
000125:    4357           00001        LR7                DEC      1          B-14
000126:    4360           00000        LR8                DEC      0          B-14
000127:    4361           00001        LR9                DEC      1          B-14
000128:    4362           00000        LR10               DEC      0          B-14
000129:    4363           00001        LR11               DEC      1          B-14
000130:    4364           00000        LR12               DEC      0          B-14
000131:    4365           00001        LR13               DEC      1          B-14
000132:    4366           00000        LR14               DEC      0          B-14
000133:    4367           00001        LR15               DEC      1          B-14
000134:    4370           00000        LR16               DEC      0          B-14
000135:    4371           00001        LR17               DEC      1          B-14
000136:    4372           00000        LR18               DEC      0          B-14
000137:    4373           00001        LR19               DEC      1          B-14
000138:    4374           00000        LR20               DEC      0          B-14
000139:
000140:    4375           00000        SEG_0              DEC      00         B-14
000141:    4376           00000        SEG_1              DEC      00         B-14
000142:    4377           00001        SEG_2              DEC      01         B-14
000143:    4400           00001        SEG_3              DEC      01         B-14
000144:    4401           00002        SEG_4              DEC      02         B-14
000145:    4402           00002        SEG_5              DEC      02         B-14
000146:    4403           00003        SEG_6              DEC      03         B-14
000147:    4404           00004        SEG_7              DEC      04         B-14
000148:    4405           00004        SEG_8              DEC      04         B-14
000149:    4406           00005        SEG_9              DEC      05         B-14
000150:    4407           00005        SEG_10             DEC      05         B-14
000151:    4410           00006        SEG_11             DEC      06         B-14
000152:    4411           00006        SEG_12             DEC      06         B-14
000153:    4412           00007        SEG_13             DEC      07         B-14
000154:    4413           00007        SEG_14             DEC      07         B-14
000155:    4414           00010        SEG_15             DEC      08         B-14
000156:    4415           00010        SEG_16             DEC      08         B-14
000157:    4416           00011        SEG_17             DEC      09         B-14
000158:    4417           00011        SEG_18             DEC      09         B-14
000159:    4420           00012        SEG_19             DEC      10         B-14
000160:    4421           00012        SEG_20             DEC      10         B-14
000161:
000162:
000163:
000164:
000165:    4422           54000        SEGCODE            OCT      54000                                 # 54000
000166:    4423           50000        VERBLR             OCT      50000
000167:    4424           44000        NOUNLR             OCT      44000
000168:    4425           40000        TOP1               OCT      40000
000169:    4426           34000        TOP23              OCT      34000
000170:    4427           30000        TOP45              OCT      30000
000171:    4430           24000        MID12              OCT      24000
000172:    4431           20000        MID34              OCT      20000
000173:    4432           14000        MID5BOT1           OCT      14000
000174:    4433           10000        BOT23              OCT      10000
000175:    4434           04000        BOT45              OCT      4000
000176:
000177:    4435           00000        DIGITS             DEC      0          B-14
000178:    4436           00001        DEC1               DEC      1          B-14
000179:    4437           00002        DEC2               DEC      2          B-14
000180:    4440           00003        DEC3               DEC      3          B-14
000181:    4441           00004        DEC4               DEC      4          B-14
000182:    4442           00005        DEC5               DEC      5          B-14
000183:    4443           00006        DEC6               DEC      6          B-14
000184:    4444           00007        DEC7               DEC      7          B-14
000185:    4445           00010        DEC8               DEC      8          B-14
000186:    4446           00011        DEC9               DEC      9          B-14
000187:
000188:
000189:
000190:    4447           00005        RAND1              DEC      5          B-14
000191:    4450           00002        RAND2              DEC      2          B-14
000192:    4451           00000        RAND3              DEC      0          B-14
000193:    4452           00002        RAND4              DEC      2          B-14
000194:    4453           00011        RAND5              DEC      9          B-14
000195:    4454           00004        RAND6              DEC      4          B-14
000196:    4455           00005        RAND7              DEC      5          B-14
000197:    4456           00001        RAND8              DEC      1          B-14
000198:    4457           00000        RAND9              DEC      0          B-14
000199:    4460           00003        RAND10             DEC      3          B-14
000200:    4461           00011        RAND11             DEC      9          B-14
000201:    4462           00005        RAND12             DEC      5          B-14
000202:    4463           00006        RAND13             DEC      6          B-14
000203:    4464           00007        RAND14             DEC      7          B-14
000204:    4465           00007        RAND15             DEC      7          B-14
000205:    4466           00001        RAND16             DEC      1          B-14
000206:    4467           00006        RAND17             DEC      6          B-14
000207:    4470           00005        RAND18             DEC      5          B-14
000208:    4471           00007        RAND19             DEC      7          B-14
000209:    4472           00004        RAND20             DEC      4          B-14
000210:    4473           00005        RAND21             DEC      5          B-14
000211:    4474           00002        RAND22             DEC      2          B-14
000212:    4475           00000        RAND23             DEC      0          B-14
000213:    4476           00005        RAND24             DEC      5          B-14
000214:    4477           00011        RAND25             DEC      9          B-14
000215:    4500           00006        RAND26             DEC      6          B-14
000216:    4501           00005        RAND27             DEC      5          B-14
000217:    4502           00007        RAND28             DEC      7          B-14
000218:    4503           00005        RAND29             DEC      5          B-14
000219:    4504           00006        RAND30             DEC      6          B-14
000220:    4505           00000        RAND31             DEC      0          B-14
000221:    4506           00006        RAND32             DEC      6          B-14
000222:    4507           00011        RAND33             DEC      9          B-14
000223:    4510           00004        RAND34             DEC      4          B-14
000224:    4511           00002        RAND35             DEC      2          B-14
000225:    4512           00005        RAND36             DEC      5          B-14
000226:    4513           00011        RAND37             DEC      9          B-14
000227:    4514           00011        RAND38             DEC      9          B-14
000228:    4515           00002        RAND39             DEC      2          B-14
000229:    4516           00000        RAND40             DEC      0          B-14
000230:    4517           00007        RAND41             DEC      7          B-14
000231:    4520           00006        RAND42             DEC      6          B-14
000232:    4521           00000        RAND43             DEC      0          B-14
000233:    4522           00005        RAND44             DEC      5          B-14
000234:    4523           00006        RAND45             DEC      6          B-14
000235:    4524           00001        RAND46             DEC      1          B-14
000236:    4525           00007        RAND47             DEC      7          B-14
000237:    4526           00007        RAND48             DEC      7          B-14
000238:    4527           00002        RAND49             DEC      2          B-14
000239:    4530           00004        RAND50             DEC      4          B-14
000240:    4531           00011        RAND51             DEC      9          B-14
000241:    4532           00006        RAND52             DEC      6          B-14
000242:    4533           00011        RAND53             DEC      9          B-14
000243:    4534           00000        RAND54             DEC      0          B-14
000244:    4535           00003        RAND55             DEC      3          B-14
000245:    4536           00005        RAND56             DEC      5          B-14
000246:    4537           00001        RAND57             DEC      1          B-14
000247:    4540           00004        RAND58             DEC      4          B-14
000248:    4541           00007        RAND59             DEC      7          B-14
000249:    4542           00001        RAND60             DEC      1          B-14
000250:    4543           00002        RAND61             DEC      2          B-14
000251:    4544           00007        RAND62             DEC      7          B-14
000252:    4545           00002        RAND63             DEC      2          B-14
000253:    4546           00001        RAND64             DEC      1          B-14
000254:    4547           00005        RAND65             DEC      5          B-14
000255:    4550           00010        RAND66             DEC      8          B-14
000256:    4551           00001        RAND67             DEC      1          B-14
000257:    4552           00007        RAND68             DEC      7          B-14
000258:    4553           00007        RAND69             DEC      7          B-14
000259:    4554           00003        RAND70             DEC      3          B-14
000260:    4555           00003        RAND71             DEC      3          B-14
000261:    4556           00004        RAND72             DEC      4          B-14
000262:    4557           00005        RAND73             DEC      5          B-14
000263:    4560           00005        RAND74             DEC      5          B-14
000264:    4561           00005        RAND75             DEC      5          B-14
000265:    4562           00006        RAND76             DEC      6          B-14
000266:    4563           00006        RAND77             DEC      6          B-14
000267:    4564           00006        RAND78             DEC      6          B-14
000268:    4565           00010        RAND79             DEC      8          B-14
000269:    4566           00006        RAND80             DEC      6          B-14
000270:    4567           00005        RAND81             DEC      5          B-14
000271:    4570           00001        RAND82             DEC      1          B-14
000272:    4571           00007        RAND83             DEC      7          B-14
000273:    4572           00010        RAND84             DEC      8          B-14
000274:    4573           00001        RAND85             DEC      1          B-14
000275:    4574           00011        RAND86             DEC      9          B-14
000276:    4575           00003        RAND87             DEC      3          B-14
000277:    4576           00000        RAND88             DEC      0          B-14
000278:    4577           00003        RAND89             DEC      3          B-14
000279:    4600           00007        RAND90             DEC      7          B-14
000280:    4601           00002        RAND91             DEC      2          B-14
000281:    4602           00005        RAND92             DEC      5          B-14
000282:    4603           00001        RAND93             DEC      1          B-14
000283:    4604           00000        RAND94             DEC      0          B-14
000284:    4605           00011        RAND95             DEC      9          B-14
000285:    4606           00001        RAND96             DEC      1          B-14
000286:    4607           00011        RAND97             DEC      9          B-14
000287:    4610           00005        RAND98             DEC      5          B-14
000288:    4611           00006        RAND99             DEC      6          B-14
000289:    4612           00006        RAND100            DEC      6          B-14
000290:    4613           00011        RAND101            DEC      9          B-14
000291:    4614           00010        RAND102            DEC      8          B-14
000292:    4615           00001        RAND103            DEC      1          B-14
000293:    4616           00007        RAND104            DEC      7          B-14
000294:    4617           00003        RAND105            DEC      3          B-14
000295:    4620           00006        RAND106            DEC      6          B-14
000296:    4621           00007        RAND107            DEC      7          B-14
000297:    4622           00006        RAND108            DEC      6          B-14
000298:    4623           00001        RAND109            DEC      1          B-14
000299:    4624           00004        RAND110            DEC      4          B-14
000300:    4625           00011        RAND111            DEC      9          B-14
000301:    4626           00000        RAND112            DEC      0          B-14
000302:    4627           00002        RAND113            DEC      2          B-14
000303:    4630           00005        RAND114            DEC      5          B-14
000304:    4631           00004        RAND115            DEC      4          B-14
000305:    4632           00005        RAND116            DEC      5          B-14
000306:    4633           00000        RAND117            DEC      0          B-14
000307:    4634           00000        RAND118            DEC      0          B-14
000308:    4635           00005        RAND119            DEC      5          B-14
000309:    4636           00010        RAND120            DEC      8          B-14
000310:    4637           00005        RAND121            DEC      5          B-14
000311:    4640           00001        RAND122            DEC      1          B-14
000312:    4641           00000        RAND123            DEC      0          B-14
000313:    4642           00003        RAND124            DEC      3          B-14
000314:    4643           00006        RAND125            DEC      6          B-14
000315:    4644           00003        RAND126            DEC      3          B-14
000316:    4645           00004        RAND127            DEC      4          B-14
000317:    4646           00001        RAND128            DEC      1          B-14
000318:

End of include-file Constants.agc.  Parent file is Main.agc


