
Source Code
000001:
000002:    4065                        DISPNUM                                                           #  CUR_ID is the index of next segment to display (0=left prog, 20 = digit 5 bottom row)
000003:                                                                                                  #  Print value held in VALUES array to correct segment
000004:
000005:                                                                                                  #  Data is sent to the DSKY via Channel 10 two digits at a time.
000006:                                                                                                  #  Bits 10-14 select which pair of digits we want to draw
000007:                                                                                                  #  Bits 0-4 selects which digit to draw on the right segment
000008:                                                                                                  #  Bits 5-9 selects which digit to draw on the left segment
000009:
000010:    4065           30007                           CA       ZEROES                                #  Load 0 into accumulator from a fixed rom constant
000011:    4066           54134                           TS       DIGIT_L                               #  Reset left digit calculation to 0 (empty)
000012:    4067           54135                           TS       DIGIT_R                               #  Reset right digit calculation to 0 (empty)
000013:
000014:    4070           50131                           INDEX    CUR_ID                                #  Index next instruction by segment id
000015:    4071           34375                           CA       SEG_0                                 #  Get which pair of digits this segment belongs to
000016:    4072           54132                           TS       SEG_OUT                               #  Save ID to RAM
000017:
000018:    4073           50132                           INDEX    SEG_OUT                               #  Index next instruction by segment pair id
000019:    4074           34422                           CA       SEGCODE                               #  Get value required in bits 10-14 to select pair, using id
000020:    4075           54133                           TS       DSKY_OUT                              #  Save to RAM to use later when we have the digit data
000021:
000022:    4076           50131                           INDEX    CUR_ID                                #  Index next instruction by segment id
000023:    4077           30104                           CA       VALUES                                #  Get the value in RAM we want to display here
000024:    4100           54063                           TS       TEMPI                                 #  Save to temporary RAM variable
000025:
000026:    4101           50131                           INDEX    CUR_ID                                #  Index next instruction by segment id
000027:    4102           34350                           CA       LEFTRIGHT                             #  Get whether this segment is left or right of its pair
000028:    4103           00006                           EXTEND                                         #  Extend to use a new Block 2 AGC instruction
000029:    4104           14123                           BZF      SKIPLEFT                              #  If zero (is right), skip the left digit
000030:
000031:    4105                        CALCLEFT
000032:    4105           50063                           INDEX    TEMPI                                 #  Index next instruction by our digit (0-9)
000033:    4106           34232                           CA       DSP0                                  #  Get the 5-bit code for this digit to send to DSKY
000034:    4107           54022                           TS       CYL                                   #  Transfer it to the shift left register
000035:    4110           30022                           CA       CYL                                   #  Shift left no 1
000036:    4111           30022                           CA       CYL                                   #  Shift left no 2
000037:    4112           30022                           CA       CYL                                   #  Shift left no 3
000038:    4113           30022                           CA       CYL                                   #  Shift left no 4
000039:    4114           30022                           CA       CYL                                   #  Shift left no 5 (is now in bits 5-9 for the left digit)
000040:    4115           54134                           TS       DIGIT_L                               #  Save to RAM to use later
000041:
000042:    4116           24131                           INCR     CUR_ID                                #  Move onto the right segment of the pair
000043:    4117           50131                           INDEX    CUR_ID                                #  Index by new segment id
000044:    4120           30104                           CA       VALUES                                #  Get value to display on right digit
000045:    4121           54135                           TS       DIGIT_R                               #  Save to RAM to use later
000046:
000047:    4122           14125                           TCF      DIDLEFT                               #  Skip the code to set only the right digit if left not drawn
000048:
000049:    4123                        SKIPLEFT
000050:    4123           30063                           CA       TEMPI                                 #  Load the value for this digit to draw on the right of pair
000051:    4124           54135                           TS       DIGIT_R                               #  Store to RAM
000052:
000053:    4125                        DIDLEFT
000054:
000055:    4125           50135                           INDEX    DIGIT_R                               #  Index by value of right digit
000056:    4126           34232                           CA       DSP0                                  #  Get the 5-bit code for this digit to send to DSKY
000057:
000058:    4127                        OUTPUT
000059:    4127           60133                           AD       DSKY_OUT                              #  Add bits 10-14
000060:    4130           60134                           AD       DIGIT_L                               #  Add bits 5-9
000061:    4131           00006                           EXTEND                                         #  Extend in order to use I/O channel instruction
000062:    4132           01010                           WRITE    CH10                                  #  Send the value to channel 10 to display on DKSY
000063:
000064:    4133           00002                           RETURN                                         #  Return from subroutine

End of include-file Display.agc.  Parent file is Main.agc


