
Source Code
000001:
000002:
000003:                                                                                                  #  DISPLAY ALL 15 SEGMENTS IN THE GAME GRID
000004:
000005:    4703                        DISP15
000006:    4703           00006                           EXTEND
000007:    4704           22071                           QXCH     RET_ADR                               #  Store return address because we TC elsewhere
000008:
000009:    4705           35261                           CA       DEC6                                  #  Do top left cell first as its digit doesn't have a segment partner
000010:    4706           54075                           TS       CUR_ID                                #  Use id for top left cell
000011:    4707           04725                           TC       DISPNUM                               #  Call function to display this digit
000012:
000013:    4710           24075                           INCR     CUR_ID                                #  Move onto next digit. The rest all come in pairs.
000014:
000015:    4711                        SEGLOOP
000016:
000017:    4711           04725                           TC       DISPNUM                               #  Call function to display next two digits.
000018:
000019:    4712           24075                           INCR     CUR_ID                                #  Inc cell id, it's now +2 from before display call.
000020:    4713           35142                           CA       TWENTY1                               #  Load id of last cell + 1
000021:    4714           00006                           EXTEND
000022:    4715           60075                           SU       CUR_ID                                #  Subtract current cell id
000023:    4716           00006                           EXTEND
000024:    4717           14722                           BZF      DONE15                                #  If zero, we displayed all cells
000025:
000026:    4720           54067                           TS       NEWJOB                                #  Nudge watchdog as display code fairly slow
000027:
000028:    4721           14711                           TCF      SEGLOOP                               #  Loop back to draw the next two segments
000029:
000030:
000031:    4722                        DONE15
000032:    4722           00006                           EXTEND
000033:    4723           22071                           QXCH     RET_ADR                               #  Retrieve our return address
000034:    4724           00002                           RETURN                                         #  Return to caller (multiple places)
000035:
000036:
000037:
000038:
000039:    4725                        DISPNUM                                                           #  CUR_ID is the index of next segment to display (0=left prog, 20 = digit 5 bottom row)
000040:                                                                                                  #  Print value held in VALUES array to correct segment
000041:
000042:                                                                                                  #  Data is sent to the DSKY via Channel 10 two digits at a time.
000043:                                                                                                  #  Bits 10-14 select which pair of digits we want to draw
000044:                                                                                                  #  Bits 0-4 selects which digit to draw on the right segment
000045:                                                                                                  #  Bits 5-9 selects which digit to draw on the left segment
000046:
000047:    4725           30007                           CA       ZEROES                                #  Load 0 into accumulator from a fixed rom constant
000048:    4726           54117                           TS       DIGIT_L                               #  Reset left digit calculation to 0 (empty)
000049:    4727           54120                           TS       DIGIT_R                               #  Reset right digit calculation to 0 (empty)
000050:
000051:    4730           50075                           INDEX    CUR_ID                                #  Index next instruction by segment id
000052:    4731           35213                           CA       SEG_0                                 #  Get which pair of digits this segment belongs to
000053:    4732           54076                           TS       SEG_OUT                               #  Save ID to RAM
000054:
000055:    4733           50076                           INDEX    SEG_OUT                               #  Index next instruction by segment pair id
000056:    4734           35240                           CA       SEGCODE                               #  Get value required in bits 10-14 to select pair, using id
000057:    4735           54116                           TS       DSKY_OUT                              #  Save to RAM to use later when we have the digit data
000058:
000059:    4736           50075                           INDEX    CUR_ID                                #  Index next instruction by segment id
000060:    4737           30124                           CA       VALUES                                #  Get the value in RAM we want to display here
000061:    4740           54061                           TS       TEMPI                                 #  Save to temporary RAM variable
000062:
000063:    4741           50075                           INDEX    CUR_ID                                #  Index next instruction by segment id
000064:    4742           35166                           CA       LEFTRIGHT                             #  Get whether this segment is left or right of its pair
000065:    4743           00006                           EXTEND                                         #  Extend to use a new Block 2 AGC instruction
000066:    4744           14763                           BZF      SKIPLEFT                              #  If zero (is right), skip the left digit
000067:
000068:    4745                        CALCLEFT
000069:    4745           50061                           INDEX    TEMPI                                 #  Index next instruction by our digit (0-9)
000070:    4746           35154                           CA       DSP0                                  #  Get the 5-bit code for this digit to send to DSKY
000071:    4747           54022                           TS       CYL                                   #  Transfer it to the shift left register
000072:    4750           30022                           CA       CYL                                   #  Shift left no 1
000073:    4751           30022                           CA       CYL                                   #  Shift left no 2
000074:    4752           30022                           CA       CYL                                   #  Shift left no 3
000075:    4753           30022                           CA       CYL                                   #  Shift left no 4
000076:    4754           30022                           CA       CYL                                   #  Shift left no 5 (is now in bits 5-9 for the left digit)
000077:    4755           54117                           TS       DIGIT_L                               #  Save to RAM to use later
000078:
000079:    4756           24075                           INCR     CUR_ID                                #  Move onto the right segment of the pair
000080:    4757           50075                           INDEX    CUR_ID                                #  Index by new segment id
000081:    4760           30124                           CA       VALUES                                #  Get value to display on right digit
000082:    4761           54120                           TS       DIGIT_R                               #  Save to RAM to use later
000083:
000084:    4762           14765                           TCF      DIDLEFT                               #  Skip the code to set only the right digit if left not drawn
000085:
000086:    4763                        SKIPLEFT
000087:    4763           30061                           CA       TEMPI                                 #  Load the value for this digit to draw on the right of pair
000088:    4764           54120                           TS       DIGIT_R                               #  Store to RAM
000089:
000090:    4765                        DIDLEFT
000091:
000092:    4765           50120                           INDEX    DIGIT_R                               #  Index by value of right digit
000093:    4766           35154                           CA       DSP0                                  #  Get the 5-bit code for this digit to send to DSKY
000094:
000095:    4767                        OUTPUT
000096:    4767           60116                           AD       DSKY_OUT                              #  Add bits 10-14
000097:    4770           60117                           AD       DIGIT_L                               #  Add bits 5-9
000098:    4771           00006                           EXTEND                                         #  Extend in order to use I/O channel instruction
000099:    4772           01010                           WRITE    CH10                                  #  Send the value to channel 10 to display on DKSY
000100:
000101:    4773           00002                           RETURN                                         #  Return from subroutine
000102:
000103:
000104:
000105:                                                                                                  # Hold up CPU to delay between movement of numbers to give animation effect
000106:
000107:    4774           01750        IODELAYT           DEC      1000       B-14                       #  This constant is stored in fixed ROM
000108:
000109:    4775                        IODELAY
000110:    4775           54061                           TS       TEMPI                                 #  Save accumulator.
000111:    4776           14777                           NOOP                                           #  Do thing for a bit
000112:    4777           34774                           CA       IODELAYT                              #  Load delay into A
000113:    5000           54067                           TS       NEWJOB                                #  Nudge watchdog as we're in a busy loop
000114:    5001           10000                           CCS      A                                     #  Decrement a and compare
000115:    5002           15000                           TCF      -2                                    #  >0 so jump back up to TS NEWJOB
000116:    5003           30061                           CA       TEMPI                                 #  Restore accumulator.
000117:    5004           00002                           RETURN                                         #  Return to where delay was asked for

End of include-file Display.agc.  Parent file is Main.agc


