
Source Code
000001:    4201                        SETUPMOV
000002:
000003:    4201           30007                           CA       ZERO                                  #  Load 0 into A
000004:    4202           54103                           TS       MATCHMD                               #  Clear array of 5 that indicates whether two numbers
000005:    4203           54104                           TS       MATCH1                                #  have already been combined for the given row/col
000006:    4204           54105                           TS       MATCH2
000007:    4205           54106                           TS       MATCH3                                #  Otherwise moving left on a row of 0-0-1 would end as 2-x-x.
000008:    4206           54107                           TS       MATCH4                                #  When it should be 1-1-x.
000009:
000010:    4207           00002                           RETURN
000011:
000012:    4210                        MOVE_DOWN                                                          #  The down key (8) has been pressed
000013:
000014:    4210           04201                           TC       SETUPMOV                              #  Setup a table and check if can proceed - may never return!
000015:    4211           30112                           CA       GM_DONE                               #  Load game complete status into A
000016:    4212           00006                           EXTEND
000017:    4213           14215                           BZF      MOVING_DN                             #  Flag is zero, not complete yet
000018:
000019:    4214           14070                           TCF      MAINLOOP
000020:
000021:    4215                        MOVING_DN                                                          #  Once in a state of 'sta_down', come here each 'frame'
000022:                                                                                                  #  until no more cells can move down
000023:
000024:    4215           35254                           CA       STA_DOWN                              #  Load the game status of 'moving down'
000025:    4216           54101                           TS       GM_STATE                              #  Save as game state
000026:
000027:    4217           30007                           CA       ZERO                                  #  Load 0 into A
000028:    4220           54123                           TS       PLAY_ID                               #  Reset number of cells moved this iteration.
000029:
000030:    4221           35254                           CA       DEC1                                  #  Start from middle row, checking below to see if we can move into it.
000031:    4222           54113                           TS       ROW_ID                                #  Store 1 into ROW_ID
000032:
000033:    4223                        D_ROLOOP                                                          #  Loop through rows, checking each column to see if number can move down
000034:
000035:    4223           50113                           INDEX    ROW_ID                                #  Index by the row_id
000036:    4224           35277                           CA       ROW_STRT                              #  Get the first cell id in this row
000037:    4225           54075                           TS       CUR_ID                                #  Store this as current id
000038:    4226           65260                           AD       DEC5                                  #  Add 5
000039:    4227           54115                           TS       END_ID                                #  Store cur_id + 5 to know when to stop processing row
000040:
000041:    4230                        D_COLOOP                                                          #  Loop through each cell on a row
000042:
000043:
000044:    4230           50075                           INDEX    CUR_ID                                #  Index by the current cell id
000045:    4231           35307                           CA       GRID_COL                              #  Get the column this cell belongs to
000046:    4232           54111                           TS       CELLCOL                               #  And save value to ram for later
000047:
000048:    4233           50075                           INDEX    CUR_ID                                #  Index by the current cell id again
000049:    4234           30124                           CA       VALUES                                #  Get the value in this cell
000050:    4235           54100                           TS       CELL_VALUE                            #  Save cell value
000051:    4236           65254                           AD       DEC1                                  #  Add 1. If empty (-1), this is now 0.
000052:    4237           00006                           EXTEND
000053:    4240           14271                           BZF      D_NOCOL                               #  If empty, don't bother checking cell below
000054:
000055:
000056:    4241                        CHK_BEL                                                           #  This cell has a number, check below
000057:
000058:    4241           30075                           CA       CUR_ID                                #  Load the current cell id
000059:    4242           65260                           AD       DEC5                                  #  Add 5 (number of columns) to get cell below
000060:    4243           54077                           TS       CHK_ID                                #  Store cell check id
000061:
000062:    4244           50077                           INDEX    CHK_ID                                #  Index using the cell below's id
000063:    4245           30124                           CA       VALUES                                #  Get the value in the cell below
000064:    4246           54102                           TS       CHK_VALUE                             #  Store the cell below's value
000065:    4247           65254                           AD       DEC1                                  #  Add 1. If empty (-1), this is now 0.
000066:    4250           00006                           EXTEND
000067:    4251           14270                           BZF      MOV_DN                                #  If cell below empty, we can move straight into it.
000068:
000069:    4252                        D_SOMEHR                                                          #  There's a number below. Check what it is.
000070:
000071:    4252           50111                           INDEX    CELLCOL                               #  Index by the column our cell is in
000072:    4253           30103                           CA       MATCHMD                               #  Get whether we already combined cells in this column
000073:    4254           00006                           EXTEND
000074:    4255           14257                           BZF      D_NOSOF                               #  If 0, we didn't already combine so we can check for match
000075:
000076:    4256           14271                           TCF      D_NOCOL                               #  We already combined so we don't want to try and combine again
000077:
000078:    4257                        D_NOSOF
000079:
000080:    4257           30100                           CA       CELL_VALUE                            #  Load the value in original cell
000081:    4260           00006                           EXTEND
000082:    4261           60102                           SU       CHK_VALUE                             #  Subtract the value in cell below
000083:    4262           00006                           EXTEND
000084:    4263           14265                           BZF      D_MATCH                               #  If zero, they are the same. Combine them.
000085:
000086:    4264           14271                           TCF      D_NOCOL                               #  Not the same, can't move as way is blocked
000087:
000088:    4265                        D_MATCH
000089:
000090:    4265           50111                           INDEX    CELLCOL                               #  Index by the column these cells are in
000091:    4266           04331                           TC       UPGRADE                               #  Increase target cell, empty orig cell
000092:
000093:    4267           14271                           TCF      D_NOCOL                               #  Move along to next column
000094:    4270                        MOV_DN
000095:
000096:    4270           04321                           TC       CELL_MOV                              #  Move cell value to new cell, empty orig cell
000097:
000098:    4271                        D_NOCOL                                                           #  End of processing for this column
000099:
000100:    4271           24075                           INCR     CUR_ID                                #  Move cell id to next column
000101:    4272           30075                           CA       CUR_ID                                #  Load id into A
000102:    4273           00006                           EXTEND
000103:    4274           60115                           SU       END_ID                                #  Subtract id of first cell in row below
000104:    4275           00006                           EXTEND
000105:    4276           14300                           BZF      D_NXTRW                               #  If zero, we have no more columns, goto next row
000106:
000107:    4277           14230                           TCF      D_COLOOP                              #  More columns to process, loop back up
000108:
000109:    4300                        D_NXTRW
000110:
000111:    4300           54067                           TS       NEWJOB                                #  Nudge watchdog as this processing might take a while
000112:    4301           30113                           CA       ROW_ID                                #  Load the row id
000113:    4302           00006                           EXTEND
000114:
000115:    4303           14307                           BZF      D_DONE                                #  If row id is zero, we've done all rows now
000116:
000117:    4304           00006                           EXTEND
000118:    4305           26113                           DIM      ROW_ID                                #  Not last row, move up into next row
000119:
000120:    4306           14223                           TCF      D_ROLOOP                              #  Process the next row
000121:
000122:    4307                        D_DONE
000123:
000124:    4307           30123                           CA       PLAY_ID                               #  Did we move anything in this iteration?
000125:    4310           00006                           EXTEND
000126:    4311           14315                           BZF      D_NOWT                                #  If 0 we did not so return control to player
000127:
000128:    4312                        D_UPDATE
000129:
000130:    4312           04703                           TC       DISP15                                #  We moved something, update display
000131:    4313           04775                           TC       IODELAY                               #  Delay a bit so numbers don't move instantly from one end to other
000132:    4314           14070                           TCF      MAINLOOP                              #  Return to main loop to see if anything still to move
000133:
000134:    4315                        D_NOWT
000135:    4315           35260                           CA       STA_ADD                               #  All movement handled, now add new number to grid
000136:    4316           54101                           TS       GM_STATE                              #  Save to game state, we'll do in next main loop
000137:
000138:    4317           04775                           TC       IODELAY                               #  A little delay before adding so it's obvious where it went
000139:
000140:    4320           14070                           TCF      MAINLOOP                              #  Return to main loop which will add a new number next time
000141:
000142:
000143:    4321                        CELL_MOV
000144:
000145:    4321           24123                           INCR     PLAY_ID                               #  We are moving a number into empty space. Inc move counter.
000146:
000147:    4322           30100                           CA       CELL_VALUE                            #  Load the value in cell that's moving
000148:    4323           50077                           INDEX    CHK_ID                                #  Index by cell below id
000149:    4324           54124                           TS       VALUES                                #  Set cell below to value of original cell
000150:
000151:    4325           35140                           CA       NEG_ONE                               #  Load -1 to A (empty)
000152:    4326           50075                           INDEX    CUR_ID                                #  Index by original cell id
000153:    4327           54124                           TS       VALUES                                #  Set original cell to now be empty
000154:
000155:    4330           00002                           RETURN
000156:
000157:    4331                        UPGRADE
000158:
000159:
000160:    4331           24123                           INCR     PLAY_ID                               #  Increase counter as something is going to move
000161:
000162:    4332           30100                           CA       CELL_VALUE                            #  Load value in original cell
000163:    4333           65254                           AD       DEC1                                  #  Add 1 because we are combining
000164:    4334           50077                           INDEX    CHK_ID                                #  Index using cell below id
000165:    4335           54124                           TS       VALUES                                #  Set cell below to be +1
000166:    4336           54061                           TS       TEMPI                                 #  Save to temp var, we need to check if it's 9
000167:
000168:    4337           35264                           CA       DEC9                                  #  Load 9 into A
000169:    4340           00006                           EXTEND
000170:    4341           60061                           SU       TEMPI                                 #  Subtract the value of combined cell
000171:    4342           00006                           EXTEND
000172:    4343           14345                           BZF      COMPLETE                              #  If zero, we must have made a 9, game complete
000173:
000174:    4344           14351                           TCF      NOTCOMP                               #  If zero, we must have made a 9, game complete
000175:
000176:
000177:    4345                        COMPLETE
000178:
000179:    4345           35152                           CA       BIT5                                  #  Load value where bit 5 = 1, rest 0 (key rel flash)
000180:    4346           00006                           EXTEND
000181:    4347           01011                           WRITE    CH11                                  #  Output to DSKY lights IO channel
000182:    4350           24112                           INCR     GM_DONE                               #  Set done flag so we don't allow further play'
000183:
000184:    4351                        NOTCOMP
000185:
000186:
000187:    4351           35140                           CA       NEG_ONE                               #  Load -1 to A (empty)
000188:    4352           50075                           INDEX    CUR_ID                                #  Index by original cell id
000189:    4353           54124                           TS       VALUES                                #  Set original cell to now be empty
000190:
000191:
000192:
000193:    4354           00002                           RETURN
000194:

End of include-file Down.agc.  Parent file is Main.agc


