
Source Code
000001:
000002:    4102                        RESETALL
000003:
000004:    4102           35142                           CA       TWENTY1                               #  Set loop counter to 21
000005:    4103           54075                           TS       CUR_ID
000006:    4104                        RESETLOOP
000007:    4104           35140                           CA       NEG_ONE                               #  Load -1 to A (empty cell)
000008:    4105           50075                           INDEX    CUR_ID                                #  Index by current loop count
000009:    4106           54124                           TS       VALUES                                #  Save -1 to empty this grid cell
000010:
000011:    4107           00006                           EXTEND
000012:    4110           26075                           DIM      CUR_ID                                #  Decrement loop counter
000013:    4111           30075                           CA       CUR_ID                                #  Load loop counter
000014:    4112           00006                           EXTEND
000015:    4113           14115                           BZF      RESETEND                              #  If zero, we've cleared all of VALUES array
000016:
000017:    4114           14104                           TCF      RESETLOOP                             #  Not zero, loop back for next cell
000018:
000019:
000020:    4115                        RESETEND
000021:    4115           00002                           RETURN                                         #  Return to Init
000022:
000023:
000024:    4116                        SECOND
000025:
000026:    4116           24073                           INCR     ACTIVE                                #  Set game to active now two cells will be populated
000027:    4117                        NEWNUM
000028:
000029:    4117           04775                           TC       IODELAY                               #  Delay a bit before generating the number
000030:    4120           04131                           TC       GENZERO                               #  Call function to generate a 0 or 1 in empty cell
000031:    4121           04703                           TC       DISP15                                #  Call function Display the new grid state
000032:
000033:    4122           30073                           CA       ACTIVE                                #  Load whether game is active
000034:    4123           00006                           EXTEND
000035:    4124           14116                           BZF      SECOND                                #  If not, generate another new number
000036:
000037:    4125           04775                           TC       IODELAY                               #  Delay before returning control to player
000038:
000039:    4126           35253                           CA       STA_INPUT                             #  Change game state to player control
000040:    4127           54101                           TS       GM_STATE
000041:
000042:    4130           14070                           TCF      MAINLOOP                              #  Return to start of game loop
000043:
000044:
000045:
000046:    4131                        GENZERO                                                           #  Generate a 0 or 1 in an empty grid cell
000047:    4131           00006                           EXTEND
000048:    4132           22072                           QXCH     RET_ADR2                              #  Save the return address of the calling function
000049:
000050:
000051:    4133                        NEWBOX
000052:
000053:    4133           35144                           CA       MASK15                                #  Load a mask to keep only the bottom 4 bits
000054:    4134           54061                           TS       TEMPI                                 #  Store into temp variable
000055:
000056:    4135           05120                           TC       RANDOM                                #  Get a random number (and discard)
000057:    4136           30074                           CA       COUNTER                               #  Load the random number counter (0-127)
000058:    4137           75144                           MASK     MASK15                                #  Mask it down to 0-15
000059:    4140           54123                           TS       PLAY_ID                               #  Store it as the grid cell to try and add to
000060:    4141           00006                           EXTEND
000061:    4142           60061                           SU       TEMPI                                 #  Subtract 15 from this cell number
000062:    4143           00006                           EXTEND
000063:    4144           14150                           BZF      ADD5                                  #  If is 0, we have cell 16 and there only 15.
000064:
000065:    4145                        ADD6                                                              #  Is not 0, we can safely add grid offset of 6
000066:
000067:    4145           30123                           CA       PLAY_ID                               #  Load the number we know is from 0-14
000068:    4146           65261                           AD       DEC6                                  #  Add 6 to get the first display segment in the grid
000069:
000070:    4147           14152                           TCF      CHKVALID                              #  Now check whether this grid cell is empty
000071:
000072:    4150                        ADD5
000073:    4150           30123                           CA       PLAY_ID                               #  We know the number is 15
000074:    4151           65260                           AD       DEC5                                  #  So only add 5 so we still get a valid cell
000075:
000076:    4152                        CHKVALID
000077:
000078:    4152           54123                           TS       PLAY_ID                               #  Store the cell id to check is empty
000079:    4153           50123                           INDEX    PLAY_ID                               #  Index by the cell id
000080:    4154           30124                           CA       VALUES                                #  Get the value held for cell in VALUES array
000081:    4155           65254                           AD       DEC1                                  #  Add one, if it was empty (-1) it's now zero'
000082:    4156           00006                           EXTEND
000083:    4157           14162                           BZF      ISEMPTY                               #  If empty, we can use this cell for new number
000084:
000085:    4160                        NOTEMPTY
000086:
000087:    4160           54067                           TS       NEWJOB                                #  Nudge watchdog in case it takes a while to find cell
000088:    4161           14133                           TCF      NEWBOX                                #  We can't use this cell, try again
000089:
000090:    4162                        ISEMPTY
000091:
000092:    4162           05120                           TC       RANDOM                                #  Get a random number from 0-9
000093:    4163           54061                           TS       TEMPI                                 #  Save to temp variable
000094:    4164           35257                           CA       DEC4                                  #  Load 4 into A
000095:    4165           00006                           EXTEND
000096:    4166           60061                           SU       TEMPI                                 #  Subtract 0-9 from 5
000097:    4167           00006                           EXTEND
000098:    4170           64173                           BZMF     MAKEONE                               #  if zero or negative, make cell = 1
000099:
000100:    4171           30007                           CA       ZERO                                  #  is >0, make cell = 0
000101:    4172           14174                           TCF      STORENEW
000102:
000103:    4173                        MAKEONE
000104:    4173           35254                           CA       DEC1                                  #  Load 1 into A
000105:
000106:    4174                        STORENEW
000107:
000108:    4174           50123                           INDEX    PLAY_ID                               #  Index by chosen cell ID
000109:    4175           54124                           TS       VALUES                                #  Store 0-1 into values array by index
000110:
000111:    4176           00006                           EXTEND
000112:    4177           22072                           QXCH     RET_ADR2                              #  Restore return address of calling func
000113:
000114:    4200           00002                           RETURN                                         #  Return to NEWNUM

End of include-file Grid.agc.  Parent file is Main.agc


