
Source Code
000001:    4143                        KEYRUPT1
000002:
000003:    4143           04215                           TC       RANDOM
000004:    4144           50131                           INDEX    CUR_ID
000005:    4145           54104                           TS       VALUES
000006:
000007:    4146           24131                           INCR     CUR_ID
000008:    4147           04215                           TC       RANDOM
000009:    4150           50131                           INDEX    CUR_ID
000010:    4151           54104                           TS       VALUES
000011:
000012:    4152           00006                           EXTEND
000013:    4153           26131                           DIM      CUR_ID
000014:
000015:    4154           04065                           TC       DISPNUM
000016:    4155           30131                           CA       CUR_ID
000017:    4156           00006                           EXTEND
000018:    4157           60136                           SU       NUM_SEGS
000019:    4160           00006                           EXTEND
000020:    4161           14164                           BZF      WRAPID
000021:
000022:    4162           24131                           INCR     CUR_ID
000023:
000024:    4163           14175                           TCF      EXITRUPT
000025:
000026:    4164                        WRAPID
000027:    4164           30007                           CA       ZEROES
000028:    4165           54131                           TS       CUR_ID
000029:    4166           14175                           TCF      EXITRUPT
000030:
000031:    4167           00006                           EXTEND
000032:    4170           00015                           READ     CH15
000033:    4171           74321                           MASK     LOW5
000034:    4172           54065                           TS       TEMPK
000035:    4173           50065                           INDEX    TEMPK
000036:    4174           14176                           TCF      JMPTABLE
000037:
000038:                                                                                                  # CA      CLEARBTN
000039:                                                                                                  #  TS      TEMPI
000040:                                                                                                  #  CA      TEMPK
000041:                                                                                                  #  EXTEND
000042:                                                                                                  #  SU      TEMPI
000043:                                                                                                  #  EXTEND
000044:                                                                                                  #   BZF     DISPLAY2
000045:    4175                        EXITRUPT
000046:    4175           50017                           RESUME
000047:
000048:    4176                        JMPTABLE
000049:    4176           14175                           TCF      EXITRUPT                              #  NOTHING
000050:    4177           14175                           TCF      EXITRUPT                              #  1
000051:    4200           14175                           TCF      EXITRUPT                              #  2
000052:    4201           14175                           TCF      EXITRUPT
000053:    4202           14175                           TCF      EXITRUPT
000054:    4203           14175                           TCF      EXITRUPT
000055:    4204           14175                           TCF      EXITRUPT
000056:    4205           14175                           TCF      EXITRUPT
000057:    4206           14175                           TCF      EXITRUPT
000058:    4207           14175                           TCF      EXITRUPT
000059:    4210           14175                           TCF      EXITRUPT
000060:    4211           14175                           TCF      EXITRUPT
000061:    4212           14175                           TCF      EXITRUPT
000062:    4213           14175                           TCF      EXITRUPT
000063:    4214           14175                           TCF      EXITRUPT
000064:

End of include-file Input.agc.  Parent file is Main.agc


