
Source Code
000001:    5014                        KEYRUPT1                                                          #  Triggered automatically when a key is pressed
000002:
000003:    5014           35130                           CA       NOKEY                                 #  Load code for 'NO KEY PRESSED'
000004:    5015           54070                           TS       KEYBUF                                #  Clear key buffer so we don't persist presses from when they are not wanted
000005:
000006:    5016           30073                           CA       ACTIVE                                #  Load whether game is active
000007:    5017           00006                           EXTEND
000008:    5020           15025                           BZF      CAN_READ                              #  If not active, we can accept key press to start the game
000009:
000010:    5021           30101                           CA       GM_STATE                              #  Load game state into A
000011:    5022           00006                           EXTEND
000012:    5023           15025                           BZF      CAN_READ                              #  If not 'check_key', we don't care about key presses
000013:
000014:    5024           15031                           TCF      EXITRUPT                              #  Exit, we're not listening for key presses while processing happens
000015:
000016:    5025                        CAN_READ
000017:
000018:    5025           00006                           EXTEND
000019:    5026           00015                           READ     CH15                                  #  Read I/O channel that contains the keycode
000020:    5027           75132                           MASK     LOW5                                  #  Retain only lower 5 bits
000021:    5030           54070                           TS       KEYBUF                                #  Store into keyboard buffer variable for main loop to pick up
000022:
000023:    5031                        EXITRUPT
000024:    5031           30007                           CA       ZEROES                                #  Clear the input channel
000025:    5032           00006                           EXTEND
000026:    5033           01015                           WRITE    CH15
000027:
000028:    5034           52011                           DXCH     ARUPT                                 #  Restore A, L, and Q, and exit the interrupt
000029:    5035           00006                           EXTEND
000030:    5036           22012                           QXCH     QRUPT
000031:    5037           50017                           RESUME
000032:
000033:
000034:
000035:
000036:    5040                        WAITKEY                                                           #  Waiting for any key press to start game
000037:                                                                                                  #  If we didn't wait, the RNG would always start in same state
000038:
000039:    5040           35130                           CA       NOKEY                                 #  Load key code for 'no key pressed'
000040:    5041           00006                           EXTEND
000041:    5042           60070                           SU       KEYBUF                                #  Subtract the key code read
000042:    5043           00006                           EXTEND
000043:    5044           15051                           BZF      WAITMORE                              #  If zero, nothing pressed, continue waiting
000044:
000045:    5045           35130                           CA       NOKEY                                 #  Clear keyboard buffer so not carried into game
000046:    5046           54070                           TS       KEYBUF
000047:
000048:    5047           35260                           CA       STA_ADD                               #  Set game state to add the two starting numbers and exit
000049:    5050           54101                           TS       GM_STATE
000050:
000051:    5051                        WAITMORE
000052:    5051           14070                           TCF      MAINLOOP
000053:
000054:
000055:
000056:    5052                        CHECK_KEY                                                          #  Check whether key press in buffer from interrupt
000057:
000058:    5052           35130                           CA       NOKEY                                 #  Load key code for nothing pressed into A
000059:    5053           56070                           XCH      KEYBUF                                #  Swap A and buffer. A is now key code and buffer is clear.
000060:    5054           50000                           INDEX    A                                     #  Index using the keycode
000061:    5055           15056                           TCF      KEYTABL                               #  Into a jump table with jumps for each possible key
000062:
000063:                                                                                                  #  We ignore all presses except for 2, 4, 6, 8 for game control and ENTER/RESTART to reset game.
000064:    5056                        KEYTABL
000065:    5056           15117                           TCF      ENDKYCK                               #  unused
000066:    5057           15117                           TCF      ENDKYCK                               #  1
000067:    5060           14210                           TCF      MOVE_DOWN                             #  2
000068:    5061           15117                           TCF      ENDKYCK                               #  3
000069:    5062           14464                           TCF      MOVE_LEFT                             #  4
000070:    5063           15117                           TCF      ENDKYCK                               #  5
000071:    5064           14574                           TCF      MOVE_RT                               #  6
000072:    5065           15117                           TCF      ENDKYCK                               #  7
000073:    5066           14355                           TCF      MOVE_UP                               #  8
000074:    5067           15117                           TCF      ENDKYCK                               #  9
000075:    5070           15117                           TCF      ENDKYCK                               #  unused
000076:    5071           15117                           TCF      ENDKYCK                               #  unused
000077:    5072           15117                           TCF      ENDKYCK                               #  unused
000078:    5073           15117                           TCF      ENDKYCK                               #  unused
000079:    5074           15117                           TCF      ENDKYCK                               #  unused
000080:    5075           15117                           TCF      ENDKYCK                               #  unused
000081:    5076           15117                           TCF      ENDKYCK                               #  0
000082:    5077           15117                           TCF      ENDKYCK                               #  VERB
000083:    5100           14054                           TCF      INIT                                  #  RSET
000084:    5101           15117                           TCF      ENDKYCK                               #  unused
000085:    5102           15117                           TCF      ENDKYCK                               #  unused
000086:    5103           15117                           TCF      ENDKYCK                               #  unused
000087:    5104           15117                           TCF      ENDKYCK                               #  unused
000088:    5105           15117                           TCF      ENDKYCK                               #  unused
000089:    5106           15117                           TCF      ENDKYCK                               #  unused
000090:    5107           15117                           TCF      ENDKYCK                               #  KEY REL
000091:    5110           15117                           TCF      ENDKYCK                               #  +
000092:    5111           15117                           TCF      ENDKYCK                               #  -
000093:    5112           14054                           TCF      INIT                                  #  ENTR
000094:    5113           15117                           TCF      ENDKYCK                               #  unused
000095:    5114           15117                           TCF      ENDKYCK                               #  CLR
000096:    5115           15117                           TCF      ENDKYCK                               #  NOUN
000097:    5116           15117                           TCF      ENDKYCK                               #  NOKEY
000098:
000099:    5117                        ENDKYCK
000100:    5117           14070                           TCF      MAINLOOP                              #  When we do nothing, just exit back to main loop to wait for a valid key
000101:

End of include-file Input.agc.  Parent file is Main.agc


