
Source Code
000001:                                                                                                  #  See Down.agc for detailed explanation of how the code
000002:                                                                                                  #  to move and combine numbers works. The only differences between them
000003:                                                                                                  #  is to reverse directions and/or swap rows for columns (if horizontal)
000004:
000005:    4464                        MOVE_LEFT
000006:
000007:    4464           04201                           TC       SETUPMOV                              #  Setup a table and check if can proceed - may never return!
000008:    4465           30112                           CA       GM_DONE                               #  Load game complete status into A
000009:    4466           00006                           EXTEND
000010:    4467           14471                           BZF      MOVING_LT                             #  Flag is zero, not complete yet
000011:
000012:    4470           14070                           TCF      MAINLOOP
000013:
000014:
000015:    4471                        MOVING_LT
000016:
000017:    4471           35256                           CA       STA_LEFT
000018:    4472           54101                           TS       GM_STATE
000019:
000020:    4473           30007                           CA       ZERO
000021:    4474           54123                           TS       PLAY_ID
000022:
000023:    4475           35254                           CA       DEC1
000024:    4476           54114                           TS       COL_ID
000025:
000026:    4477                        L_COLOOP
000027:
000028:    4477           50114                           INDEX    COL_ID
000029:    4500           35302                           CA       COL_STRT
000030:    4501           54075                           TS       CUR_ID
000031:    4502           65272                           AD       DEC15
000032:    4503           54115                           TS       END_ID
000033:
000034:    4504                        L_ROLOOP
000035:
000036:    4504           50075                           INDEX    CUR_ID
000037:    4505           35334                           CA       GRID_ROW
000038:    4506           54110                           TS       CELLROW
000039:
000040:    4507           50075                           INDEX    CUR_ID
000041:    4510           30124                           CA       VALUES
000042:    4511           54100                           TS       CELL_VALUE
000043:    4512           65254                           AD       DEC1
000044:    4513           00006                           EXTEND
000045:    4514           14554                           BZF      L_NOROW
000046:
000047:
000048:    4515                        CHK_LFT
000049:
000050:    4515           30075                           CA       CUR_ID
000051:    4516           65147                           AD       NEG1
000052:    4517           54077                           TS       CHK_ID
000053:
000054:    4520           50077                           INDEX    CHK_ID
000055:    4521           30124                           CA       VALUES
000056:    4522           54102                           TS       CHK_VALUE
000057:    4523           65254                           AD       DEC1
000058:    4524           00006                           EXTEND
000059:    4525           14545                           BZF      MOV_LEFT
000060:
000061:    4526                        L_SOMEHR
000062:
000063:    4526           50110                           INDEX    CELLROW
000064:    4527           30103                           CA       MATCHMD
000065:    4530           00006                           EXTEND
000066:    4531           14533                           BZF      L_NOMAT
000067:
000068:    4532           14554                           TCF      L_NOROW
000069:
000070:    4533                        L_NOMAT
000071:
000072:    4533           30100                           CA       CELL_VALUE
000073:    4534           00006                           EXTEND
000074:    4535           60102                           SU       CHK_VALUE
000075:    4536           00006                           EXTEND
000076:    4537           14541                           BZF      L_MATCH
000077:
000078:    4540           14554                           TCF      L_NOROW
000079:
000080:    4541                        L_MATCH
000081:
000082:
000083:    4541           50110                           INDEX    CELLROW
000084:    4542           24103                           INCR     MATCHMD                               #  Set flag that we have combined in this column
000085:
000086:    4543           04331                           TC       UPGRADE                               #  Increase target cell, empty orig cell
000087:
000088:    4544           14554                           TCF      L_NOROW
000089:    4545                        MOV_LEFT
000090:
000091:    4545           24123                           INCR     PLAY_ID
000092:
000093:    4546           30100                           CA       CELL_VALUE
000094:    4547           50077                           INDEX    CHK_ID
000095:    4550           54124                           TS       VALUES
000096:
000097:    4551           35140                           CA       NEG_ONE
000098:    4552           50075                           INDEX    CUR_ID
000099:    4553           54124                           TS       VALUES
000100:
000101:    4554                        L_NOROW
000102:
000103:    4554           30075                           CA       CUR_ID
000104:    4555           65260                           AD       DEC5
000105:    4556           54075                           TS       CUR_ID
000106:    4557           00006                           EXTEND
000107:    4560           60115                           SU       END_ID
000108:    4561           00006                           EXTEND
000109:    4562           14564                           BZF      L_NXTCOL
000110:
000111:    4563           14504                           TCF      L_ROLOOP
000112:
000113:    4564                        L_NXTCOL
000114:    4564           54067                           TS       NEWJOB
000115:
000116:    4565           35257                           CA       DEC4
000117:    4566           00006                           EXTEND
000118:    4567           60114                           SU       COL_ID
000119:    4570           00006                           EXTEND
000120:    4571           14307                           BZF      D_DONE
000121:
000122:
000123:    4572           24114                           INCR     COL_ID
000124:
000125:    4573           14477                           TCF      L_COLOOP
000126:
000127:

End of include-file Left.agc.  Parent file is Main.agc


