Apollo Guidance Computer (AGC) assembler, version 2017-04-17, built Apr 17 2017, target AGC4
(c)2003-2005,2009-2010,2016 Ronald S. Burkey
Refer to http://www.ibiblio.org/apollo/index.html for more information.
Pass #1
Pass #2
Pass #3
000001:
000002:    4000                                           SETLOC   4000                          	#
000003:
000004:
000005:    4000                        RESTART                                                   	#
000006:    4000           00004                           INHINT                                 	# Turn off interrupts
000007:    4001           35133                           CA       O37774                        	# Schedule the first TIME3 interrupt
000008:    4002           54026                           TS       TIME3                         	#
000009:    4003           14054                           TCF      INIT                          	# Proceed with initialization
000010:
000011: $Vectors.agc                            # Add table of interrupt vectors
000001:
000002:                                                                                          	# We begin with an interrupt vector table. There are 10 possible interrupts,
000003:                                                                                          	# plus the restart vector which comes first.
000004:
000005:
000006:
000007:    4004           50017                           RESUME                                 	# T6RUPT
000008:    4005           14006                           NOOP                                   	#
000009:    4006           14007                           NOOP                                   	#
000010:    4007           14010                           NOOP                                   	#
000011:
000012:    4010           50017                           RESUME                                 	# T5RUPT
000013:    4011           14012                           NOOP                                   	#
000014:    4012           14013                           NOOP                                   	#
000015:    4013           14014                           NOOP                                   	#
000016:
000017:    4014           52011                           DXCH     ARUPT                         	# T3RUPT
000018:    4015           00006                           EXTEND                                 	# Back up A, L, and Q
000019:    4016           22012                           QXCH     QRUPT                         	#
000020:    4017           15005                           TCF      T3RUPT                        	# Transfer to the T3RUPT handler
000021:
000022:    4020           50017                           RESUME                                 	# T4RUPT
000023:    4021           14022                           NOOP                                   	#
000024:    4022           14023                           NOOP                                   	#
000025:    4023           14024                           NOOP                                   	#
000026:
000027:    4024           52011                           DXCH     ARUPT                         	# KEYRUPT1, fired whenever a key is pressed
000028:    4025           00006                           EXTEND                                 	#
000029:    4026           22012                           QXCH     QRUPT                         	#
000030:    4027           15014                           TCF      KEYRUPT1                      	#
000031:
000032:    4030           50017                           RESUME                                 	# KEYRUPT2
000033:    4031           14032                           NOOP                                   	#
000034:    4032           14033                           NOOP                                   	#
000035:    4033           14034                           NOOP                                   	#
000036:
000037:    4034           50017                           RESUME                                 	# UPRUPT
000038:    4035           14036                           NOOP                                   	#
000039:    4036           14037                           NOOP                                   	#
000040:    4037           14040                           NOOP                                   	#
000041:
000042:    4040           50017                           RESUME                                 	# DOWNRUPT
000043:    4041           14042                           NOOP                                   	#
000044:    4042           14043                           NOOP                                   	#
000045:    4043           14044                           NOOP                                   	#
000046:
000047:    4044           50017                           RESUME                                 	# RADAR RUPT
000048:    4045           14046                           NOOP                                   	#
000049:    4046           14047                           NOOP                                   	#
000050:    4047           14050                           NOOP                                   	#
000051:
000052:    4050           50017                           RESUME                                 	# RUPT10
000053:    4051           14052                           NOOP                                   	#
000054:    4052           14053                           NOOP                                   	#
000055:    4053           14054                           NOOP                                   	#
000056:
(End of include-file Vectors.agc, resuming Main.agc)
000012:
000013:                                                                                          	# Initialization.
000014:    4054                        INIT                                                      	#
000015:    4054           30007                           CA       ZERO                          	# Load 0 to A
000016:    4055           54073                           TS       ACTIVE                        	# Set game not started
000017:    4056           54112                           TS       GM_DONE                       	# Set game not completed
000018:
000019:    4057           00006                           EXTEND                                 	#
000020:    4060           01011                           WRITE    CH11                          	# Clear any DSKY lights
000021:
000022:
000023:    4061           35130                           CA       NOKEY                         	# Clear the keypad buffer variable
000024:    4062           54070                           TS       KEYBUF                        	# to initially hold an illegal keycode.
000025:
000026:    4063           04102                           TC       RESETALL                      	# Set all grid items to empty (-1)
000027:    4064           04703                           TC       DISP15                        	# Clear the grid
000028:
000029:    4065           35261                           CA       STA_WAIT                      	# Set game status to wait for any key
000030:    4066           54101                           TS       GM_STATE                      	#
000031:
000032:    4067           00003                           RELINT                                 	# Enable interrupts
000033:
000034:    4070                        MAINLOOP                                                  	#
000035:    4070           40067                           CS       NEWJOB                        	# Each loop, nudge hardware watchdog
000036:
000037:
000038:    4071                        CHK_STATE                                                  	#
000039:
000040:    4071           50101                           INDEX    GM_STATE                      	# Index into game state jump table
000041:    4072           14073                           TCF      ST_TABLE                      	# Will jump to appropriate function below based on state
000042:    4073                        ST_TABLE                                                  	#
000043:    4073           15052                           TCF      CHECK_KEY                     	# 0
000044:    4074           14215                           TCF      MOVING_DN                     	# 1
000045:    4075           14362                           TCF      MOVING_UP                     	# 2
000046:    4076           14471                           TCF      MOVING_LT                     	# 3
000047:    4077           14601                           TCF      MOVING_RT                     	# 4
000048:    4100           14117                           TCF      NEWNUM                        	# 5
000049:    4101           15040                           TCF      WAITKEY                       	# 6
000050:
000051:
000052:                                                                                          	# Include the rest of the code modules below
000053:
000054: $Grid.agc
000001:
000002:    4102                        RESETALL                                                  	#
000003:
000004:    4102           35142                           CA       TWENTY1                       	# Set loop counter to 21
000005:    4103           54075                           TS       CUR_ID                        	#
000006:    4104                        RESETLOOP                                                  	#
000007:    4104           35140                           CA       NEG_ONE                       	# Load -1 to A (empty cell)
000008:    4105           50075                           INDEX    CUR_ID                        	# Index by current loop count
000009:    4106           54124                           TS       VALUES                        	# Save -1 to empty this grid cell
000010:
000011:    4107           00006                           EXTEND                                 	#
000012:    4110           26075                           DIM      CUR_ID                        	# Decrement loop counter
000013:    4111           30075                           CA       CUR_ID                        	# Load loop counter
000014:    4112           00006                           EXTEND                                 	#
000015:    4113           14115                           BZF      RESETEND                      	# If zero, we've cleared all of VALUES array
000016:
000017:    4114           14104                           TCF      RESETLOOP                     	# Not zero, loop back for next cell
000018:
000019:
000020:    4115                        RESETEND                                                  	#
000021:    4115           00002                           RETURN                                 	# Return to Init
000022:
000023:
000024:    4116                        SECOND                                                    	#
000025:
000026:    4116           24073                           INCR     ACTIVE                        	# Set game to active now two cells will be populated
000027:    4117                        NEWNUM                                                    	#
000028:
000029:    4117           04775                           TC       IODELAY                       	# Delay a bit before generating the number
000030:    4120           04131                           TC       GENZERO                       	# Call function to generate a 0 or 1 in empty cell
000031:    4121           04703                           TC       DISP15                        	# Call function Display the new grid state
000032:
000033:    4122           30073                           CA       ACTIVE                        	# Load whether game is active
000034:    4123           00006                           EXTEND                                 	#
000035:    4124           14116                           BZF      SECOND                        	# If not, generate another new number
000036:
000037:    4125           04775                           TC       IODELAY                       	# Delay before returning control to player
000038:
000039:    4126           35253                           CA       STA_INPUT                     	# Change game state to player control
000040:    4127           54101                           TS       GM_STATE                      	#
000041:
000042:    4130           14070                           TCF      MAINLOOP                      	# Return to start of game loop
000043:
000044:
000045:
000046:    4131                        GENZERO                                                   	# Generate a 0 or 1 in an empty grid cell
000047:    4131           00006                           EXTEND                                 	#
000048:    4132           22072                           QXCH     RET_ADR2                      	# Save the return address of the calling function
000049:
000050:
000051:    4133                        NEWBOX                                                    	#
000052:
000053:    4133           35144                           CA       MASK15                        	# Load a mask to keep only the bottom 4 bits
000054:    4134           54061                           TS       TEMPI                         	# Store into temp variable
000055:
000056:    4135           05120                           TC       RANDOM                        	# Get a random number (and discard)
000057:    4136           30074                           CA       COUNTER                       	# Load the random number counter (0-127)
000058:    4137           75144                           MASK     MASK15                        	# Mask it down to 0-15
000059:    4140           54123                           TS       PLAY_ID                       	# Store it as the grid cell to try and add to
000060:    4141           00006                           EXTEND                                 	#
000061:    4142           60061                           SU       TEMPI                         	# Subtract 15 from this cell number
000062:    4143           00006                           EXTEND                                 	#
000063:    4144           14150                           BZF      ADD5                          	# If is 0, we have cell 16 and there only 15.
000064:
000065:    4145                        ADD6                                                      	# Is not 0, we can safely add grid offset of 6
000066:
000067:    4145           30123                           CA       PLAY_ID                       	# Load the number we know is from 0-14
000068:    4146           65261                           AD       DEC6                          	# Add 6 to get the first display segment in the grid
000069:
000070:    4147           14152                           TCF      CHKVALID                      	# Now check whether this grid cell is empty
000071:
000072:    4150                        ADD5                                                      	#
000073:    4150           30123                           CA       PLAY_ID                       	# We know the number is 15
000074:    4151           65260                           AD       DEC5                          	# So only add 5 so we still get a valid cell
000075:
000076:    4152                        CHKVALID                                                  	#
000077:
000078:    4152           54123                           TS       PLAY_ID                       	# Store the cell id to check is empty
000079:    4153           50123                           INDEX    PLAY_ID                       	# Index by the cell id
000080:    4154           30124                           CA       VALUES                        	# Get the value held for cell in VALUES array
000081:    4155           65254                           AD       DEC1                          	# Add one, if it was empty (-1) it's now zero'
000082:    4156           00006                           EXTEND                                 	#
000083:    4157           14162                           BZF      ISEMPTY                       	# If empty, we can use this cell for new number
000084:
000085:    4160                        NOTEMPTY                                                  	#
000086:
000087:    4160           54067                           TS       NEWJOB                        	# Nudge watchdog in case it takes a while to find cell
000088:    4161           14133                           TCF      NEWBOX                        	# We can't use this cell, try again
000089:
000090:    4162                        ISEMPTY                                                   	#
000091:
000092:    4162           05120                           TC       RANDOM                        	# Get a random number from 0-9
000093:    4163           54061                           TS       TEMPI                         	# Save to temp variable
000094:    4164           35257                           CA       DEC4                          	# Load 4 into A
000095:    4165           00006                           EXTEND                                 	#
000096:    4166           60061                           SU       TEMPI                         	# Subtract 0-9 from 5
000097:    4167           00006                           EXTEND                                 	#
000098:    4170           64173                           BZMF     MAKEONE                       	# if zero or negative, make cell = 1
000099:
000100:    4171           30007                           CA       ZERO                          	# is >0, make cell = 0
000101:    4172           14174                           TCF      STORENEW                      	#
000102:
000103:    4173                        MAKEONE                                                   	#
000104:    4173           35254                           CA       DEC1                          	# Load 1 into A
000105:
000106:    4174                        STORENEW                                                  	#
000107:
000108:    4174           50123                           INDEX    PLAY_ID                       	# Index by chosen cell ID
000109:    4175           54124                           TS       VALUES                        	# Store 0-1 into values array by index
000110:
000111:    4176           00006                           EXTEND                                 	#
000112:    4177           22072                           QXCH     RET_ADR2                      	# Restore return address of calling func
000113:
000114:    4200           00002                           RETURN                                 	# Return to NEWNUM
(End of include-file Grid.agc, resuming Main.agc)
000055: $Down.agc
000001:    4201                        SETUPMOV                                                  	#
000002:
000003:    4201           30007                           CA       ZERO                          	# Load 0 into A
000004:    4202           54103                           TS       MATCHMD                       	# Clear array of 5 that indicates whether two numbers
000005:    4203           54104                           TS       MATCH1                        	# have already been combined for the given row/col
000006:    4204           54105                           TS       MATCH2                        	#
000007:    4205           54106                           TS       MATCH3                        	# Otherwise moving left on a row of 0-0-1 would end as 2-x-x.
000008:    4206           54107                           TS       MATCH4                        	# When it should be 1-1-x.
000009:
000010:    4207           00002                           RETURN                                 	#
000011:
000012:    4210                        MOVE_DOWN                                                  	# The down key (8) has been pressed
000013:
000014:    4210           04201                           TC       SETUPMOV                      	# Setup a table and check if can proceed - may never return!
000015:    4211           30112                           CA       GM_DONE                       	# Load game complete status into A
000016:    4212           00006                           EXTEND                                 	#
000017:    4213           14215                           BZF      MOVING_DN                     	# Flag is zero, not complete yet
000018:
000019:    4214           14070                           TCF      MAINLOOP                      	#
000020:
000021:    4215                        MOVING_DN                                                  	# Once in a state of 'sta_down', come here each 'frame'
000022:                                                                                          	# until no more cells can move down
000023:
000024:    4215           35254                           CA       STA_DOWN                      	# Load the game status of 'moving down'
000025:    4216           54101                           TS       GM_STATE                      	# Save as game state
000026:
000027:    4217           30007                           CA       ZERO                          	# Load 0 into A
000028:    4220           54123                           TS       PLAY_ID                       	# Reset number of cells moved this iteration.
000029:
000030:    4221           35254                           CA       DEC1                          	# Start from middle row, checking below to see if we can move into it.
000031:    4222           54113                           TS       ROW_ID                        	# Store 1 into ROW_ID
000032:
000033:    4223                        D_ROLOOP                                                  	# Loop through rows, checking each column to see if number can move down
000034:
000035:    4223           50113                           INDEX    ROW_ID                        	# Index by the row_id
000036:    4224           35277                           CA       ROW_STRT                      	# Get the first cell id in this row
000037:    4225           54075                           TS       CUR_ID                        	# Store this as current id
000038:    4226           65260                           AD       DEC5                          	# Add 5
000039:    4227           54115                           TS       END_ID                        	# Store cur_id + 5 to know when to stop processing row
000040:
000041:    4230                        D_COLOOP                                                  	# Loop through each cell on a row
000042:
000043:
000044:    4230           50075                           INDEX    CUR_ID                        	# Index by the current cell id
000045:    4231           35307                           CA       GRID_COL                      	# Get the column this cell belongs to
000046:    4232           54111                           TS       CELLCOL                       	# And save value to ram for later
000047:
000048:    4233           50075                           INDEX    CUR_ID                        	# Index by the current cell id again
000049:    4234           30124                           CA       VALUES                        	# Get the value in this cell
000050:    4235           54100                           TS       CELL_VALUE                    	# Save cell value
000051:    4236           65254                           AD       DEC1                          	# Add 1. If empty (-1), this is now 0.
000052:    4237           00006                           EXTEND                                 	#
000053:    4240           14271                           BZF      D_NOCOL                       	# If empty, don't bother checking cell below
000054:
000055:
000056:    4241                        CHK_BEL                                                   	# This cell has a number, check below
000057:
000058:    4241           30075                           CA       CUR_ID                        	# Load the current cell id
000059:    4242           65260                           AD       DEC5                          	# Add 5 (number of columns) to get cell below
000060:    4243           54077                           TS       CHK_ID                        	# Store cell check id
000061:
000062:    4244           50077                           INDEX    CHK_ID                        	# Index using the cell below's id
000063:    4245           30124                           CA       VALUES                        	# Get the value in the cell below
000064:    4246           54102                           TS       CHK_VALUE                     	# Store the cell below's value
000065:    4247           65254                           AD       DEC1                          	# Add 1. If empty (-1), this is now 0.
000066:    4250           00006                           EXTEND                                 	#
000067:    4251           14270                           BZF      MOV_DN                        	# If cell below empty, we can move straight into it.
000068:
000069:    4252                        D_SOMEHR                                                  	# There's a number below. Check what it is.
000070:
000071:    4252           50111                           INDEX    CELLCOL                       	# Index by the column our cell is in
000072:    4253           30103                           CA       MATCHMD                       	# Get whether we already combined cells in this column
000073:    4254           00006                           EXTEND                                 	#
000074:    4255           14257                           BZF      D_NOSOF                       	# If 0, we didn't already combine so we can check for match
000075:
000076:    4256           14271                           TCF      D_NOCOL                       	# We already combined so we don't want to try and combine again
000077:
000078:    4257                        D_NOSOF                                                   	#
000079:
000080:    4257           30100                           CA       CELL_VALUE                    	# Load the value in original cell
000081:    4260           00006                           EXTEND                                 	#
000082:    4261           60102                           SU       CHK_VALUE                     	# Subtract the value in cell below
000083:    4262           00006                           EXTEND                                 	#
000084:    4263           14265                           BZF      D_MATCH                       	# If zero, they are the same. Combine them.
000085:
000086:    4264           14271                           TCF      D_NOCOL                       	# Not the same, can't move as way is blocked
000087:
000088:    4265                        D_MATCH                                                   	#
000089:
000090:    4265           50111                           INDEX    CELLCOL                       	# Index by the column these cells are in
000091:    4266           04331                           TC       UPGRADE                       	# Increase target cell, empty orig cell
000092:
000093:    4267           14271                           TCF      D_NOCOL                       	# Move along to next column
000094:    4270                        MOV_DN                                                    	#
000095:
000096:    4270           04321                           TC       CELL_MOV                      	# Move cell value to new cell, empty orig cell
000097:
000098:    4271                        D_NOCOL                                                   	# End of processing for this column
000099:
000100:    4271           24075                           INCR     CUR_ID                        	# Move cell id to next column
000101:    4272           30075                           CA       CUR_ID                        	# Load id into A
000102:    4273           00006                           EXTEND                                 	#
000103:    4274           60115                           SU       END_ID                        	# Subtract id of first cell in row below
000104:    4275           00006                           EXTEND                                 	#
000105:    4276           14300                           BZF      D_NXTRW                       	# If zero, we have no more columns, goto next row
000106:
000107:    4277           14230                           TCF      D_COLOOP                      	# More columns to process, loop back up
000108:
000109:    4300                        D_NXTRW                                                   	#
000110:
000111:    4300           54067                           TS       NEWJOB                        	# Nudge watchdog as this processing might take a while
000112:    4301           30113                           CA       ROW_ID                        	# Load the row id
000113:    4302           00006                           EXTEND                                 	#
000114:
000115:    4303           14307                           BZF      D_DONE                        	# If row id is zero, we've done all rows now
000116:
000117:    4304           00006                           EXTEND                                 	#
000118:    4305           26113                           DIM      ROW_ID                        	# Not last row, move up into next row
000119:
000120:    4306           14223                           TCF      D_ROLOOP                      	# Process the next row
000121:
000122:    4307                        D_DONE                                                    	#
000123:
000124:    4307           30123                           CA       PLAY_ID                       	# Did we move anything in this iteration?
000125:    4310           00006                           EXTEND                                 	#
000126:    4311           14315                           BZF      D_NOWT                        	# If 0 we did not so return control to player
000127:
000128:    4312                        D_UPDATE                                                  	#
000129:
000130:    4312           04703                           TC       DISP15                        	# We moved something, update display
000131:    4313           04775                           TC       IODELAY                       	# Delay a bit so numbers don't move instantly from one end to other
000132:    4314           14070                           TCF      MAINLOOP                      	# Return to main loop to see if anything still to move
000133:
000134:    4315                        D_NOWT                                                    	#
000135:    4315           35260                           CA       STA_ADD                       	# All movement handled, now add new number to grid
000136:    4316           54101                           TS       GM_STATE                      	# Save to game state, we'll do in next main loop
000137:
000138:    4317           04775                           TC       IODELAY                       	# A little delay before adding so it's obvious where it went
000139:
000140:    4320           14070                           TCF      MAINLOOP                      	# Return to main loop which will add a new number next time
000141:
000142:
000143:    4321                        CELL_MOV                                                  	#
000144:
000145:    4321           24123                           INCR     PLAY_ID                       	# We are moving a number into empty space. Inc move counter.
000146:
000147:    4322           30100                           CA       CELL_VALUE                    	# Load the value in cell that's moving
000148:    4323           50077                           INDEX    CHK_ID                        	# Index by cell below id
000149:    4324           54124                           TS       VALUES                        	# Set cell below to value of original cell
000150:
000151:    4325           35140                           CA       NEG_ONE                       	# Load -1 to A (empty)
000152:    4326           50075                           INDEX    CUR_ID                        	# Index by original cell id
000153:    4327           54124                           TS       VALUES                        	# Set original cell to now be empty
000154:
000155:    4330           00002                           RETURN                                 	#
000156:
000157:    4331                        UPGRADE                                                   	#
000158:
000159:
000160:    4331           24123                           INCR     PLAY_ID                       	# Increase counter as something is going to move
000161:
000162:    4332           30100                           CA       CELL_VALUE                    	# Load value in original cell
000163:    4333           65254                           AD       DEC1                          	# Add 1 because we are combining
000164:    4334           50077                           INDEX    CHK_ID                        	# Index using cell below id
000165:    4335           54124                           TS       VALUES                        	# Set cell below to be +1
000166:    4336           54061                           TS       TEMPI                         	# Save to temp var, we need to check if it's 9
000167:
000168:    4337           35264                           CA       DEC9                          	# Load 9 into A
000169:    4340           00006                           EXTEND                                 	#
000170:    4341           60061                           SU       TEMPI                         	# Subtract the value of combined cell
000171:    4342           00006                           EXTEND                                 	#
000172:    4343           14345                           BZF      COMPLETE                      	# If zero, we must have made a 9, game complete
000173:
000174:    4344           14351                           TCF      NOTCOMP                       	# If zero, we must have made a 9, game complete
000175:
000176:
000177:    4345                        COMPLETE                                                  	#
000178:
000179:    4345           35152                           CA       BIT5                          	# Load value where bit 5 = 1, rest 0 (key rel flash)
000180:    4346           00006                           EXTEND                                 	#
000181:    4347           01011                           WRITE    CH11                          	# Output to DSKY lights IO channel
000182:    4350           24112                           INCR     GM_DONE                       	# Set done flag so we don't allow further play'
000183:
000184:    4351                        NOTCOMP                                                   	#
000185:
000186:
000187:    4351           35140                           CA       NEG_ONE                       	# Load -1 to A (empty)
000188:    4352           50075                           INDEX    CUR_ID                        	# Index by original cell id
000189:    4353           54124                           TS       VALUES                        	# Set original cell to now be empty
000190:
000191:
000192:
000193:    4354           00002                           RETURN                                 	#
000194:
(End of include-file Down.agc, resuming Main.agc)
000056: $Up.agc
000001:                                                                                          	# See Down.agc for detailed explanation of how the code
000002:                                                                                          	# to move and combine numbers works. The only differences between them
000003:                                                                                          	# is to reverse directions and/or swap rows for columns (if horizontal)
000004:
000005:    4355                        MOVE_UP                                                   	#
000006:
000007:    4355           04201                           TC       SETUPMOV                      	# Setup a table and check if can proceed - may never return!
000008:    4356           30112                           CA       GM_DONE                       	# Load game complete status into A
000009:    4357           00006                           EXTEND                                 	#
000010:    4360           14362                           BZF      MOVING_UP                     	# Flag is zero, not complete yet
000011:
000012:    4361           14070                           TCF      MAINLOOP                      	#
000013:
000014:    4362                        MOVING_UP                                                  	#
000015:
000016:    4362           35255                           CA       STA_UP                        	#
000017:    4363           54101                           TS       GM_STATE                      	#
000018:
000019:    4364           30007                           CA       ZERO                          	#
000020:    4365           54123                           TS       PLAY_ID                       	#
000021:
000022:    4366           35254                           CA       DEC1                          	#
000023:    4367           54113                           TS       ROW_ID                        	#
000024:
000025:    4370                        U_ROLOOP                                                  	#
000026:
000027:    4370           50113                           INDEX    ROW_ID                        	#
000028:    4371           35277                           CA       ROW_STRT                      	#
000029:    4372           54075                           TS       CUR_ID                        	#
000030:    4373           65260                           AD       DEC5                          	#
000031:    4374           54115                           TS       END_ID                        	#
000032:
000033:    4375                        U_COLOOP                                                  	#
000034:
000035:    4375           50075                           INDEX    CUR_ID                        	#
000036:    4376           35307                           CA       GRID_COL                      	#
000037:    4377           54111                           TS       CELLCOL                       	#
000038:
000039:    4400           50075                           INDEX    CUR_ID                        	#
000040:    4401           30124                           CA       VALUES                        	#
000041:    4402           54100                           TS       CELL_VALUE                    	#
000042:    4403           65254                           AD       DEC1                          	#
000043:    4404           00006                           EXTEND                                 	#
000044:    4405           14445                           BZF      U_NOCOL                       	#
000045:
000046:
000047:    4406                        CHK_ABV                                                   	#
000048:
000049:    4406           30075                           CA       CUR_ID                        	#
000050:    4407           65151                           AD       NEG5                          	#
000051:    4410           54077                           TS       CHK_ID                        	#
000052:
000053:    4411           50077                           INDEX    CHK_ID                        	#
000054:    4412           30124                           CA       VALUES                        	#
000055:    4413           54102                           TS       CHK_VALUE                     	#
000056:    4414           65254                           AD       DEC1                          	#
000057:    4415           00006                           EXTEND                                 	#
000058:    4416           14436                           BZF      MOV_UP                        	#
000059:
000060:    4417                        U_SOMEHR                                                  	#
000061:
000062:    4417           50111                           INDEX    CELLCOL                       	#
000063:    4420           30103                           CA       MATCHMD                       	#
000064:    4421           00006                           EXTEND                                 	#
000065:    4422           14424                           BZF      U_NOSOF                       	#
000066:
000067:    4423           14445                           TCF      U_NOCOL                       	#
000068:
000069:    4424                        U_NOSOF                                                   	#
000070:
000071:    4424           30100                           CA       CELL_VALUE                    	#
000072:    4425           00006                           EXTEND                                 	#
000073:    4426           60102                           SU       CHK_VALUE                     	#
000074:    4427           00006                           EXTEND                                 	#
000075:    4430           14432                           BZF      U_MATCH                       	#
000076:
000077:    4431           14445                           TCF      U_NOCOL                       	#
000078:
000079:    4432                        U_MATCH                                                   	#
000080:
000081:    4432           50111                           INDEX    CELLCOL                       	#
000082:    4433           24103                           INCR     MATCHMD                       	# Set flag that we have combined in this column
000083:
000084:    4434           04331                           TC       UPGRADE                       	# Increase target cell, empty orig cell
000085:
000086:    4435           14445                           TCF      U_NOCOL                       	#
000087:    4436                        MOV_UP                                                    	#
000088:
000089:    4436           24123                           INCR     PLAY_ID                       	#
000090:
000091:    4437           30100                           CA       CELL_VALUE                    	#
000092:    4440           50077                           INDEX    CHK_ID                        	#
000093:    4441           54124                           TS       VALUES                        	#
000094:
000095:    4442           35140                           CA       NEG_ONE                       	#
000096:    4443           50075                           INDEX    CUR_ID                        	#
000097:    4444           54124                           TS       VALUES                        	#
000098:
000099:    4445                        U_NOCOL                                                   	#
000100:
000101:    4445           24075                           INCR     CUR_ID                        	#
000102:    4446           30075                           CA       CUR_ID                        	#
000103:    4447           00006                           EXTEND                                 	#
000104:    4450           60115                           SU       END_ID                        	#
000105:    4451           00006                           EXTEND                                 	#
000106:    4452           14454                           BZF      U_NXTRW                       	#
000107:
000108:    4453           14375                           TCF      U_COLOOP                      	#
000109:
000110:    4454                        U_NXTRW                                                   	#
000111:
000112:    4454           54067                           TS       NEWJOB                        	#
000113:
000114:    4455           35255                           CA       DEC2                          	#
000115:    4456           00006                           EXTEND                                 	#
000116:    4457           60113                           SU       ROW_ID                        	#
000117:    4460           00006                           EXTEND                                 	#
000118:    4461           14307                           BZF      D_DONE                        	#
000119:
000120:
000121:    4462           24113                           INCR     ROW_ID                        	#
000122:
000123:    4463           14370                           TCF      U_ROLOOP                      	#
000124:
(End of include-file Up.agc, resuming Main.agc)
000057: $Left.agc
000001:                                                                                          	# See Down.agc for detailed explanation of how the code
000002:                                                                                          	# to move and combine numbers works. The only differences between them
000003:                                                                                          	# is to reverse directions and/or swap rows for columns (if horizontal)
000004:
000005:    4464                        MOVE_LEFT                                                  	#
000006:
000007:    4464           04201                           TC       SETUPMOV                      	# Setup a table and check if can proceed - may never return!
000008:    4465           30112                           CA       GM_DONE                       	# Load game complete status into A
000009:    4466           00006                           EXTEND                                 	#
000010:    4467           14471                           BZF      MOVING_LT                     	# Flag is zero, not complete yet
000011:
000012:    4470           14070                           TCF      MAINLOOP                      	#
000013:
000014:
000015:    4471                        MOVING_LT                                                  	#
000016:
000017:    4471           35256                           CA       STA_LEFT                      	#
000018:    4472           54101                           TS       GM_STATE                      	#
000019:
000020:    4473           30007                           CA       ZERO                          	#
000021:    4474           54123                           TS       PLAY_ID                       	#
000022:
000023:    4475           35254                           CA       DEC1                          	#
000024:    4476           54114                           TS       COL_ID                        	#
000025:
000026:    4477                        L_COLOOP                                                  	#
000027:
000028:    4477           50114                           INDEX    COL_ID                        	#
000029:    4500           35302                           CA       COL_STRT                      	#
000030:    4501           54075                           TS       CUR_ID                        	#
000031:    4502           65272                           AD       DEC15                         	#
000032:    4503           54115                           TS       END_ID                        	#
000033:
000034:    4504                        L_ROLOOP                                                  	#
000035:
000036:    4504           50075                           INDEX    CUR_ID                        	#
000037:    4505           35334                           CA       GRID_ROW                      	#
000038:    4506           54110                           TS       CELLROW                       	#
000039:
000040:    4507           50075                           INDEX    CUR_ID                        	#
000041:    4510           30124                           CA       VALUES                        	#
000042:    4511           54100                           TS       CELL_VALUE                    	#
000043:    4512           65254                           AD       DEC1                          	#
000044:    4513           00006                           EXTEND                                 	#
000045:    4514           14554                           BZF      L_NOROW                       	#
000046:
000047:
000048:    4515                        CHK_LFT                                                   	#
000049:
000050:    4515           30075                           CA       CUR_ID                        	#
000051:    4516           65147                           AD       NEG1                          	#
000052:    4517           54077                           TS       CHK_ID                        	#
000053:
000054:    4520           50077                           INDEX    CHK_ID                        	#
000055:    4521           30124                           CA       VALUES                        	#
000056:    4522           54102                           TS       CHK_VALUE                     	#
000057:    4523           65254                           AD       DEC1                          	#
000058:    4524           00006                           EXTEND                                 	#
000059:    4525           14545                           BZF      MOV_LEFT                      	#
000060:
000061:    4526                        L_SOMEHR                                                  	#
000062:
000063:    4526           50110                           INDEX    CELLROW                       	#
000064:    4527           30103                           CA       MATCHMD                       	#
000065:    4530           00006                           EXTEND                                 	#
000066:    4531           14533                           BZF      L_NOMAT                       	#
000067:
000068:    4532           14554                           TCF      L_NOROW                       	#
000069:
000070:    4533                        L_NOMAT                                                   	#
000071:
000072:    4533           30100                           CA       CELL_VALUE                    	#
000073:    4534           00006                           EXTEND                                 	#
000074:    4535           60102                           SU       CHK_VALUE                     	#
000075:    4536           00006                           EXTEND                                 	#
000076:    4537           14541                           BZF      L_MATCH                       	#
000077:
000078:    4540           14554                           TCF      L_NOROW                       	#
000079:
000080:    4541                        L_MATCH                                                   	#
000081:
000082:
000083:    4541           50110                           INDEX    CELLROW                       	#
000084:    4542           24103                           INCR     MATCHMD                       	# Set flag that we have combined in this column
000085:
000086:    4543           04331                           TC       UPGRADE                       	# Increase target cell, empty orig cell
000087:
000088:    4544           14554                           TCF      L_NOROW                       	#
000089:    4545                        MOV_LEFT                                                  	#
000090:
000091:    4545           24123                           INCR     PLAY_ID                       	#
000092:
000093:    4546           30100                           CA       CELL_VALUE                    	#
000094:    4547           50077                           INDEX    CHK_ID                        	#
000095:    4550           54124                           TS       VALUES                        	#
000096:
000097:    4551           35140                           CA       NEG_ONE                       	#
000098:    4552           50075                           INDEX    CUR_ID                        	#
000099:    4553           54124                           TS       VALUES                        	#
000100:
000101:    4554                        L_NOROW                                                   	#
000102:
000103:    4554           30075                           CA       CUR_ID                        	#
000104:    4555           65260                           AD       DEC5                          	#
000105:    4556           54075                           TS       CUR_ID                        	#
000106:    4557           00006                           EXTEND                                 	#
000107:    4560           60115                           SU       END_ID                        	#
000108:    4561           00006                           EXTEND                                 	#
000109:    4562           14564                           BZF      L_NXTCOL                      	#
000110:
000111:    4563           14504                           TCF      L_ROLOOP                      	#
000112:
000113:    4564                        L_NXTCOL                                                  	#
000114:    4564           54067                           TS       NEWJOB                        	#
000115:
000116:    4565           35257                           CA       DEC4                          	#
000117:    4566           00006                           EXTEND                                 	#
000118:    4567           60114                           SU       COL_ID                        	#
000119:    4570           00006                           EXTEND                                 	#
000120:    4571           14307                           BZF      D_DONE                        	#
000121:
000122:
000123:    4572           24114                           INCR     COL_ID                        	#
000124:
000125:    4573           14477                           TCF      L_COLOOP                      	#
000126:
000127:
(End of include-file Left.agc, resuming Main.agc)
000058: $Right.agc
000001:
000002:                                                                                          	# See Down.agc for detailed explanation of how the code
000003:                                                                                          	# to move and combine numbers works. The only differences between them
000004:                                                                                          	# is to reverse directions and/or swap rows for columns (if horizontal)
000005:
000006:    4574                        MOVE_RT                                                   	#
000007:
000008:    4574           04201                           TC       SETUPMOV                      	# Setup a table and check if can proceed - may never return!
000009:    4575           30112                           CA       GM_DONE                       	# Load game complete status into A
000010:    4576           00006                           EXTEND                                 	#
000011:    4577           14601                           BZF      MOVING_RT                     	# Flag is zero, not complete yet
000012:
000013:    4600           14070                           TCF      MAINLOOP                      	#
000014:
000015:    4601                        MOVING_RT                                                  	#
000016:
000017:    4601           35257                           CA       STA_RIGHT                     	#
000018:    4602           54101                           TS       GM_STATE                      	#
000019:
000020:    4603           30007                           CA       ZERO                          	#
000021:    4604           54123                           TS       PLAY_ID                       	#
000022:
000023:    4605           35256                           CA       DEC3                          	#
000024:    4606           54114                           TS       COL_ID                        	#
000025:
000026:    4607                        R_COLOOP                                                  	#
000027:
000028:    4607           50114                           INDEX    COL_ID                        	#
000029:    4610           35302                           CA       COL_STRT                      	#
000030:    4611           54075                           TS       CUR_ID                        	#
000031:    4612           65272                           AD       DEC15                         	#
000032:    4613           54115                           TS       END_ID                        	#
000033:
000034:    4614                        R_ROLOOP                                                  	#
000035:
000036:    4614           50075                           INDEX    CUR_ID                        	#
000037:    4615           35334                           CA       GRID_ROW                      	#
000038:    4616           54110                           TS       CELLROW                       	#
000039:
000040:    4617           50075                           INDEX    CUR_ID                        	#
000041:    4620           30124                           CA       VALUES                        	#
000042:    4621           54100                           TS       CELL_VALUE                    	#
000043:    4622           65254                           AD       DEC1                          	#
000044:    4623           00006                           EXTEND                                 	#
000045:    4624           14664                           BZF      R_NOROW                       	#
000046:
000047:
000048:    4625                        CHK_RT                                                    	#
000049:
000050:    4625           30075                           CA       CUR_ID                        	#
000051:    4626           65254                           AD       DEC1                          	#
000052:    4627           54077                           TS       CHK_ID                        	#
000053:
000054:    4630           50077                           INDEX    CHK_ID                        	#
000055:    4631           30124                           CA       VALUES                        	#
000056:    4632           54102                           TS       CHK_VALUE                     	#
000057:    4633           65254                           AD       DEC1                          	#
000058:    4634           00006                           EXTEND                                 	#
000059:    4635           14655                           BZF      MOV_RT                        	#
000060:
000061:    4636                        R_SOMEHR                                                  	#
000062:
000063:    4636           50110                           INDEX    CELLROW                       	#
000064:    4637           30103                           CA       MATCHMD                       	#
000065:    4640           00006                           EXTEND                                 	#
000066:    4641           14643                           BZF      R_NOMAT                       	#
000067:
000068:    4642           14664                           TCF      R_NOROW                       	#
000069:
000070:    4643                        R_NOMAT                                                   	#
000071:
000072:    4643           30100                           CA       CELL_VALUE                    	#
000073:    4644           00006                           EXTEND                                 	#
000074:    4645           60102                           SU       CHK_VALUE                     	#
000075:    4646           00006                           EXTEND                                 	#
000076:    4647           14651                           BZF      R_MATCH                       	#
000077:
000078:    4650           14664                           TCF      R_NOROW                       	#
000079:
000080:    4651                        R_MATCH                                                   	#
000081:
000082:    4651           50110                           INDEX    CELLROW                       	#
000083:    4652           24103                           INCR     MATCHMD                       	# Set flag that we have combined in this column
000084:
000085:    4653           04331                           TC       UPGRADE                       	# Increase target cell, empty orig cell
000086:
000087:    4654           14664                           TCF      R_NOROW                       	#
000088:    4655                        MOV_RT                                                    	#
000089:
000090:    4655           24123                           INCR     PLAY_ID                       	#
000091:
000092:    4656           30100                           CA       CELL_VALUE                    	#
000093:    4657           50077                           INDEX    CHK_ID                        	#
000094:    4660           54124                           TS       VALUES                        	#
000095:
000096:    4661           35140                           CA       NEG_ONE                       	#
000097:    4662           50075                           INDEX    CUR_ID                        	#
000098:    4663           54124                           TS       VALUES                        	#
000099:
000100:    4664                        R_NOROW                                                   	#
000101:
000102:    4664           30075                           CA       CUR_ID                        	#
000103:    4665           65260                           AD       DEC5                          	#
000104:    4666           54075                           TS       CUR_ID                        	#
000105:    4667           00006                           EXTEND                                 	#
000106:    4670           60115                           SU       END_ID                        	#
000107:    4671           00006                           EXTEND                                 	#
000108:    4672           14674                           BZF      R_NXTCOL                      	#
000109:
000110:    4673           14614                           TCF      R_ROLOOP                      	#
000111:
000112:    4674                        R_NXTCOL                                                  	#
000113:    4674           54067                           TS       NEWJOB                        	#
000114:    4675           30114                           CA       COL_ID                        	#
000115:    4676           00006                           EXTEND                                 	#
000116:    4677           14307                           BZF      D_DONE                        	#
000117:
000118:    4700           00006                           EXTEND                                 	#
000119:    4701           26114                           DIM      COL_ID                        	#
000120:
000121:    4702           14607                           TCF      R_COLOOP                      	#
000122:
(End of include-file Right.agc, resuming Main.agc)
000059: $Display.agc
000001:
000002:
000003:                                                                                          	# DISPLAY ALL 15 SEGMENTS IN THE GAME GRID
000004:
000005:    4703                        DISP15                                                    	#
000006:    4703           00006                           EXTEND                                 	#
000007:    4704           22071                           QXCH     RET_ADR                       	# Store return address because we TC elsewhere
000008:
000009:    4705           35261                           CA       DEC6                          	# Do top left cell first as its digit doesn't have a segment partner
000010:    4706           54075                           TS       CUR_ID                        	# Use id for top left cell
000011:    4707           04725                           TC       DISPNUM                       	# Call function to display this digit
000012:
000013:    4710           24075                           INCR     CUR_ID                        	# Move onto next digit. The rest all come in pairs.
000014:
000015:    4711                        SEGLOOP                                                   	#
000016:
000017:    4711           04725                           TC       DISPNUM                       	# Call function to display next two digits.
000018:
000019:    4712           24075                           INCR     CUR_ID                        	# Inc cell id, it's now +2 from before display call.
000020:    4713           35142                           CA       TWENTY1                       	# Load id of last cell + 1
000021:    4714           00006                           EXTEND                                 	#
000022:    4715           60075                           SU       CUR_ID                        	# Subtract current cell id
000023:    4716           00006                           EXTEND                                 	#
000024:    4717           14722                           BZF      DONE15                        	# If zero, we displayed all cells
000025:
000026:    4720           54067                           TS       NEWJOB                        	# Nudge watchdog as display code fairly slow
000027:
000028:    4721           14711                           TCF      SEGLOOP                       	# Loop back to draw the next two segments
000029:
000030:
000031:    4722                        DONE15                                                    	#
000032:    4722           00006                           EXTEND                                 	#
000033:    4723           22071                           QXCH     RET_ADR                       	# Retrieve our return address
000034:    4724           00002                           RETURN                                 	# Return to caller (multiple places)
000035:
000036:
000037:
000038:
000039:    4725                        DISPNUM                                                   	# CUR_ID is the index of next segment to display (0=left prog, 20 = digit 5 bottom row)
000040:                                                                                          	# Print value held in VALUES array to correct segment
000041:
000042:                                                                                          	# Data is sent to the DSKY via Channel 10 two digits at a time.
000043:                                                                                          	# Bits 10-14 select which pair of digits we want to draw
000044:                                                                                          	# Bits 0-4 selects which digit to draw on the right segment
000045:                                                                                          	# Bits 5-9 selects which digit to draw on the left segment
000046:
000047:    4725           30007                           CA       ZEROES                        	# Load 0 into accumulator from a fixed rom constant
000048:    4726           54117                           TS       DIGIT_L                       	# Reset left digit calculation to 0 (empty)
000049:    4727           54120                           TS       DIGIT_R                       	# Reset right digit calculation to 0 (empty)
000050:
000051:    4730           50075                           INDEX    CUR_ID                        	# Index next instruction by segment id
000052:    4731           35213                           CA       SEG_0                         	# Get which pair of digits this segment belongs to
000053:    4732           54076                           TS       SEG_OUT                       	# Save ID to RAM
000054:
000055:    4733           50076                           INDEX    SEG_OUT                       	# Index next instruction by segment pair id
000056:    4734           35240                           CA       SEGCODE                       	# Get value required in bits 10-14 to select pair, using id
000057:    4735           54116                           TS       DSKY_OUT                      	# Save to RAM to use later when we have the digit data
000058:
000059:    4736           50075                           INDEX    CUR_ID                        	# Index next instruction by segment id
000060:    4737           30124                           CA       VALUES                        	# Get the value in RAM we want to display here
000061:    4740           54061                           TS       TEMPI                         	# Save to temporary RAM variable
000062:
000063:    4741           50075                           INDEX    CUR_ID                        	# Index next instruction by segment id
000064:    4742           35166                           CA       LEFTRIGHT                     	# Get whether this segment is left or right of its pair
000065:    4743           00006                           EXTEND                                 	# Extend to use a new Block 2 AGC instruction
000066:    4744           14763                           BZF      SKIPLEFT                      	# If zero (is right), skip the left digit
000067:
000068:    4745                        CALCLEFT                                                  	#
000069:    4745           50061                           INDEX    TEMPI                         	# Index next instruction by our digit (0-9)
000070:    4746           35154                           CA       DSP0                          	# Get the 5-bit code for this digit to send to DSKY
000071:    4747           54022                           TS       CYL                           	# Transfer it to the shift left register
000072:    4750           30022                           CA       CYL                           	# Shift left no 1
000073:    4751           30022                           CA       CYL                           	# Shift left no 2
000074:    4752           30022                           CA       CYL                           	# Shift left no 3
000075:    4753           30022                           CA       CYL                           	# Shift left no 4
000076:    4754           30022                           CA       CYL                           	# Shift left no 5 (is now in bits 5-9 for the left digit)
000077:    4755           54117                           TS       DIGIT_L                       	# Save to RAM to use later
000078:
000079:    4756           24075                           INCR     CUR_ID                        	# Move onto the right segment of the pair
000080:    4757           50075                           INDEX    CUR_ID                        	# Index by new segment id
000081:    4760           30124                           CA       VALUES                        	# Get value to display on right digit
000082:    4761           54120                           TS       DIGIT_R                       	# Save to RAM to use later
000083:
000084:    4762           14765                           TCF      DIDLEFT                       	# Skip the code to set only the right digit if left not drawn
000085:
000086:    4763                        SKIPLEFT                                                  	#
000087:    4763           30061                           CA       TEMPI                         	# Load the value for this digit to draw on the right of pair
000088:    4764           54120                           TS       DIGIT_R                       	# Store to RAM
000089:
000090:    4765                        DIDLEFT                                                   	#
000091:
000092:    4765           50120                           INDEX    DIGIT_R                       	# Index by value of right digit
000093:    4766           35154                           CA       DSP0                          	# Get the 5-bit code for this digit to send to DSKY
000094:
000095:    4767                        OUTPUT                                                    	#
000096:    4767           60116                           AD       DSKY_OUT                      	# Add bits 10-14
000097:    4770           60117                           AD       DIGIT_L                       	# Add bits 5-9
000098:    4771           00006                           EXTEND                                 	# Extend in order to use I/O channel instruction
000099:    4772           01010                           WRITE    CH10                          	# Send the value to channel 10 to display on DKSY
000100:
000101:    4773           00002                           RETURN                                 	# Return from subroutine
000102:
000103:
000104:
000105:                                                                                          	#Hold up CPU to delay between movement of numbers to give animation effect
000106:
000107:    4774           01750        IODELAYT           DEC      1000       B-14               	# This constant is stored in fixed ROM
000108:
000109:    4775                        IODELAY                                                   	#
000110:    4775           54061                           TS       TEMPI                         	# Save accumulator.
000111:    4776           14777                           NOOP                                   	# Do thing for a bit
000112:    4777           34774                           CA       IODELAYT                      	# Load delay into A
000113:    5000           54067                           TS       NEWJOB                        	# Nudge watchdog as we're in a busy loop
000114:    5001           10000                           CCS      A                             	# Decrement a and compare
000115:    5002           15000                           TCF      -2                            	# >0 so jump back up to TS NEWJOB
000116:    5003           30061                           CA       TEMPI                         	# Restore accumulator.
000117:    5004           00002                           RETURN                                 	# Return to where delay was asked for
(End of include-file Display.agc, resuming Main.agc)
000060: $Interrupts.agc
000001:
000002:    5005                                           BLOCK    02                            	#
000003:    5005                        T3RUPT                                                    	#
000004:    5005           35133                           CAF      O37774                        	# Schedule another TIME3 interrupt
000005:    5006           54026                           TS       TIME3                         	# ... and don't do anything else, yet...
000006:
000007:    5007           24074                           INCR     COUNTER                       	# Increment counter for random number generation
000008:
000009:    5010           52011        RESUME             DXCH     ARUPT                         	# Restore A, L, and Q, and exit the interrupt
000010:    5011           00006                           EXTEND                                 	#
000011:    5012           22012                           QXCH     QRUPT                         	#
000012:    5013           50017                           RESUME                                 	#
(End of include-file Interrupts.agc, resuming Main.agc)
000061: $Input.agc
000001:    5014                        KEYRUPT1                                                  	# Triggered automatically when a key is pressed
000002:
000003:    5014           35130                           CA       NOKEY                         	# Load code for 'NO KEY PRESSED'
000004:    5015           54070                           TS       KEYBUF                        	# Clear key buffer so we don't persist presses from when they are not wanted
000005:
000006:    5016           30073                           CA       ACTIVE                        	# Load whether game is active
000007:    5017           00006                           EXTEND                                 	#
000008:    5020           15025                           BZF      CAN_READ                      	# If not active, we can accept key press to start the game
000009:
000010:    5021           30101                           CA       GM_STATE                      	# Load game state into A
000011:    5022           00006                           EXTEND                                 	#
000012:    5023           15025                           BZF      CAN_READ                      	# If not 'check_key', we don't care about key presses
000013:
000014:    5024           15031                           TCF      EXITRUPT                      	# Exit, we're not listening for key presses while processing happens
000015:
000016:    5025                        CAN_READ                                                  	#
000017:
000018:    5025           00006                           EXTEND                                 	#
000019:    5026           00015                           READ     CH15                          	# Read I/O channel that contains the keycode
000020:    5027           75132                           MASK     LOW5                          	# Retain only lower 5 bits
000021:    5030           54070                           TS       KEYBUF                        	# Store into keyboard buffer variable for main loop to pick up
000022:
000023:    5031                        EXITRUPT                                                  	#
000024:    5031           30007                           CA       ZEROES                        	# Clear the input channel
000025:    5032           00006                           EXTEND                                 	#
000026:    5033           01015                           WRITE    CH15                          	#
000027:
000028:    5034           52011                           DXCH     ARUPT                         	# Restore A, L, and Q, and exit the interrupt
000029:    5035           00006                           EXTEND                                 	#
000030:    5036           22012                           QXCH     QRUPT                         	#
000031:    5037           50017                           RESUME                                 	#
000032:
000033:
000034:
000035:
000036:    5040                        WAITKEY                                                   	# Waiting for any key press to start game
000037:                                                                                          	# If we didn't wait, the RNG would always start in same state
000038:
000039:    5040           35130                           CA       NOKEY                         	# Load key code for 'no key pressed'
000040:    5041           00006                           EXTEND                                 	#
000041:    5042           60070                           SU       KEYBUF                        	# Subtract the key code read
000042:    5043           00006                           EXTEND                                 	#
000043:    5044           15051                           BZF      WAITMORE                      	# If zero, nothing pressed, continue waiting
000044:
000045:    5045           35130                           CA       NOKEY                         	# Clear keyboard buffer so not carried into game
000046:    5046           54070                           TS       KEYBUF                        	#
000047:
000048:    5047           35260                           CA       STA_ADD                       	# Set game state to add the two starting numbers and exit
000049:    5050           54101                           TS       GM_STATE                      	#
000050:
000051:    5051                        WAITMORE                                                  	#
000052:    5051           14070                           TCF      MAINLOOP                      	#
000053:
000054:
000055:
000056:    5052                        CHECK_KEY                                                  	# Check whether key press in buffer from interrupt
000057:
000058:    5052           35130                           CA       NOKEY                         	# Load key code for nothing pressed into A
000059:    5053           56070                           XCH      KEYBUF                        	# Swap A and buffer. A is now key code and buffer is clear.
000060:    5054           50000                           INDEX    A                             	# Index using the keycode
000061:    5055           15056                           TCF      KEYTABL                       	# Into a jump table with jumps for each possible key
000062:
000063:                                                                                          	# We ignore all presses except for 2, 4, 6, 8 for game control and ENTER/RESTART to reset game.
000064:    5056                        KEYTABL                                                   	#
000065:    5056           15117                           TCF      ENDKYCK                       	# unused
000066:    5057           15117                           TCF      ENDKYCK                       	# 1
000067:    5060           14210                           TCF      MOVE_DOWN                     	# 2
000068:    5061           15117                           TCF      ENDKYCK                       	# 3
000069:    5062           14464                           TCF      MOVE_LEFT                     	# 4
000070:    5063           15117                           TCF      ENDKYCK                       	# 5
000071:    5064           14574                           TCF      MOVE_RT                       	# 6
000072:    5065           15117                           TCF      ENDKYCK                       	# 7
000073:    5066           14355                           TCF      MOVE_UP                       	# 8
000074:    5067           15117                           TCF      ENDKYCK                       	# 9
000075:    5070           15117                           TCF      ENDKYCK                       	# unused
000076:    5071           15117                           TCF      ENDKYCK                       	# unused
000077:    5072           15117                           TCF      ENDKYCK                       	# unused
000078:    5073           15117                           TCF      ENDKYCK                       	# unused
000079:    5074           15117                           TCF      ENDKYCK                       	# unused
000080:    5075           15117                           TCF      ENDKYCK                       	# unused
000081:    5076           15117                           TCF      ENDKYCK                       	# 0
000082:    5077           15117                           TCF      ENDKYCK                       	# VERB
000083:    5100           14054                           TCF      INIT                          	# RSET
000084:    5101           15117                           TCF      ENDKYCK                       	# unused
000085:    5102           15117                           TCF      ENDKYCK                       	# unused
000086:    5103           15117                           TCF      ENDKYCK                       	# unused
000087:    5104           15117                           TCF      ENDKYCK                       	# unused
000088:    5105           15117                           TCF      ENDKYCK                       	# unused
000089:    5106           15117                           TCF      ENDKYCK                       	# unused
000090:    5107           15117                           TCF      ENDKYCK                       	# KEY REL
000091:    5110           15117                           TCF      ENDKYCK                       	# +
000092:    5111           15117                           TCF      ENDKYCK                       	# -
000093:    5112           14054                           TCF      INIT                          	# ENTR
000094:    5113           15117                           TCF      ENDKYCK                       	# unused
000095:    5114           15117                           TCF      ENDKYCK                       	# CLR
000096:    5115           15117                           TCF      ENDKYCK                       	# NOUN
000097:    5116           15117                           TCF      ENDKYCK                       	# NOKEY
000098:
000099:    5117                        ENDKYCK                                                   	#
000100:    5117           14070                           TCF      MAINLOOP                      	# When we do nothing, just exit back to main loop to wait for a valid key
000101:
(End of include-file Input.agc, resuming Main.agc)
000062: $Random.agc
000001:
000002:    5120                        RANDOM                                                    	#
000003:
000004:                                                                                          	# I tried various methods for generating 'random' numbers. Most traditional methods are designed
000005:                                                                                          	# for 8-bit or 16-bit hardware, and the various xor 'magic numbers' are particular to that paradigm.
000006:                                                                                          	# I'm not patient enough to find values that might work. Using a fast-moving index into a lookup
000007:                                                                                          	# table should be 'good enough' for a game.
000008:
000009:
000010:    5120           30025                           CA       TIME1                         	# Load a register that is updated very often by the hardware
000011:    5121           60074                           AD       COUNTER                       	# Add previous value of counter in case we were so quick TIME1 didn't change
000012:    5122           75143                           MASK     MASK128                       	# Mask value so now between 0-127.
000013:    5123           54074                           TS       COUNTER                       	# Store this as new counter
000014:    5124           50074                           INDEX    COUNTER                       	# Index using value between 0-127
000015:    5125           35361                           CA       RAND1                         	# Into a table of random numbers between 0 and 9 (generated in Excel)
000016:    5126           24074                           INCR     COUNTER                       	# Move counter on one so next index unlikely to be the same
000017:
000018:
000019:    5127           00002                           RETURN                                 	#
000020:
000021:
(End of include-file Random.agc, resuming Main.agc)
000063:
000064: $Constants.agc
000001:                                                                                          	# The AGC does not support 'immediate mode', where you can embed a fixed value into the operand.
000002:                                                                                          	# So where you might do lda #48 in 6502 to load 48 into A, here 48 must be present somewhere in RAM
000003:                                                                                          	# or ROM so that it has an address we can reference in 'CA MYCONSTANT'.
000004:                                                                                          	# So these constants are stored in the ROM itself as data to be lookup up when needed.
000005:
000006:                                                                                          	#-----------------------------------------------------------------------
000007:                                                                                          	# Constants and read-only memory.
000008:
000009:                                                                                          	# Names of CPU registers.
000010:    5130                        A                  EQUALS   0                             	#
000011:    5130                        L                  EQUALS   1                             	# L AND Q ARE BOTH CHANNELS AND REGISTERS.
000012:    5130                        Q                  EQUALS   2                             	#
000013:    5130                        EBANK              EQUALS   3                             	#
000014:    5130                        FBANK              EQUALS   4                             	#
000015:    5130                        Z                  EQUALS   5                             	# ADJACENT TO FBANK AND BBANK FOR DXCH Z
000016:    5130                        BBANK              EQUALS   6                             	# (DTCB) AND DXCH FBANK (DTCF).
000017:    5130                        ZEROES             EQUALS   7                             	# REGISTER 7 IS A ZERO-SOURCE, USED BY ZL.
000018:    5130                        ARUPT              EQUALS   10                            	# INTERRUPT STORAGE.
000019:    5130                        LRUPT              EQUALS   11                            	#
000020:    5130                        QRUPT              EQUALS   12                            	#
000021:    5130                        SAMPTIME           EQUALS   13                            	# SAMPLED TIME 1 & 2.
000022:    5130                        ZRUPT              EQUALS   15                            	# (13 AND 14 ARE SPARES.)
000023:    5130                        BANKRUPT           EQUALS   16                            	# USUALLY HOLDS FBANK OR BBANK.
000024:    5130                        BRUPT              EQUALS   17                            	# RESUME ADDRESS AS WELL.
000025:    5130                        CYR                EQUALS   20                            	#
000026:    5130                        SR                 EQUALS   21                            	#
000027:    5130                        CYL                EQUALS   22                            	#
000028:    5130                        EDOP               EQUALS   23                            	#
000029:
000030:
000031:    5130                        CH10               EQUALS   10                            	#
000032:    5130                        CH11               EQUALS   11                            	#
000033:    5130                        CH12               EQUALS   12                            	#
000034:    5130                        CH15               EQUALS   15                            	#
000035:    5130                        CH32               EQUALS   32                            	#
000036:    5130                        CH13               EQUALS   13                            	#
000037:    5130           00040        NOKEY              OCT      40                            	#
000038:
000039:    5131           40000        BIT15              DEC      16384      B-14               	#
000040:    5132  0000007               ZERO               EQUALS   ZEROES                        	#
000041:
000042:
000043:    5132           00037        LOW5               OCT      37                            	#
000044:
000045:    5133           37774        O37774             OCT      37774                         	#
000046:    5134           37777        O37777             OCT      37777                         	#
000047:
000048:    5135           00012        TEN                DEC      10         B-14               	#
000049:    5136           00034        CLEARBTN           DEC      28         B-14               	#
000050:    5137           00022        RESETBTN           DEC      18         B-14               	#
000051:    5140           77776        NEG_ONE            DEC      -1         B-14               	#
000052:
000053:    5141           00024        TWENTY             DEC      20         B-14               	#
000054:    5142           00025        TWENTY1            DEC      21         B-14               	#
000055:    5143           00177        MASK128            DEC      127        B-14               	#
000056:    5144           00017        MASK15             DEC      15         B-14               	#
000057:    5145           00400        TWO56              DEC      256        B-14               	#
000058:    5146           00016        FOURTEEN           DEC      14         B-14               	#
000059:
000060:    5147           77776        NEG1               DEC      -1         B-14               	#
000061:    5150           77775        NEG2               DEC      -2         B-14               	#
000062:    5151           77772        NEG5               DEC      -5         B-14               	#
000063:    5152           00176        BIT5               DEC      126        B-14               	#
000064:
000065:
(End of include-file Constants.agc, resuming Main.agc)
000065: $Tables.agc
000001:
000002:                                                                                          	# Because constants are held in fixed memory (ROM), we can organise them consecutively
000003:                                                                                          	# and use them as handy lookup tables
000004:
000005:                                                                                          	# For each possible digit (blank, 0-9), the 5-bit code we need to send to the DSKY.
000006:
000007:    5153           00000        DSPBLANK           OCT      0                             	#
000008:    5154           00025        DSP0               OCT      25                            	#
000009:    5155           00003        DSP1               OCT      3                             	#
000010:    5156           00031        DSP2               OCT      31                            	#
000011:    5157           00033        DSP3               OCT      33                            	#
000012:    5160           00017        DSP4               OCT      17                            	#
000013:    5161           00036        DSP5               OCT      36                            	#
000014:    5162           00034        DSP6               OCT      34                            	#
000015:    5163           00023        DSP7               OCT      23                            	#
000016:    5164           00035        DSP8               OCT      35                            	#
000017:    5165           00037        DSP9               OCT      37                            	#
000018:
000019:                                                                                          	# For each of the 21 display digits, is it left (1) or right (0) of the pair?
000020:
000021:    5166           00001        LEFTRIGHT           DEC      1          B-14               	#
000022:    5167           00000        LR1                DEC      0          B-14               	#
000023:    5170           00001        LR2                DEC      1          B-14               	#
000024:    5171           00000        LR3                DEC      0          B-14               	#
000025:    5172           00001        LR4                DEC      1          B-14               	#
000026:    5173           00000        LR5                DEC      0          B-14               	#
000027:    5174           00000        LR6                DEC      0          B-14               	#
000028:    5175           00001        LR7                DEC      1          B-14               	#
000029:    5176           00000        LR8                DEC      0          B-14               	#
000030:    5177           00001        LR9                DEC      1          B-14               	#
000031:    5200           00000        LR10               DEC      0          B-14               	#
000032:    5201           00001        LR11               DEC      1          B-14               	#
000033:    5202           00000        LR12               DEC      0          B-14               	#
000034:    5203           00001        LR13               DEC      1          B-14               	#
000035:    5204           00000        LR14               DEC      0          B-14               	#
000036:    5205           00001        LR15               DEC      1          B-14               	#
000037:    5206           00000        LR16               DEC      0          B-14               	#
000038:    5207           00001        LR17               DEC      1          B-14               	#
000039:    5210           00000        LR18               DEC      0          B-14               	#
000040:    5211           00001        LR19               DEC      1          B-14               	#
000041:    5212           00000        LR20               DEC      0          B-14               	#
000042:
000043:                                                                                          	# For each of the 21 display digits, which pair of segments does it belong to?
000044:
000045:    5213           00000        SEG_0              DEC      00         B-14               	#
000046:    5214           00000        SEG_1              DEC      00         B-14               	#
000047:    5215           00001        SEG_2              DEC      01         B-14               	#
000048:    5216           00001        SEG_3              DEC      01         B-14               	#
000049:    5217           00002        SEG_4              DEC      02         B-14               	#
000050:    5220           00002        SEG_5              DEC      02         B-14               	#
000051:    5221           00003        SEG_6              DEC      03         B-14               	#
000052:    5222           00004        SEG_7              DEC      04         B-14               	#
000053:    5223           00004        SEG_8              DEC      04         B-14               	#
000054:    5224           00005        SEG_9              DEC      05         B-14               	#
000055:    5225           00005        SEG_10             DEC      05         B-14               	#
000056:    5226           00006        SEG_11             DEC      06         B-14               	#
000057:    5227           00006        SEG_12             DEC      06         B-14               	#
000058:    5230           00007        SEG_13             DEC      07         B-14               	#
000059:    5231           00007        SEG_14             DEC      07         B-14               	#
000060:    5232           00010        SEG_15             DEC      08         B-14               	#
000061:    5233           00010        SEG_16             DEC      08         B-14               	#
000062:    5234           00011        SEG_17             DEC      09         B-14               	#
000063:    5235           00011        SEG_18             DEC      09         B-14               	#
000064:    5236           00012        SEG_19             DEC      10         B-14               	#
000065:    5237           00012        SEG_20             DEC      10         B-14               	#
000066:
000067:
000068:                                                                                          	# Lookup bits 10-14 to select the segement pair in Channel 10 WRITE
000069:
000070:
000071:    5240           54000        SEGCODE            OCT      54000                         	#
000072:    5241           50000        VERBLR             OCT      50000                         	#
000073:    5242           44000        NOUNLR             OCT      44000                         	#
000074:    5243           40000        TOP1               OCT      40000                         	#
000075:    5244           34000        TOP23              OCT      34000                         	#
000076:    5245           30000        TOP45              OCT      30000                         	#
000077:    5246           24000        MID12              OCT      24000                         	#
000078:    5247           20000        MID34              OCT      20000                         	#
000079:    5250           14000        MID5BOT1           OCT      14000                         	#
000080:    5251           10000        BOT23              OCT      10000                         	#
000081:    5252           04000        BOT45              OCT      4000                          	#
000082:
000083:
000084:
000085:                                                                                          	# Decimal table for easy loading into A
000086:
000087:    5253           00000        DIGITS             DEC      0          B-14               	#
000088:    5254           00001        DEC1               DEC      1          B-14               	#
000089:    5255           00002        DEC2               DEC      2          B-14               	#
000090:    5256           00003        DEC3               DEC      3          B-14               	#
000091:    5257           00004        DEC4               DEC      4          B-14               	#
000092:    5260           00005        DEC5               DEC      5          B-14               	#
000093:    5261           00006        DEC6               DEC      6          B-14               	#
000094:    5262           00007        DEC7               DEC      7          B-14               	#
000095:    5263           00010        DEC8               DEC      8          B-14               	#
000096:    5264           00011        DEC9               DEC      9          B-14               	#
000097:    5265           00012        DEC10              DEC      10         B-14               	#
000098:    5266           00013        DEC11              DEC      11         B-14               	#
000099:    5267           00014        DEC12              DEC      12         B-14               	#
000100:    5270           00015        DEC13              DEC      13         B-14               	#
000101:    5271           00016        DEC14              DEC      14         B-14               	#
000102:    5272           00017        DEC15              DEC      15         B-14               	#
000103:    5273           00020        DEC16              DEC      16         B-14               	#
000104:    5274           00021        DEC17              DEC      17         B-14               	#
000105:    5275           00022        DEC18              DEC      18         B-14               	#
000106:    5276           00023        DEC19              DEC      19         B-14               	#
000107:
000108:                                                                                          	# Game state constants, re-using some of the above
000109:
000110:    5277     5253               STA_INPUT           EQUALS   DIGITS                        	#
000111:    5277     5254               STA_DOWN           EQUALS   DEC1                          	#
000112:    5277     5255               STA_UP             EQUALS   DEC2                          	#
000113:    5277     5256               STA_LEFT           EQUALS   DEC3                          	#
000114:    5277     5257               STA_RIGHT           EQUALS   DEC4                          	#
000115:    5277     5260               STA_ADD            EQUALS   DEC5                          	#
000116:    5277     5261               STA_WAIT           EQUALS   DEC6                          	#
000117:
000118:
000119:
000120:                                                                                          	# For each grid row, which segment ID does it start at?
000121:
000122:    5277           00006        ROW_STRT           DEC      6          B-14               	#
000123:    5300           00013        ROW_STRT2           DEC      11         B-14               	#
000124:    5301           00020        ROW_STRT3           DEC      16         B-14               	#
000125:
000126:                                                                                          	# For each grid column, which segment ID does it start at?
000127:
000128:    5302           00006        COL_STRT           DEC      6          B-14               	#
000129:    5303           00007        COL_STRT2           DEC      7          B-14               	#
000130:    5304           00010        COL_STRT3           DEC      8          B-14               	#
000131:    5305           00011        COL_STRT4           DEC      9          B-14               	#
000132:    5306           00012        COL_STRT5           DEC      10         B-14               	#
000133:
000134:                                                                                          	# For each grid cell, which column does it belong to (0-5 ignored)
000135:
000136:    5307           00000        GRID_COL           DEC      0          B-14               	#
000137:    5310           00000        GRID_CM5           DEC      0          B-14               	#
000138:    5311           00000        GRID_CM4           DEC      0          B-14               	#
000139:    5312           00000        GRID_CM3           DEC      0          B-14               	#
000140:    5313           00000        GRID_CM2           DEC      0          B-14               	#
000141:    5314           00000        GRID_CM1           DEC      0          B-14               	#
000142:    5315           00000        GRID_C0            DEC      0          B-14               	#
000143:    5316           00001        GRID_C1            DEC      1          B-14               	#
000144:    5317           00002        GRID_C2            DEC      2          B-14               	#
000145:    5320           00003        GRID_C3            DEC      3          B-14               	#
000146:    5321           00004        GRID_C4            DEC      4          B-14               	#
000147:    5322           00000        GRID_C5            DEC      0          B-14               	#
000148:    5323           00001        GRID_C6            DEC      1          B-14               	#
000149:    5324           00002        GRID_C7            DEC      2          B-14               	#
000150:    5325           00003        GRID_C8            DEC      3          B-14               	#
000151:    5326           00004        GRID_C9            DEC      4          B-14               	#
000152:    5327           00000        GRID_C10           DEC      0          B-14               	#
000153:    5330           00001        GRID_C11           DEC      1          B-14               	#
000154:    5331           00002        GRID_C12           DEC      2          B-14               	#
000155:    5332           00003        GRID_C13           DEC      3          B-14               	#
000156:    5333           00004        GRID_C14           DEC      4          B-14               	#
000157:
000158:                                                                                          	# For each grid cell, which ro wdoes it belong to (0-5 ignored)
000159:
000160:    5334           00000        GRID_ROW           DEC      0          B-14               	#
000161:    5335           00000        GRID_RM5           DEC      0          B-14               	#
000162:    5336           00000        GRID_RM4           DEC      0          B-14               	#
000163:    5337           00000        GRID_RM3           DEC      0          B-14               	#
000164:    5340           00000        GRID_RM2           DEC      0          B-14               	#
000165:    5341           00000        GRID_RM1           DEC      0          B-14               	#
000166:    5342           00000        GRID_R0            DEC      0          B-14               	#
000167:    5343           00000        GRID_R1            DEC      0          B-14               	#
000168:    5344           00000        GRID_R2            DEC      0          B-14               	#
000169:    5345           00000        GRID_R3            DEC      0          B-14               	#
000170:    5346           00000        GRID_R4            DEC      0          B-14               	#
000171:    5347           00001        GRID_R5            DEC      1          B-14               	#
000172:    5350           00001        GRID_R6            DEC      1          B-14               	#
000173:    5351           00001        GRID_R7            DEC      1          B-14               	#
000174:    5352           00001        GRID_R8            DEC      1          B-14               	#
000175:    5353           00001        GRID_R9            DEC      1          B-14               	#
000176:    5354           00002        GRID_R10           DEC      2          B-14               	#
000177:    5355           00002        GRID_R11           DEC      2          B-14               	#
000178:    5356           00002        GRID_R12           DEC      2          B-14               	#
000179:    5357           00002        GRID_R13           DEC      2          B-14               	#
000180:    5360           00002        GRID_R14           DEC      2          B-14               	#
000181:
000182:                                                                                          	# Table of 128 'random' numbers between 0-9 that we can index into
000183:
000184:    5361           00005        RAND1              DEC      5          B-14               	#
000185:    5362           00002        RAND2              DEC      2          B-14               	#
000186:    5363           00000        RAND3              DEC      0          B-14               	#
000187:    5364           00002        RAND4              DEC      2          B-14               	#
000188:    5365           00011        RAND5              DEC      9          B-14               	#
000189:    5366           00004        RAND6              DEC      4          B-14               	#
000190:    5367           00005        RAND7              DEC      5          B-14               	#
000191:    5370           00001        RAND8              DEC      1          B-14               	#
000192:    5371           00000        RAND9              DEC      0          B-14               	#
000193:    5372           00003        RAND10             DEC      3          B-14               	#
000194:    5373           00011        RAND11             DEC      9          B-14               	#
000195:    5374           00005        RAND12             DEC      5          B-14               	#
000196:    5375           00006        RAND13             DEC      6          B-14               	#
000197:    5376           00007        RAND14             DEC      7          B-14               	#
000198:    5377           00007        RAND15             DEC      7          B-14               	#
000199:    5400           00001        RAND16             DEC      1          B-14               	#
000200:    5401           00006        RAND17             DEC      6          B-14               	#
000201:    5402           00005        RAND18             DEC      5          B-14               	#
000202:    5403           00007        RAND19             DEC      7          B-14               	#
000203:    5404           00004        RAND20             DEC      4          B-14               	#
000204:    5405           00005        RAND21             DEC      5          B-14               	#
000205:    5406           00002        RAND22             DEC      2          B-14               	#
000206:    5407           00000        RAND23             DEC      0          B-14               	#
000207:    5410           00005        RAND24             DEC      5          B-14               	#
000208:    5411           00011        RAND25             DEC      9          B-14               	#
000209:    5412           00006        RAND26             DEC      6          B-14               	#
000210:    5413           00005        RAND27             DEC      5          B-14               	#
000211:    5414           00007        RAND28             DEC      7          B-14               	#
000212:    5415           00005        RAND29             DEC      5          B-14               	#
000213:    5416           00006        RAND30             DEC      6          B-14               	#
000214:    5417           00000        RAND31             DEC      0          B-14               	#
000215:    5420           00006        RAND32             DEC      6          B-14               	#
000216:    5421           00011        RAND33             DEC      9          B-14               	#
000217:    5422           00004        RAND34             DEC      4          B-14               	#
000218:    5423           00002        RAND35             DEC      2          B-14               	#
000219:    5424           00005        RAND36             DEC      5          B-14               	#
000220:    5425           00011        RAND37             DEC      9          B-14               	#
000221:    5426           00011        RAND38             DEC      9          B-14               	#
000222:    5427           00002        RAND39             DEC      2          B-14               	#
000223:    5430           00000        RAND40             DEC      0          B-14               	#
000224:    5431           00007        RAND41             DEC      7          B-14               	#
000225:    5432           00006        RAND42             DEC      6          B-14               	#
000226:    5433           00000        RAND43             DEC      0          B-14               	#
000227:    5434           00005        RAND44             DEC      5          B-14               	#
000228:    5435           00006        RAND45             DEC      6          B-14               	#
000229:    5436           00001        RAND46             DEC      1          B-14               	#
000230:    5437           00007        RAND47             DEC      7          B-14               	#
000231:    5440           00007        RAND48             DEC      7          B-14               	#
000232:    5441           00002        RAND49             DEC      2          B-14               	#
000233:    5442           00004        RAND50             DEC      4          B-14               	#
000234:    5443           00011        RAND51             DEC      9          B-14               	#
000235:    5444           00006        RAND52             DEC      6          B-14               	#
000236:    5445           00011        RAND53             DEC      9          B-14               	#
000237:    5446           00000        RAND54             DEC      0          B-14               	#
000238:    5447           00003        RAND55             DEC      3          B-14               	#
000239:    5450           00005        RAND56             DEC      5          B-14               	#
000240:    5451           00001        RAND57             DEC      1          B-14               	#
000241:    5452           00004        RAND58             DEC      4          B-14               	#
000242:    5453           00007        RAND59             DEC      7          B-14               	#
000243:    5454           00001        RAND60             DEC      1          B-14               	#
000244:    5455           00002        RAND61             DEC      2          B-14               	#
000245:    5456           00007        RAND62             DEC      7          B-14               	#
000246:    5457           00002        RAND63             DEC      2          B-14               	#
000247:    5460           00001        RAND64             DEC      1          B-14               	#
000248:    5461           00005        RAND65             DEC      5          B-14               	#
000249:    5462           00010        RAND66             DEC      8          B-14               	#
000250:    5463           00001        RAND67             DEC      1          B-14               	#
000251:    5464           00007        RAND68             DEC      7          B-14               	#
000252:    5465           00007        RAND69             DEC      7          B-14               	#
000253:    5466           00003        RAND70             DEC      3          B-14               	#
000254:    5467           00003        RAND71             DEC      3          B-14               	#
000255:    5470           00004        RAND72             DEC      4          B-14               	#
000256:    5471           00005        RAND73             DEC      5          B-14               	#
000257:    5472           00005        RAND74             DEC      5          B-14               	#
000258:    5473           00005        RAND75             DEC      5          B-14               	#
000259:    5474           00006        RAND76             DEC      6          B-14               	#
000260:    5475           00006        RAND77             DEC      6          B-14               	#
000261:    5476           00006        RAND78             DEC      6          B-14               	#
000262:    5477           00010        RAND79             DEC      8          B-14               	#
000263:    5500           00006        RAND80             DEC      6          B-14               	#
000264:    5501           00005        RAND81             DEC      5          B-14               	#
000265:    5502           00001        RAND82             DEC      1          B-14               	#
000266:    5503           00007        RAND83             DEC      7          B-14               	#
000267:    5504           00010        RAND84             DEC      8          B-14               	#
000268:    5505           00001        RAND85             DEC      1          B-14               	#
000269:    5506           00011        RAND86             DEC      9          B-14               	#
000270:    5507           00003        RAND87             DEC      3          B-14               	#
000271:    5510           00000        RAND88             DEC      0          B-14               	#
000272:    5511           00003        RAND89             DEC      3          B-14               	#
000273:    5512           00007        RAND90             DEC      7          B-14               	#
000274:    5513           00002        RAND91             DEC      2          B-14               	#
000275:    5514           00005        RAND92             DEC      5          B-14               	#
000276:    5515           00001        RAND93             DEC      1          B-14               	#
000277:    5516           00000        RAND94             DEC      0          B-14               	#
000278:    5517           00011        RAND95             DEC      9          B-14               	#
000279:    5520           00001        RAND96             DEC      1          B-14               	#
000280:    5521           00011        RAND97             DEC      9          B-14               	#
000281:    5522           00005        RAND98             DEC      5          B-14               	#
000282:    5523           00006        RAND99             DEC      6          B-14               	#
000283:    5524           00006        RAND100            DEC      6          B-14               	#
000284:    5525           00011        RAND101            DEC      9          B-14               	#
000285:    5526           00010        RAND102            DEC      8          B-14               	#
000286:    5527           00001        RAND103            DEC      1          B-14               	#
000287:    5530           00007        RAND104            DEC      7          B-14               	#
000288:    5531           00003        RAND105            DEC      3          B-14               	#
000289:    5532           00006        RAND106            DEC      6          B-14               	#
000290:    5533           00007        RAND107            DEC      7          B-14               	#
000291:    5534           00006        RAND108            DEC      6          B-14               	#
000292:    5535           00001        RAND109            DEC      1          B-14               	#
000293:    5536           00004        RAND110            DEC      4          B-14               	#
000294:    5537           00011        RAND111            DEC      9          B-14               	#
000295:    5540           00000        RAND112            DEC      0          B-14               	#
000296:    5541           00002        RAND113            DEC      2          B-14               	#
000297:    5542           00005        RAND114            DEC      5          B-14               	#
000298:    5543           00004        RAND115            DEC      4          B-14               	#
000299:    5544           00005        RAND116            DEC      5          B-14               	#
000300:    5545           00000        RAND117            DEC      0          B-14               	#
000301:    5546           00000        RAND118            DEC      0          B-14               	#
000302:    5547           00005        RAND119            DEC      5          B-14               	#
000303:    5550           00010        RAND120            DEC      8          B-14               	#
000304:    5551           00005        RAND121            DEC      5          B-14               	#
000305:    5552           00001        RAND122            DEC      1          B-14               	#
000306:    5553           00000        RAND123            DEC      0          B-14               	#
000307:    5554           00003        RAND124            DEC      3          B-14               	#
000308:    5555           00006        RAND125            DEC      6          B-14               	#
000309:    5556           00003        RAND126            DEC      3          B-14               	#
000310:    5557           00004        RAND127            DEC      4          B-14               	#
000311:    5560           00001        RAND128            DEC      1          B-14               	#
(End of include-file Tables.agc, resuming Main.agc)
000066: $Ram.agc
000001:
000002:                                                                                          	# The AGC has 2,000 words (4KB) of erasable memory. We only need a fraction for this game!
000003:
000004:
000005:                                                                                          	#-------------------------------------------------------------------------
000006:                                                                                          	# Some variables.
000007:
000008:    0024                                           SETLOC   24                            	#
000009:    0024                        TIME2              ERASE                                  	#
000010:    0025                        TIME1              ERASE                                  	#
000011:    0026                        TIME3              ERASE                                  	#
000012:    0027                        TIME4              ERASE                                  	#
000013:    0030                        TIME5              ERASE                                  	#
000014:    0031                        TIME6              ERASE                                  	#
000015:
000016:    0061                                           SETLOC   61                            	#
000017:
000018:                                                                                          	# Temp variables.
000019:    0061                        TEMPI              ERASE                                  	#
000020:    0062                        TEMPJ              ERASE                                  	#
000021:    0063                        TEMPK              ERASE                                  	#
000022:
000023:
000024:    0067                                           SETLOC   67                            	#
000025:    0067                        NEWJOB             ERASE                                  	#
000026:
000027:
000028:    0070                        KEYBUF             ERASE                                  	#
000029:    0071                        RET_ADR            ERASE                                  	#
000030:    0072                        RET_ADR2           ERASE                                  	#
000031:
000032:    0073                        ACTIVE             ERASE                                  	#
000033:    0074                        COUNTER            ERASE                                  	#
000034:    0075                        CUR_ID             ERASE                                  	#
000035:    0076                        SEG_OUT            ERASE                                  	#
000036:    0077                        CHK_ID             ERASE                                  	#
000037:    0100                        CELL_VALUE           ERASE                                  	#
000038:    0101                        GM_STATE           ERASE                                  	#
000039:    0102                        CHK_VALUE           ERASE                                  	#
000040:    0103                        MATCHMD            ERASE                                  	#
000041:    0104                        MATCH1             ERASE                                  	#
000042:    0105                        MATCH2             ERASE                                  	#
000043:    0106                        MATCH3             ERASE                                  	#
000044:    0107                        MATCH4             ERASE                                  	#
000045:    0110                        CELLROW            ERASE                                  	#
000046:    0111                        CELLCOL            ERASE                                  	#
000047:    0112                        GM_DONE            ERASE                                  	#
000048:
000049:    0113                        ROW_ID             ERASE                                  	#
000050:    0114                        COL_ID             ERASE                                  	#
000051:    0115                        END_ID             ERASE                                  	#
000052:    0116                        DSKY_OUT           ERASE                                  	#
000053:    0117                        DIGIT_L            ERASE                                  	#
000054:    0120                        DIGIT_R            ERASE                                  	#
000055:    0121                        INPUTBUF           ERASE                                  	#
000056:    0122                        BTNMASK            ERASE                                  	#
000057:    0123                        PLAY_ID            ERASE                                  	#
000058:
000059:    0124                        VALUES             ERASE    +21                           	#
(End of include-file Ram.agc, resuming Main.agc)
000067:


Usage Table for Fixed-Memory Banks
----------------------------------
Bank 00:  0000/2000 words used.
Bank 01:  0000/2000 words used.
Bank 02:  1561/2000 words used.
Bank 03:  0000/2000 words used.
Bank 04:  0000/2000 words used.
Bank 05:  0000/2000 words used.
Bank 06:  0000/2000 words used.
Bank 07:  0000/2000 words used.
Bank 10:  0000/2000 words used.
Bank 11:  0000/2000 words used.
Bank 12:  0000/2000 words used.
Bank 13:  0000/2000 words used.
Bank 14:  0000/2000 words used.
Bank 15:  0000/2000 words used.
Bank 16:  0000/2000 words used.
Bank 17:  0000/2000 words used.
Bank 20:  0000/2000 words used.
Bank 21:  0000/2000 words used.
Bank 22:  0000/2000 words used.
Bank 23:  0000/2000 words used.
Bank 24:  0000/2000 words used.
Bank 25:  0000/2000 words used.
Bank 26:  0000/2000 words used.
Bank 27:  0000/2000 words used.
Bank 30:  0000/2000 words used.
Bank 31:  0000/2000 words used.
Bank 32:  0000/2000 words used.
Bank 33:  0000/2000 words used.
Bank 34:  0000/2000 words used.
Bank 35:  0000/2000 words used.
Bank 36:  0000/2000 words used.
Bank 37:  0000/2000 words used.
Bank 40:  0000/2000 words used.
Bank 41:  0000/2000 words used.
Bank 42:  0000/2000 words used.
Bank 43:  0000/2000 words used.


Symbol Table
------------
     1,E:   $17             0017  		     2,E:   $3              0003  		     3,E:   $4              0004  		     4,E:   $5              0005
     5,E:   $6              0006  		     6,E:   $7              0007  		     7,C:   A            0000000  		     8,E:   ACTIVE          0073
     9,F:   ADD5            4150  		    10,F:   ADD6            4145  		    11,C:   ARUPT        0000010  		    12,C:   BANKRUPT     0000016
    13,C:   BBANK        0000006  		    14,F:   BIT15           5131  		    15,F:   BIT5            5152  		    16,F:   BOT23           5251
    17,F:   BOT45           5252  		    18,C:   BRUPT        0000017  		    19,E:   BTNMASK         0122  		    20,F:   CALCLEFT        4745
    21,F:   CAN_READ        5025  		    22,E:   CELLCOL         0111  		    23,E:   CELLROW         0110  		    24,F:   CELL_MOV        4321
    25,E:   CELL_VALUE      0100  		    26,C:   CH10         0000010  		    27,C:   CH11         0000011  		    28,C:   CH12         0000012
    29,C:   CH13         0000013  		    30,C:   CH15         0000015  		    31,C:   CH32         0000032  		    32,F:   CHECK_KEY       5052
    33,F:   CHKVALID        4152  		    34,F:   CHK_ABV         4406  		    35,F:   CHK_BEL         4241  		    36,E:   CHK_ID          0077
    37,F:   CHK_LFT         4515  		    38,F:   CHK_RT          4625  		    39,F:   CHK_STATE       4071  		    40,E:   CHK_VALUE       0102
    41,F:   CLEARBTN        5136  		    42,E:   COL_ID          0114  		    43,F:   COL_STRT        5302  		    44,F:   COL_STRT2       5303
    45,F:   COL_STRT3       5304  		    46,F:   COL_STRT4       5305  		    47,F:   COL_STRT5       5306  		    48,F:   COMPLETE        4345
    49,E:   COUNTER         0074  		    50,E:   CUR_ID          0075  		    51,C:   CYL          0000022  		    52,C:   CYR          0000020
    53,F:   DEC1            5254  		    54,F:   DEC10           5265  		    55,F:   DEC11           5266  		    56,F:   DEC12           5267
    57,F:   DEC13           5270  		    58,F:   DEC14           5271  		    59,F:   DEC15           5272  		    60,F:   DEC16           5273
    61,F:   DEC17           5274  		    62,F:   DEC18           5275  		    63,F:   DEC19           5276  		    64,F:   DEC2            5255
    65,F:   DEC3            5256  		    66,F:   DEC4            5257  		    67,F:   DEC5            5260  		    68,F:   DEC6            5261
    69,F:   DEC7            5262  		    70,F:   DEC8            5263  		    71,F:   DEC9            5264  		    72,F:   DIDLEFT         4765
    73,F:   DIGITS          5253  		    74,E:   DIGIT_L         0117  		    75,E:   DIGIT_R         0120  		    76,F:   DISP15          4703
    77,F:   DISPNUM         4725  		    78,F:   DONE15          4722  		    79,E:   DSKY_OUT        0116  		    80,F:   DSP0            5154
    81,F:   DSP1            5155  		    82,F:   DSP2            5156  		    83,F:   DSP3            5157  		    84,F:   DSP4            5160
    85,F:   DSP5            5161  		    86,F:   DSP6            5162  		    87,F:   DSP7            5163  		    88,F:   DSP8            5164
    89,F:   DSP9            5165  		    90,F:   DSPBLANK        5153  		    91,F:   D_COLOOP        4230  		    92,F:   D_DONE          4307
    93,F:   D_MATCH         4265  		    94,F:   D_NOCOL         4271  		    95,F:   D_NOSOF         4257  		    96,F:   D_NOWT          4315
    97,F:   D_NXTRW         4300  		    98,F:   D_ROLOOP        4223  		    99,F:   D_SOMEHR        4252  		   100,F:   D_UPDATE        4312
   101,C:   EBANK        0000003  		   102,C:   EDOP         0000023  		   103,F:   ENDKYCK         5117  		   104,E:   END_ID          0115
   105,F:   EXITRUPT        5031  		   106,C:   FBANK        0000004  		   107,F:   FOURTEEN        5146  		   108,F:   GENZERO         4131
   109,E:   GM_DONE         0112  		   110,E:   GM_STATE        0101  		   111,F:   GRID_C0         5315  		   112,F:   GRID_C1         5316
   113,F:   GRID_C10        5327  		   114,F:   GRID_C11        5330  		   115,F:   GRID_C12        5331  		   116,F:   GRID_C13        5332
   117,F:   GRID_C14        5333  		   118,F:   GRID_C2         5317  		   119,F:   GRID_C3         5320  		   120,F:   GRID_C4         5321
   121,F:   GRID_C5         5322  		   122,F:   GRID_C6         5323  		   123,F:   GRID_C7         5324  		   124,F:   GRID_C8         5325
   125,F:   GRID_C9         5326  		   126,F:   GRID_CM1        5314  		   127,F:   GRID_CM2        5313  		   128,F:   GRID_CM3        5312
   129,F:   GRID_CM4        5311  		   130,F:   GRID_CM5        5310  		   131,F:   GRID_COL        5307  		   132,F:   GRID_R0         5342
   133,F:   GRID_R1         5343  		   134,F:   GRID_R10        5354  		   135,F:   GRID_R11        5355  		   136,F:   GRID_R12        5356
   137,F:   GRID_R13        5357  		   138,F:   GRID_R14        5360  		   139,F:   GRID_R2         5344  		   140,F:   GRID_R3         5345
   141,F:   GRID_R4         5346  		   142,F:   GRID_R5         5347  		   143,F:   GRID_R6         5350  		   144,F:   GRID_R7         5351
   145,F:   GRID_R8         5352  		   146,F:   GRID_R9         5353  		   147,F:   GRID_RM1        5341  		   148,F:   GRID_RM2        5340
   149,F:   GRID_RM3        5337  		   150,F:   GRID_RM4        5336  		   151,F:   GRID_RM5        5335  		   152,F:   GRID_ROW        5334
   153,F:   INIT            4054  		   154,E:   INPUTBUF        0121  		   155,F:   IODELAY         4775  		   156,F:   IODELAYT        4774
   157,F:   ISEMPTY         4162  		   158,E:   KEYBUF          0070  		   159,F:   KEYRUPT1        5014  		   160,F:   KEYTABL         5056
   161,C:   L            0000001  		   162,F:   LEFTRIGHT       5166  		   163,F:   LOW5            5132  		   164,F:   LR1             5167
   165,F:   LR10            5200  		   166,F:   LR11            5201  		   167,F:   LR12            5202  		   168,F:   LR13            5203
   169,F:   LR14            5204  		   170,F:   LR15            5205  		   171,F:   LR16            5206  		   172,F:   LR17            5207
   173,F:   LR18            5210  		   174,F:   LR19            5211  		   175,F:   LR2             5170  		   176,F:   LR20            5212
   177,F:   LR3             5171  		   178,F:   LR4             5172  		   179,F:   LR5             5173  		   180,F:   LR6             5174
   181,F:   LR7             5175  		   182,F:   LR8             5176  		   183,F:   LR9             5177  		   184,C:   LRUPT        0000011
   185,F:   L_COLOOP        4477  		   186,F:   L_MATCH         4541  		   187,F:   L_NOMAT         4533  		   188,F:   L_NOROW         4554
   189,F:   L_NXTCOL        4564  		   190,F:   L_ROLOOP        4504  		   191,F:   L_SOMEHR        4526  		   192,F:   MAINLOOP        4070
   193,F:   MAKEONE         4173  		   194,F:   MASK128         5143  		   195,F:   MASK15          5144  		   196,E:   MATCH1          0104
   197,E:   MATCH2          0105  		   198,E:   MATCH3          0106  		   199,E:   MATCH4          0107  		   200,E:   MATCHMD         0103
   201,F:   MID12           5246  		   202,F:   MID34           5247  		   203,F:   MID5BOT1        5250  		   204,F:   MOVE_DOWN       4210
   205,F:   MOVE_LEFT       4464  		   206,F:   MOVE_RT         4574  		   207,F:   MOVE_UP         4355  		   208,F:   MOVING_DN       4215
   209,F:   MOVING_LT       4471  		   210,F:   MOVING_RT       4601  		   211,F:   MOVING_UP       4362  		   212,F:   MOV_DN          4270
   213,F:   MOV_LEFT        4545  		   214,F:   MOV_RT          4655  		   215,F:   MOV_UP          4436  		   216,F:   NEG1            5147
   217,F:   NEG2            5150  		   218,F:   NEG5            5151  		   219,F:   NEG_ONE         5140  		   220,F:   NEWBOX          4133
   221,E:   NEWJOB          0067  		   222,F:   NEWNUM          4117  		   223,F:   NOKEY           5130  		   224,F:   NOTCOMP         4351
   225,F:   NOTEMPTY        4160  		   226,F:   NOUNLR          5242  		   227,F:   O37774          5133  		   228,F:   O37777          5134
   229,F:   OUTPUT          4767  		   230,E:   PLAY_ID         0123  		   231,C:   Q            0000002  		   232,C:   QRUPT        0000012
   233,F:   RAND1           5361  		   234,F:   RAND10          5372  		   235,F:   RAND100         5524  		   236,F:   RAND101         5525
   237,F:   RAND102         5526  		   238,F:   RAND103         5527  		   239,F:   RAND104         5530  		   240,F:   RAND105         5531
   241,F:   RAND106         5532  		   242,F:   RAND107         5533  		   243,F:   RAND108         5534  		   244,F:   RAND109         5535
   245,F:   RAND11          5373  		   246,F:   RAND110         5536  		   247,F:   RAND111         5537  		   248,F:   RAND112         5540
   249,F:   RAND113         5541  		   250,F:   RAND114         5542  		   251,F:   RAND115         5543  		   252,F:   RAND116         5544
   253,F:   RAND117         5545  		   254,F:   RAND118         5546  		   255,F:   RAND119         5547  		   256,F:   RAND12          5374
   257,F:   RAND120         5550  		   258,F:   RAND121         5551  		   259,F:   RAND122         5552  		   260,F:   RAND123         5553
   261,F:   RAND124         5554  		   262,F:   RAND125         5555  		   263,F:   RAND126         5556  		   264,F:   RAND127         5557
   265,F:   RAND128         5560  		   266,F:   RAND13          5375  		   267,F:   RAND14          5376  		   268,F:   RAND15          5377
   269,F:   RAND16          5400  		   270,F:   RAND17          5401  		   271,F:   RAND18          5402  		   272,F:   RAND19          5403
   273,F:   RAND2           5362  		   274,F:   RAND20          5404  		   275,F:   RAND21          5405  		   276,F:   RAND22          5406
   277,F:   RAND23          5407  		   278,F:   RAND24          5410  		   279,F:   RAND25          5411  		   280,F:   RAND26          5412
   281,F:   RAND27          5413  		   282,F:   RAND28          5414  		   283,F:   RAND29          5415  		   284,F:   RAND3           5363
   285,F:   RAND30          5416  		   286,F:   RAND31          5417  		   287,F:   RAND32          5420  		   288,F:   RAND33          5421
   289,F:   RAND34          5422  		   290,F:   RAND35          5423  		   291,F:   RAND36          5424  		   292,F:   RAND37          5425
   293,F:   RAND38          5426  		   294,F:   RAND39          5427  		   295,F:   RAND4           5364  		   296,F:   RAND40          5430
   297,F:   RAND41          5431  		   298,F:   RAND42          5432  		   299,F:   RAND43          5433  		   300,F:   RAND44          5434
   301,F:   RAND45          5435  		   302,F:   RAND46          5436  		   303,F:   RAND47          5437  		   304,F:   RAND48          5440
   305,F:   RAND49          5441  		   306,F:   RAND5           5365  		   307,F:   RAND50          5442  		   308,F:   RAND51          5443
   309,F:   RAND52          5444  		   310,F:   RAND53          5445  		   311,F:   RAND54          5446  		   312,F:   RAND55          5447
   313,F:   RAND56          5450  		   314,F:   RAND57          5451  		   315,F:   RAND58          5452  		   316,F:   RAND59          5453
   317,F:   RAND6           5366  		   318,F:   RAND60          5454  		   319,F:   RAND61          5455  		   320,F:   RAND62          5456
   321,F:   RAND63          5457  		   322,F:   RAND64          5460  		   323,F:   RAND65          5461  		   324,F:   RAND66          5462
   325,F:   RAND67          5463  		   326,F:   RAND68          5464  		   327,F:   RAND69          5465  		   328,F:   RAND7           5367
   329,F:   RAND70          5466  		   330,F:   RAND71          5467  		   331,F:   RAND72          5470  		   332,F:   RAND73          5471
   333,F:   RAND74          5472  		   334,F:   RAND75          5473  		   335,F:   RAND76          5474  		   336,F:   RAND77          5475
   337,F:   RAND78          5476  		   338,F:   RAND79          5477  		   339,F:   RAND8           5370  		   340,F:   RAND80          5500
   341,F:   RAND81          5501  		   342,F:   RAND82          5502  		   343,F:   RAND83          5503  		   344,F:   RAND84          5504
   345,F:   RAND85          5505  		   346,F:   RAND86          5506  		   347,F:   RAND87          5507  		   348,F:   RAND88          5510
   349,F:   RAND89          5511  		   350,F:   RAND9           5371  		   351,F:   RAND90          5512  		   352,F:   RAND91          5513
   353,F:   RAND92          5514  		   354,F:   RAND93          5515  		   355,F:   RAND94          5516  		   356,F:   RAND95          5517
   357,F:   RAND96          5520  		   358,F:   RAND97          5521  		   359,F:   RAND98          5522  		   360,F:   RAND99          5523
   361,F:   RANDOM          5120  		   362,F:   RESETALL        4102  		   363,F:   RESETBTN        5137  		   364,F:   RESETEND        4115
   365,F:   RESETLOOP       4104  		   366,F:   RESTART         4000  		   367,F:   RESUME          5010  		   368,E:   RET_ADR         0071
   369,E:   RET_ADR2        0072  		   370,E:   ROW_ID          0113  		   371,F:   ROW_STRT        5277  		   372,F:   ROW_STRT2       5300
   373,F:   ROW_STRT3       5301  		   374,F:   R_COLOOP        4607  		   375,F:   R_MATCH         4651  		   376,F:   R_NOMAT         4643
   377,F:   R_NOROW         4664  		   378,F:   R_NXTCOL        4674  		   379,F:   R_ROLOOP        4614  		   380,F:   R_SOMEHR        4636
   381,C:   SAMPTIME     0000013  		   382,F:   SECOND          4116  		   383,F:   SEGCODE         5240  		   384,F:   SEGLOOP         4711
   385,F:   SEG_0           5213  		   386,F:   SEG_1           5214  		   387,F:   SEG_10          5225  		   388,F:   SEG_11          5226
   389,F:   SEG_12          5227  		   390,F:   SEG_13          5230  		   391,F:   SEG_14          5231  		   392,F:   SEG_15          5232
   393,F:   SEG_16          5233  		   394,F:   SEG_17          5234  		   395,F:   SEG_18          5235  		   396,F:   SEG_19          5236
   397,F:   SEG_2           5215  		   398,F:   SEG_20          5237  		   399,F:   SEG_3           5216  		   400,F:   SEG_4           5217
   401,F:   SEG_5           5220  		   402,F:   SEG_6           5221  		   403,F:   SEG_7           5222  		   404,F:   SEG_8           5223
   405,F:   SEG_9           5224  		   406,E:   SEG_OUT         0076  		   407,F:   SETUPMOV        4201  		   408,F:   SKIPLEFT        4763
   409,C:   SR           0000021  		   410,F:   STA_ADD         5260  		   411,F:   STA_DOWN        5254  		   412,F:   STA_INPUT       5253
   413,F:   STA_LEFT        5256  		   414,F:   STA_RIGHT       5257  		   415,F:   STA_UP          5255  		   416,F:   STA_WAIT        5261
   417,F:   STORENEW        4174  		   418,F:   ST_TABLE        4073  		   419,F:   T3RUPT          5005  		   420,E:   TEMPI           0061
   421,E:   TEMPJ           0062  		   422,E:   TEMPK           0063  		   423,F:   TEN             5135  		   424,E:   TIME1           0025
   425,E:   TIME2           0024  		   426,E:   TIME3           0026  		   427,E:   TIME4           0027  		   428,E:   TIME5           0030
   429,E:   TIME6           0031  		   430,F:   TOP1            5243  		   431,F:   TOP23           5244  		   432,F:   TOP45           5245
   433,F:   TWENTY          5141  		   434,F:   TWENTY1         5142  		   435,F:   TWO56           5145  		   436,F:   UPGRADE         4331
   437,F:   U_COLOOP        4375  		   438,F:   U_MATCH         4432  		   439,F:   U_NOCOL         4445  		   440,F:   U_NOSOF         4424
   441,F:   U_NXTRW         4454  		   442,F:   U_ROLOOP        4370  		   443,F:   U_SOMEHR        4417  		   444,E:   VALUES          0124
   445,F:   VERBLR          5241  		   446,F:   WAITKEY         5040  		   447,F:   WAITMORE        5051  		   448,C:   Z            0000005
   449,C:   ZERO         0000007  		   450,C:   ZEROES       0000007  		   451,C:   ZRUPT        0000015

Unresolved symbols:  0
Fatal errors:  0
Warnings:  0
Removing the duplicated lines...

Symbol-table file written.

Bugger word 76635 at 02,3563.
