
Source Code
000001:
000002:    4000                                           SETLOC   4000
000003:
000004:
000005:    4000                        RESTART
000006:    4000           00004                           INHINT                                         #  Turn off interrupts
000007:    4001           35133                           CA       O37774                                #  Schedule the first TIME3 interrupt
000008:    4002           54026                           TS       TIME3
000009:    4003           14054                           TCF      INIT                                  #  Proceed with initialization
000010:
000011: $Vectors.agc                            # Add table of interrupt vectors
000012:
000013:                                                                                                  #  Initialization.
000014:    4054                        INIT
000015:    4054           30007                           CA       ZERO                                  #  Load 0 to A
000016:    4055           54073                           TS       ACTIVE                                #  Set game not started
000017:    4056           54112                           TS       GM_DONE                               #  Set game not completed
000018:
000019:    4057           00006                           EXTEND
000020:    4060           01011                           WRITE    CH11                                  #  Clear any DSKY lights
000021:
000022:
000023:    4061           35130                           CA       NOKEY                                 #  Clear the keypad buffer variable
000024:    4062           54070                           TS       KEYBUF                                #  to initially hold an illegal keycode.
000025:
000026:    4063           04102                           TC       RESETALL                              #  Set all grid items to empty (-1)
000027:    4064           04703                           TC       DISP15                                #  Clear the grid
000028:
000029:    4065           35261                           CA       STA_WAIT                              #  Set game status to wait for any key
000030:    4066           54101                           TS       GM_STATE
000031:
000032:    4067           00003                           RELINT                                         #  Enable interrupts
000033:
000034:    4070                        MAINLOOP
000035:    4070           40067                           CS       NEWJOB                                #  Each loop, nudge hardware watchdog
000036:
000037:
000038:    4071                        CHK_STATE
000039:
000040:    4071           50101                           INDEX    GM_STATE                              #  Index into game state jump table
000041:    4072           14073                           TCF      ST_TABLE                              #  Will jump to appropriate function below based on state
000042:    4073                        ST_TABLE
000043:    4073           15052                           TCF      CHECK_KEY                             #  0
000044:    4074           14215                           TCF      MOVING_DN                             #  1
000045:    4075           14362                           TCF      MOVING_UP                             #  2
000046:    4076           14471                           TCF      MOVING_LT                             #  3
000047:    4077           14601                           TCF      MOVING_RT                             #  4
000048:    4100           14117                           TCF      NEWNUM                                #  5
000049:    4101           15040                           TCF      WAITKEY                               #  6
000050:
000051:
000052:                                                                                                  #  Include the rest of the code modules below
000053:
000054: $Grid.agc
000055: $Down.agc
000056: $Up.agc
000057: $Left.agc
000058: $Right.agc
000059: $Display.agc
000060: $Interrupts.agc
000061: $Input.agc
000062: $Random.agc
000063:
000064: $Constants.agc
000065: $Tables.agc
000066: $Ram.agc
000067:
Usage Table for Fixed-Memory Banks
Bank 00:  0000/2000 words used.
Bank 01:  0000/2000 words used.
Bank 02:  1561/2000 words used.
Bank 03:  0000/2000 words used.
Bank 04:  0000/2000 words used.
Bank 05:  0000/2000 words used.
Bank 06:  0000/2000 words used.
Bank 07:  0000/2000 words used.
Bank 10:  0000/2000 words used.
Bank 11:  0000/2000 words used.
Bank 12:  0000/2000 words used.
Bank 13:  0000/2000 words used.
Bank 14:  0000/2000 words used.
Bank 15:  0000/2000 words used.
Bank 16:  0000/2000 words used.
Bank 17:  0000/2000 words used.
Bank 20:  0000/2000 words used.
Bank 21:  0000/2000 words used.
Bank 22:  0000/2000 words used.
Bank 23:  0000/2000 words used.
Bank 24:  0000/2000 words used.
Bank 25:  0000/2000 words used.
Bank 26:  0000/2000 words used.
Bank 27:  0000/2000 words used.
Bank 30:  0000/2000 words used.
Bank 31:  0000/2000 words used.
Bank 32:  0000/2000 words used.
Bank 33:  0000/2000 words used.
Bank 34:  0000/2000 words used.
Bank 35:  0000/2000 words used.
Bank 36:  0000/2000 words used.
Bank 37:  0000/2000 words used.
Bank 40:  0000/2000 words used.
Bank 41:  0000/2000 words used.
Bank 42:  0000/2000 words used.
Bank 43:  0000/2000 words used.


SymbolTable

000001,E:   $17             0017          000002,E:   $3              0003          000003,E:   $4              0004          000004,E:   $5              0005
000005,E:   $6              0006          000006,E:   $7              0007          000007,C:   A            0000000          000008,E:   ACTIVE          0073
000009,F:   ADD5            4150          000010,F:   ADD6            4145          000011,C:   ARUPT        0000010          000012,C:   BANKRUPT     0000016
000013,C:   BBANK        0000006          000014,F:   BIT15           5131          000015,F:   BIT5            5152          000016,F:   BOT23           5251
000017,F:   BOT45           5252          000018,C:   BRUPT        0000017          000019,E:   BTNMASK         0122          000020,F:   CALCLEFT        4745
000021,F:   CAN_READ        5025          000022,E:   CELLCOL         0111          000023,E:   CELLROW         0110          000024,F:   CELL_MOV        4321
000025,E:   CELL_VALUE      0100          000026,C:   CH10         0000010          000027,C:   CH11         0000011          000028,C:   CH12         0000012
000029,C:   CH13         0000013          000030,C:   CH15         0000015          000031,C:   CH32         0000032          000032,F:   CHECK_KEY       5052
000033,F:   CHKVALID        4152          000034,F:   CHK_ABV         4406          000035,F:   CHK_BEL         4241          000036,E:   CHK_ID          0077
000037,F:   CHK_LFT         4515          000038,F:   CHK_RT          4625          000039,F:   CHK_STATE       4071          000040,E:   CHK_VALUE       0102
000041,F:   CLEARBTN        5136          000042,E:   COL_ID          0114          000043,F:   COL_STRT        5302          000044,F:   COL_STRT2       5303
000045,F:   COL_STRT3       5304          000046,F:   COL_STRT4       5305          000047,F:   COL_STRT5       5306          000048,F:   COMPLETE        4345
000049,E:   COUNTER         0074          000050,E:   CUR_ID          0075          000051,C:   CYL          0000022          000052,C:   CYR          0000020
000053,F:   DEC1            5254          000054,F:   DEC10           5265          000055,F:   DEC11           5266          000056,F:   DEC12           5267
000057,F:   DEC13           5270          000058,F:   DEC14           5271          000059,F:   DEC15           5272          000060,F:   DEC16           5273
000061,F:   DEC17           5274          000062,F:   DEC18           5275          000063,F:   DEC19           5276          000064,F:   DEC2            5255
000065,F:   DEC3            5256          000066,F:   DEC4            5257          000067,F:   DEC5            5260          000068,F:   DEC6            5261
000069,F:   DEC7            5262          000070,F:   DEC8            5263          000071,F:   DEC9            5264          000072,F:   DIDLEFT         4765
000073,F:   DIGITS          5253          000074,E:   DIGIT_L         0117          000075,E:   DIGIT_R         0120          000076,F:   DISP15          4703
000077,F:   DISPNUM         4725          000078,F:   DONE15          4722          000079,E:   DSKY_OUT        0116          000080,F:   DSP0            5154
000081,F:   DSP1            5155          000082,F:   DSP2            5156          000083,F:   DSP3            5157          000084,F:   DSP4            5160
000085,F:   DSP5            5161          000086,F:   DSP6            5162          000087,F:   DSP7            5163          000088,F:   DSP8            5164
000089,F:   DSP9            5165          000090,F:   DSPBLANK        5153          000091,F:   D_COLOOP        4230          000092,F:   D_DONE          4307
000093,F:   D_MATCH         4265          000094,F:   D_NOCOL         4271          000095,F:   D_NOSOF         4257          000096,F:   D_NOWT          4315
000097,F:   D_NXTRW         4300          000098,F:   D_ROLOOP        4223          000099,F:   D_SOMEHR        4252          000100,F:   D_UPDATE        4312
000101,C:   EBANK        0000003          000102,C:   EDOP         0000023          000103,F:   ENDKYCK         5117          000104,E:   END_ID          0115
000105,F:   EXITRUPT        5031          000106,C:   FBANK        0000004          000107,F:   FOURTEEN        5146          000108,F:   GENZERO         4131
000109,E:   GM_DONE         0112          000110,E:   GM_STATE        0101          000111,F:   GRID_C0         5315          000112,F:   GRID_C1         5316
000113,F:   GRID_C10        5327          000114,F:   GRID_C11        5330          000115,F:   GRID_C12        5331          000116,F:   GRID_C13        5332
000117,F:   GRID_C14        5333          000118,F:   GRID_C2         5317          000119,F:   GRID_C3         5320          000120,F:   GRID_C4         5321
000121,F:   GRID_C5         5322          000122,F:   GRID_C6         5323          000123,F:   GRID_C7         5324          000124,F:   GRID_C8         5325
000125,F:   GRID_C9         5326          000126,F:   GRID_CM1        5314          000127,F:   GRID_CM2        5313          000128,F:   GRID_CM3        5312
000129,F:   GRID_CM4        5311          000130,F:   GRID_CM5        5310          000131,F:   GRID_COL        5307          000132,F:   GRID_R0         5342
000133,F:   GRID_R1         5343          000134,F:   GRID_R10        5354          000135,F:   GRID_R11        5355          000136,F:   GRID_R12        5356
000137,F:   GRID_R13        5357          000138,F:   GRID_R14        5360          000139,F:   GRID_R2         5344          000140,F:   GRID_R3         5345
000141,F:   GRID_R4         5346          000142,F:   GRID_R5         5347          000143,F:   GRID_R6         5350          000144,F:   GRID_R7         5351
000145,F:   GRID_R8         5352          000146,F:   GRID_R9         5353          000147,F:   GRID_RM1        5341          000148,F:   GRID_RM2        5340
000149,F:   GRID_RM3        5337          000150,F:   GRID_RM4        5336          000151,F:   GRID_RM5        5335          000152,F:   GRID_ROW        5334
000153,F:   INIT            4054          000154,E:   INPUTBUF        0121          000155,F:   IODELAY         4775          000156,F:   IODELAYT        4774
000157,F:   ISEMPTY         4162          000158,E:   KEYBUF          0070          000159,F:   KEYRUPT1        5014          000160,F:   KEYTABL         5056
000161,C:   L            0000001          000162,F:   LEFTRIGHT       5166          000163,F:   LOW5            5132          000164,F:   LR1             5167
000165,F:   LR10            5200          000166,F:   LR11            5201          000167,F:   LR12            5202          000168,F:   LR13            5203
000169,F:   LR14            5204          000170,F:   LR15            5205          000171,F:   LR16            5206          000172,F:   LR17            5207
000173,F:   LR18            5210          000174,F:   LR19            5211          000175,F:   LR2             5170          000176,F:   LR20            5212
000177,F:   LR3             5171          000178,F:   LR4             5172          000179,F:   LR5             5173          000180,F:   LR6             5174
000181,F:   LR7             5175          000182,F:   LR8             5176          000183,F:   LR9             5177          000184,C:   LRUPT        0000011
000185,F:   L_COLOOP        4477          000186,F:   L_MATCH         4541          000187,F:   L_NOMAT         4533          000188,F:   L_NOROW         4554
000189,F:   L_NXTCOL        4564          000190,F:   L_ROLOOP        4504          000191,F:   L_SOMEHR        4526          000192,F:   MAINLOOP        4070
000193,F:   MAKEONE         4173          000194,F:   MASK128         5143          000195,F:   MASK15          5144          000196,E:   MATCH1          0104
000197,E:   MATCH2          0105          000198,E:   MATCH3          0106          000199,E:   MATCH4          0107          000200,E:   MATCHMD         0103
000201,F:   MID12           5246          000202,F:   MID34           5247          000203,F:   MID5BOT1        5250          000204,F:   MOVE_DOWN       4210
000205,F:   MOVE_LEFT       4464          000206,F:   MOVE_RT         4574          000207,F:   MOVE_UP         4355          000208,F:   MOVING_DN       4215
000209,F:   MOVING_LT       4471          000210,F:   MOVING_RT       4601          000211,F:   MOVING_UP       4362          000212,F:   MOV_DN          4270
000213,F:   MOV_LEFT        4545          000214,F:   MOV_RT          4655          000215,F:   MOV_UP          4436          000216,F:   NEG1            5147
000217,F:   NEG2            5150          000218,F:   NEG5            5151          000219,F:   NEG_ONE         5140          000220,F:   NEWBOX          4133
000221,E:   NEWJOB          0067          000222,F:   NEWNUM          4117          000223,F:   NOKEY           5130          000224,F:   NOTCOMP         4351
000225,F:   NOTEMPTY        4160          000226,F:   NOUNLR          5242          000227,F:   O37774          5133          000228,F:   O37777          5134
000229,F:   OUTPUT          4767          000230,E:   PLAY_ID         0123          000231,C:   Q            0000002          000232,C:   QRUPT        0000012
000233,F:   RAND1           5361          000234,F:   RAND10          5372          000235,F:   RAND100         5524          000236,F:   RAND101         5525
000237,F:   RAND102         5526          000238,F:   RAND103         5527          000239,F:   RAND104         5530          000240,F:   RAND105         5531
000241,F:   RAND106         5532          000242,F:   RAND107         5533          000243,F:   RAND108         5534          000244,F:   RAND109         5535
000245,F:   RAND11          5373          000246,F:   RAND110         5536          000247,F:   RAND111         5537          000248,F:   RAND112         5540
000249,F:   RAND113         5541          000250,F:   RAND114         5542          000251,F:   RAND115         5543          000252,F:   RAND116         5544
000253,F:   RAND117         5545          000254,F:   RAND118         5546          000255,F:   RAND119         5547          000256,F:   RAND12          5374
000257,F:   RAND120         5550          000258,F:   RAND121         5551          000259,F:   RAND122         5552          000260,F:   RAND123         5553
000261,F:   RAND124         5554          000262,F:   RAND125         5555          000263,F:   RAND126         5556          000264,F:   RAND127         5557
000265,F:   RAND128         5560          000266,F:   RAND13          5375          000267,F:   RAND14          5376          000268,F:   RAND15          5377
000269,F:   RAND16          5400          000270,F:   RAND17          5401          000271,F:   RAND18          5402          000272,F:   RAND19          5403
000273,F:   RAND2           5362          000274,F:   RAND20          5404          000275,F:   RAND21          5405          000276,F:   RAND22          5406
000277,F:   RAND23          5407          000278,F:   RAND24          5410          000279,F:   RAND25          5411          000280,F:   RAND26          5412
000281,F:   RAND27          5413          000282,F:   RAND28          5414          000283,F:   RAND29          5415          000284,F:   RAND3           5363
000285,F:   RAND30          5416          000286,F:   RAND31          5417          000287,F:   RAND32          5420          000288,F:   RAND33          5421
000289,F:   RAND34          5422          000290,F:   RAND35          5423          000291,F:   RAND36          5424          000292,F:   RAND37          5425
000293,F:   RAND38          5426          000294,F:   RAND39          5427          000295,F:   RAND4           5364          000296,F:   RAND40          5430
000297,F:   RAND41          5431          000298,F:   RAND42          5432          000299,F:   RAND43          5433          000300,F:   RAND44          5434
000301,F:   RAND45          5435          000302,F:   RAND46          5436          000303,F:   RAND47          5437          000304,F:   RAND48          5440
000305,F:   RAND49          5441          000306,F:   RAND5           5365          000307,F:   RAND50          5442          000308,F:   RAND51          5443
000309,F:   RAND52          5444          000310,F:   RAND53          5445          000311,F:   RAND54          5446          000312,F:   RAND55          5447
000313,F:   RAND56          5450          000314,F:   RAND57          5451          000315,F:   RAND58          5452          000316,F:   RAND59          5453
000317,F:   RAND6           5366          000318,F:   RAND60          5454          000319,F:   RAND61          5455          000320,F:   RAND62          5456
000321,F:   RAND63          5457          000322,F:   RAND64          5460          000323,F:   RAND65          5461          000324,F:   RAND66          5462
000325,F:   RAND67          5463          000326,F:   RAND68          5464          000327,F:   RAND69          5465          000328,F:   RAND7           5367
000329,F:   RAND70          5466          000330,F:   RAND71          5467          000331,F:   RAND72          5470          000332,F:   RAND73          5471
000333,F:   RAND74          5472          000334,F:   RAND75          5473          000335,F:   RAND76          5474          000336,F:   RAND77          5475
000337,F:   RAND78          5476          000338,F:   RAND79          5477          000339,F:   RAND8           5370          000340,F:   RAND80          5500
000341,F:   RAND81          5501          000342,F:   RAND82          5502          000343,F:   RAND83          5503          000344,F:   RAND84          5504
000345,F:   RAND85          5505          000346,F:   RAND86          5506          000347,F:   RAND87          5507          000348,F:   RAND88          5510
000349,F:   RAND89          5511          000350,F:   RAND9           5371          000351,F:   RAND90          5512          000352,F:   RAND91          5513
000353,F:   RAND92          5514          000354,F:   RAND93          5515          000355,F:   RAND94          5516          000356,F:   RAND95          5517
000357,F:   RAND96          5520          000358,F:   RAND97          5521          000359,F:   RAND98          5522          000360,F:   RAND99          5523
000361,F:   RANDOM          5120          000362,F:   RESETALL        4102          000363,F:   RESETBTN        5137          000364,F:   RESETEND        4115
000365,F:   RESETLOOP       4104          000366,F:   RESTART         4000          000367,F:   RESUME          5010          000368,E:   RET_ADR         0071
000369,E:   RET_ADR2        0072          000370,E:   ROW_ID          0113          000371,F:   ROW_STRT        5277          000372,F:   ROW_STRT2       5300
000373,F:   ROW_STRT3       5301          000374,F:   R_COLOOP        4607          000375,F:   R_MATCH         4651          000376,F:   R_NOMAT         4643
000377,F:   R_NOROW         4664          000378,F:   R_NXTCOL        4674          000379,F:   R_ROLOOP        4614          000380,F:   R_SOMEHR        4636
000381,C:   SAMPTIME     0000013          000382,F:   SECOND          4116          000383,F:   SEGCODE         5240          000384,F:   SEGLOOP         4711
000385,F:   SEG_0           5213          000386,F:   SEG_1           5214          000387,F:   SEG_10          5225          000388,F:   SEG_11          5226
000389,F:   SEG_12          5227          000390,F:   SEG_13          5230          000391,F:   SEG_14          5231          000392,F:   SEG_15          5232
000393,F:   SEG_16          5233          000394,F:   SEG_17          5234          000395,F:   SEG_18          5235          000396,F:   SEG_19          5236
000397,F:   SEG_2           5215          000398,F:   SEG_20          5237          000399,F:   SEG_3           5216          000400,F:   SEG_4           5217
000401,F:   SEG_5           5220          000402,F:   SEG_6           5221          000403,F:   SEG_7           5222          000404,F:   SEG_8           5223
000405,F:   SEG_9           5224          000406,E:   SEG_OUT         0076          000407,F:   SETUPMOV        4201          000408,F:   SKIPLEFT        4763
000409,C:   SR           0000021          000410,F:   STA_ADD         5260          000411,F:   STA_DOWN        5254          000412,F:   STA_INPUT       5253
000413,F:   STA_LEFT        5256          000414,F:   STA_RIGHT       5257          000415,F:   STA_UP          5255          000416,F:   STA_WAIT        5261
000417,F:   STORENEW        4174          000418,F:   ST_TABLE        4073          000419,F:   T3RUPT          5005          000420,E:   TEMPI           0061
000421,E:   TEMPJ           0062          000422,E:   TEMPK           0063          000423,F:   TEN             5135          000424,E:   TIME1           0025
000425,E:   TIME2           0024          000426,E:   TIME3           0026          000427,E:   TIME4           0027          000428,E:   TIME5           0030
000429,E:   TIME6           0031          000430,F:   TOP1            5243          000431,F:   TOP23           5244          000432,F:   TOP45           5245
000433,F:   TWENTY          5141          000434,F:   TWENTY1         5142          000435,F:   TWO56           5145          000436,F:   UPGRADE         4331
000437,F:   U_COLOOP        4375          000438,F:   U_MATCH         4432          000439,F:   U_NOCOL         4445          000440,F:   U_NOSOF         4424
000441,F:   U_NXTRW         4454          000442,F:   U_ROLOOP        4370          000443,F:   U_SOMEHR        4417          000444,E:   VALUES          0124
000445,F:   VERBLR          5241          000446,F:   WAITKEY         5040          000447,F:   WAITMORE        5051          000448,C:   Z            0000005
000449,C:   ZERO         0000007          000450,C:   ZEROES       0000007          000451,C:   ZRUPT        0000015


Assembly Status

Unresolved symbols:  0
Fatal errors:  0
Warnings:  0


Bugger Words

Bugger word 76635 at 02,3563.


