Apollo Guidance Computer (AGC) assembler, version 2017-04-17, built Apr 17 2017, target AGC4
(c)2003-2005,2009-2010,2016 Ronald S. Burkey
Refer to http://www.ibiblio.org/apollo/index.html for more information.
Pass #1
Pass #2
Pass #3
000001:
000002:    4000                                           SETLOC   4000                          	#
000003:
000004:
000005:    4000                        RESTART                                                   	#
000006:    4000           00004                           INHINT                                 	# Turn off interrupts
000007:    4001           35153                           CA       O37774                        	# Schedule the first TIME3 interrupt
000008:    4002           54026                           TS       TIME3                         	#
000009:    4003           14054                           TCF      INIT                          	# Proceed with initialization
000010:
000011: $Vectors.agc                            # Add table of interrupt vectors
000001:
000002:                                                                                          	# We begin with an interrupt vector table. There are 10 possible interrupts,
000003:                                                                                          	# plus the restart vector which comes first.
000004:
000005:
000006:
000007:    4004           50017                           RESUME                                 	# T6RUPT
000008:    4005           14006                           NOOP                                   	#
000009:    4006           14007                           NOOP                                   	#
000010:    4007           14010                           NOOP                                   	#
000011:
000012:    4010           50017                           RESUME                                 	# T5RUPT
000013:    4011           14012                           NOOP                                   	#
000014:    4012           14013                           NOOP                                   	#
000015:    4013           14014                           NOOP                                   	#
000016:
000017:    4014           52011                           DXCH     ARUPT                         	# T3RUPT
000018:    4015           00006                           EXTEND                                 	# Back up A, L, and Q
000019:    4016           22012                           QXCH     QRUPT                         	#
000020:    4017           15025                           TCF      T3RUPT                        	# Transfer to the T3RUPT handler
000021:
000022:    4020           50017                           RESUME                                 	# T4RUPT
000023:    4021           14022                           NOOP                                   	#
000024:    4022           14023                           NOOP                                   	#
000025:    4023           14024                           NOOP                                   	#
000026:
000027:    4024           52011                           DXCH     ARUPT                         	# KEYRUPT1, fired whenever a key is pressed
000028:    4025           00006                           EXTEND                                 	#
000029:    4026           22012                           QXCH     QRUPT                         	#
000030:    4027           15034                           TCF      KEYRUPT1                      	#
000031:
000032:    4030           50017                           RESUME                                 	# KEYRUPT2
000033:    4031           14032                           NOOP                                   	#
000034:    4032           14033                           NOOP                                   	#
000035:    4033           14034                           NOOP                                   	#
000036:
000037:    4034           50017                           RESUME                                 	# UPRUPT
000038:    4035           14036                           NOOP                                   	#
000039:    4036           14037                           NOOP                                   	#
000040:    4037           14040                           NOOP                                   	#
000041:
000042:    4040           50017                           RESUME                                 	# DOWNRUPT
000043:    4041           14042                           NOOP                                   	#
000044:    4042           14043                           NOOP                                   	#
000045:    4043           14044                           NOOP                                   	#
000046:
000047:    4044           50017                           RESUME                                 	# RADAR RUPT
000048:    4045           14046                           NOOP                                   	#
000049:    4046           14047                           NOOP                                   	#
000050:    4047           14050                           NOOP                                   	#
000051:
000052:    4050           50017                           RESUME                                 	# RUPT10
000053:    4051           14052                           NOOP                                   	#
000054:    4052           14053                           NOOP                                   	#
000055:    4053           14054                           NOOP                                   	#
000056:
(End of include-file Vectors.agc, resuming Main.agc)
000012:
000013:                                                                                          	# Initialization.
000014:    4054                        INIT                                                      	#
000015:    4054           30007                           CA       ZERO                          	# Load 0 to A
000016:    4055           54073                           TS       ACTIVE                        	# Set game not started
000017:    4056           54112                           TS       GM_DONE                       	# Set game not completed
000018:
000019:    4057           00006                           EXTEND                                 	#
000020:    4060           01011                           WRITE    CH11                          	# Clear any DSKY lights
000021:
000022:
000023:    4061           35150                           CA       NOKEY                         	# Clear the keypad buffer variable
000024:    4062           54070                           TS       KEYBUF                        	# to initially hold an illegal keycode.
000025:
000026:    4063           04102                           TC       RESETALL                      	# Set all grid items to empty (-1)
000027:    4064           04723                           TC       DISP15                        	# Clear the grid
000028:
000029:    4065           35301                           CA       STA_WAIT                      	# Set game status to wait for any key
000030:    4066           54101                           TS       GM_STATE                      	#
000031:
000032:    4067           00003                           RELINT                                 	# Enable interrupts
000033:
000034:    4070                        MAINLOOP                                                  	#
000035:    4070           40067                           CS       NEWJOB                        	# Each loop, nudge hardware watchdog
000036:
000037:
000038:    4071                        CHK_STATE                                                  	#
000039:
000040:    4071           50101                           INDEX    GM_STATE                      	# Index into game state jump table
000041:    4072           14073                           TCF      ST_TABLE                      	# Will jump to appropriate function below based on state
000042:    4073                        ST_TABLE                                                  	#
000043:    4073           15072                           TCF      CHECK_KEY                     	# 0
000044:    4074           14234                           TCF      MOVING_DN                     	# 1
000045:    4075           14402                           TCF      MOVING_UP                     	# 2
000046:    4076           14511                           TCF      MOVING_LT                     	# 3
000047:    4077           14621                           TCF      MOVING_RT                     	# 4
000048:    4100           14117                           TCF      NEWNUM                        	# 5
000049:    4101           15060                           TCF      WAITKEY                       	# 6
000050:
000051:
000052:                                                                                          	# Include the rest of the code modules below
000053:
000054: $Grid.agc
000001:
000002:    4102                        RESETALL                                                  	#
000003:
000004:    4102           35162                           CA       TWENTY1                       	# Set loop counter to 21
000005:    4103           54075                           TS       CUR_ID                        	#
000006:    4104                        RESETLOOP                                                  	#
000007:
000008:    4104           00006                           EXTEND                                 	#
000009:    4105           26075                           DIM      CUR_ID                        	# Decrement id so we start at 20, end at 0
000010:    4106           35160                           CA       NEG_ONE                       	# Load -1 to A (empty cell)
000011:    4107           50075                           INDEX    CUR_ID                        	# Index by current loop count
000012:    4110           54124                           TS       VALUES                        	# Save -1 to empty this grid cell
000013:
000014:    4111           30075                           CA       CUR_ID                        	# Load loop counter
000015:    4112           00006                           EXTEND                                 	#
000016:    4113           14115                           BZF      RESETEND                      	# If zero, we've cleared all of VALUES array
000017:
000018:    4114           14104                           TCF      RESETLOOP                     	# Not zero, loop back for next cell
000019:
000020:
000021:    4115                        RESETEND                                                  	#
000022:    4115           00002                           RETURN                                 	# Return to Init
000023:
000024:
000025:    4116                        SECOND                                                    	#
000026:
000027:    4116           24073                           INCR     ACTIVE                        	# Set game to active now two cells will be populated
000028:    4117                        NEWNUM                                                    	#
000029:
000030:    4117           05015                           TC       IODELAY                       	# Delay a bit before generating the number
000031:    4120           04131                           TC       GENZERO                       	# Call function to generate a 0 or 1 in empty cell
000032:    4121           04723                           TC       DISP15                        	# Call function Display the new grid state
000033:
000034:    4122           30073                           CA       ACTIVE                        	# Load whether game is active
000035:    4123           00006                           EXTEND                                 	#
000036:    4124           14116                           BZF      SECOND                        	# If not, generate another new number
000037:
000038:    4125           05015                           TC       IODELAY                       	# Delay before returning control to player
000039:
000040:    4126           35273                           CA       STA_INPUT                     	# Change game state to player control
000041:    4127           54101                           TS       GM_STATE                      	#
000042:
000043:    4130           14070                           TCF      MAINLOOP                      	# Return to start of game loop
000044:
000045:
000046:
000047:    4131                        GENZERO                                                   	# Generate a 0 or 1 in an empty grid cell
000048:    4131           00006                           EXTEND                                 	#
000049:    4132           22072                           QXCH     RET_ADR2                      	# Save the return address of the calling function
000050:
000051:    4133                        CHECKEMP                                                  	# Check whether all grid spaces taken
000052:    4133           35162                           CA       TWENTY1                       	# Load 21 into A for loop counter
000053:    4134           54075                           TS       CUR_ID                        	# Store into loop counter
000054:    4135                        CHKLOOP                                                   	#
000055:
000056:    4135           00006                           EXTEND                                 	#
000057:    4136           26075                           DIM      CUR_ID                        	# Decrement id so we start at 20, end at 0
000058:
000059:    4137           50075                           INDEX    CUR_ID                        	# Index by current loop count
000060:    4140           30124                           CA       VALUES                        	# Get this grid cell
000061:    4141           65274                           AD       DEC1                          	# Add 1, if empty (-1) will be 0
000062:    4142           00006                           EXTEND                                 	#
000063:    4143           14152                           BZF      NEWBOX                        	# When found first empty cell, start process to find random one
000064:
000065:    4144           35301                           CA       DEC6                          	# Load 6 into accumulator
000066:    4145           00006                           EXTEND                                 	#
000067:    4146           60075                           SU       CUR_ID                        	# Subtract id. If 6, is first ID of game grid.
000068:    4147           00006                           EXTEND                                 	#
000069:    4150           14215                           BZF      EXITGEN                       	# If zero, all cells are occupied, don't bother
000070:
000071:    4151           14135                           TCF      CHKLOOP                       	#
000072:
000073:
000074:    4152                        NEWBOX                                                    	#
000075:
000076:    4152           35164                           CA       MASK15                        	# Load a mask to keep only the bottom 4 bits
000077:    4153           54061                           TS       TEMPI                         	# Store into temp variable
000078:
000079:    4154           05140                           TC       RANDOM                        	# Get a random number (and discard)
000080:    4155           30074                           CA       COUNTER                       	# Load the random number counter (0-127)
000081:    4156           75164                           MASK     MASK15                        	# Mask it down to 0-15
000082:    4157           54123                           TS       PLAY_ID                       	# Store it as the grid cell to try and add to
000083:    4160           00006                           EXTEND                                 	#
000084:    4161           60061                           SU       TEMPI                         	# Subtract 15 from this cell number
000085:    4162           00006                           EXTEND                                 	#
000086:    4163           14167                           BZF      ADD5                          	# If is 0, we have cell 16 and there only 15.
000087:
000088:    4164                        ADD6                                                      	# Is not 0, we can safely add grid offset of 6
000089:
000090:    4164           30123                           CA       PLAY_ID                       	# Load the number we know is from 0-14
000091:    4165           65301                           AD       DEC6                          	# Add 6 to get the first display segment in the grid
000092:
000093:    4166           14171                           TCF      CHKVALID                      	# Now check whether this grid cell is empty
000094:
000095:    4167                        ADD5                                                      	#
000096:    4167           30123                           CA       PLAY_ID                       	# We know the number is 15
000097:    4170           65300                           AD       DEC5                          	# So only add 5 so we still get a valid cell
000098:
000099:    4171                        CHKVALID                                                  	#
000100:
000101:    4171           54123                           TS       PLAY_ID                       	# Store the cell id to check is empty
000102:    4172           50123                           INDEX    PLAY_ID                       	# Index by the cell id
000103:    4173           30124                           CA       VALUES                        	# Get the value held for cell in VALUES array
000104:    4174           65274                           AD       DEC1                          	# Add one, if it was empty (-1) it's now zero'
000105:    4175           00006                           EXTEND                                 	#
000106:    4176           14201                           BZF      ISEMPTY                       	# If empty, we can use this cell for new number
000107:
000108:    4177                        NOTEMPTY                                                  	#
000109:
000110:    4177           54067                           TS       NEWJOB                        	# Nudge watchdog in case it takes a while to find cell
000111:    4200           14152                           TCF      NEWBOX                        	# We can't use this cell, try again
000112:
000113:    4201                        ISEMPTY                                                   	#
000114:
000115:    4201           05140                           TC       RANDOM                        	# Get a random number from 0-9
000116:    4202           54061                           TS       TEMPI                         	# Save to temp variable
000117:    4203           35277                           CA       DEC4                          	# Load 4 into A
000118:    4204           00006                           EXTEND                                 	#
000119:    4205           60061                           SU       TEMPI                         	# Subtract 0-9 from 5
000120:    4206           00006                           EXTEND                                 	#
000121:    4207           64212                           BZMF     MAKEONE                       	# if zero or negative, make cell = 1
000122:
000123:    4210           30007                           CA       ZERO                          	# is >0, make cell = 0
000124:    4211           14213                           TCF      STORENEW                      	#
000125:
000126:    4212                        MAKEONE                                                   	#
000127:    4212           35274                           CA       DEC1                          	# Load 1 into A
000128:
000129:    4213                        STORENEW                                                  	#
000130:
000131:    4213           50123                           INDEX    PLAY_ID                       	# Index by chosen cell ID
000132:    4214           54124                           TS       VALUES                        	# Store 0-1 into values array by index
000133:
000134:    4215                        EXITGEN                                                   	#
000135:    4215           00006                           EXTEND                                 	#
000136:    4216           22072                           QXCH     RET_ADR2                      	# Restore return address of calling func
000137:
000138:    4217           00002                           RETURN                                 	# Return to NEWNUM
(End of include-file Grid.agc, resuming Main.agc)
000055: $Down.agc
000001:    4220                        SETUPMOV                                                  	#
000002:
000003:    4220           30007                           CA       ZERO                          	# Load 0 into A
000004:    4221           54103                           TS       MATCHMD                       	# Clear array of 5 that indicates whether two numbers
000005:    4222           54104                           TS       MATCH1                        	# have already been combined for the given row/col
000006:    4223           54105                           TS       MATCH2                        	#
000007:    4224           54106                           TS       MATCH3                        	# Otherwise moving left on a row of 0-0-1 would end as 2-x-x.
000008:    4225           54107                           TS       MATCH4                        	# When it should be 1-1-x.
000009:
000010:    4226           00002                           RETURN                                 	#
000011:
000012:    4227                        MOVE_DOWN                                                  	# The down key (8) has been pressed
000013:
000014:    4227           04220                           TC       SETUPMOV                      	# Setup a table and check if can proceed - may never return!
000015:    4230           30112                           CA       GM_DONE                       	# Load game complete status into A
000016:    4231           00006                           EXTEND                                 	#
000017:    4232           14234                           BZF      MOVING_DN                     	# Flag is zero, not complete yet
000018:
000019:    4233           14070                           TCF      MAINLOOP                      	#
000020:
000021:    4234                        MOVING_DN                                                  	# Once in a state of 'sta_down', come here each 'frame'
000022:                                                                                          	# until no more cells can move down
000023:
000024:    4234           35274                           CA       STA_DOWN                      	# Load the game status of 'moving down'
000025:    4235           54101                           TS       GM_STATE                      	# Save as game state
000026:
000027:    4236           30007                           CA       ZERO                          	# Load 0 into A
000028:    4237           54123                           TS       PLAY_ID                       	# Reset number of cells moved this iteration.
000029:
000030:    4240           35274                           CA       DEC1                          	# Start from middle row, checking below to see if we can move into it.
000031:    4241           54113                           TS       ROW_ID                        	# Store 1 into ROW_ID
000032:
000033:    4242                        D_ROLOOP                                                  	# Loop through rows, checking each column to see if number can move down
000034:
000035:    4242           50113                           INDEX    ROW_ID                        	# Index by the row_id
000036:    4243           35317                           CA       ROW_STRT                      	# Get the first cell id in this row
000037:    4244           54075                           TS       CUR_ID                        	# Store this as current id
000038:    4245           65300                           AD       DEC5                          	# Add 5
000039:    4246           54115                           TS       END_ID                        	# Store cur_id + 5 to know when to stop processing row
000040:
000041:    4247                        D_COLOOP                                                  	# Loop through each cell on a row
000042:
000043:
000044:    4247           50075                           INDEX    CUR_ID                        	# Index by the current cell id
000045:    4250           35327                           CA       GRID_COL                      	# Get the column this cell belongs to
000046:    4251           54111                           TS       CELLCOL                       	# And save value to ram for later
000047:
000048:    4252           50075                           INDEX    CUR_ID                        	# Index by the current cell id again
000049:    4253           30124                           CA       VALUES                        	# Get the value in this cell
000050:    4254           54100                           TS       CELL_VALUE                    	# Save cell value
000051:    4255           65274                           AD       DEC1                          	# Add 1. If empty (-1), this is now 0.
000052:    4256           00006                           EXTEND                                 	#
000053:    4257           14311                           BZF      D_NOCOL                       	# If empty, don't bother checking cell below
000054:
000055:
000056:    4260                        CHK_BEL                                                   	# This cell has a number, check below
000057:
000058:    4260           30075                           CA       CUR_ID                        	# Load the current cell id
000059:    4261           65300                           AD       DEC5                          	# Add 5 (number of columns) to get cell below
000060:    4262           54077                           TS       CHK_ID                        	# Store cell check id
000061:
000062:    4263           50077                           INDEX    CHK_ID                        	# Index using the cell below's id
000063:    4264           30124                           CA       VALUES                        	# Get the value in the cell below
000064:    4265           54102                           TS       CHK_VALUE                     	# Store the cell below's value
000065:    4266           65274                           AD       DEC1                          	# Add 1. If empty (-1), this is now 0.
000066:    4267           00006                           EXTEND                                 	#
000067:    4270           14310                           BZF      MOV_DN                        	# If cell below empty, we can move straight into it.
000068:
000069:    4271                        D_SOMEHR                                                  	# There's a number below. Check what it is.
000070:
000071:    4271           50111                           INDEX    CELLCOL                       	# Index by the column our cell is in
000072:    4272           30103                           CA       MATCHMD                       	# Get whether we already combined cells in this column
000073:    4273           00006                           EXTEND                                 	#
000074:    4274           14276                           BZF      D_NOSOF                       	# If 0, we didn't already combine so we can check for match
000075:
000076:    4275           14311                           TCF      D_NOCOL                       	# We already combined so we don't want to try and combine again
000077:
000078:    4276                        D_NOSOF                                                   	#
000079:
000080:    4276           30100                           CA       CELL_VALUE                    	# Load the value in original cell
000081:    4277           00006                           EXTEND                                 	#
000082:    4300           60102                           SU       CHK_VALUE                     	# Subtract the value in cell below
000083:    4301           00006                           EXTEND                                 	#
000084:    4302           14304                           BZF      D_MATCH                       	# If zero, they are the same. Combine them.
000085:
000086:    4303           14311                           TCF      D_NOCOL                       	# Not the same, can't move as way is blocked
000087:
000088:    4304                        D_MATCH                                                   	#
000089:
000090:    4304           50111                           INDEX    CELLCOL                       	# Index by the column these cells are in
000091:    4305           24103                           INCR     MATCHMD                       	# Set flag that we have already matched on this column
000092:
000093:    4306           04351                           TC       UPGRADE                       	# Increase target cell, empty orig cell
000094:
000095:    4307           14311                           TCF      D_NOCOL                       	# Move along to next column
000096:    4310                        MOV_DN                                                    	#
000097:
000098:    4310           04341                           TC       CELL_MOV                      	# Move cell value to new cell, empty orig cell
000099:
000100:    4311                        D_NOCOL                                                   	# End of processing for this column
000101:
000102:    4311           24075                           INCR     CUR_ID                        	# Move cell id to next column
000103:    4312           30075                           CA       CUR_ID                        	# Load id into A
000104:    4313           00006                           EXTEND                                 	#
000105:    4314           60115                           SU       END_ID                        	# Subtract id of first cell in row below
000106:    4315           00006                           EXTEND                                 	#
000107:    4316           14320                           BZF      D_NXTRW                       	# If zero, we have no more columns, goto next row
000108:
000109:    4317           14247                           TCF      D_COLOOP                      	# More columns to process, loop back up
000110:
000111:    4320                        D_NXTRW                                                   	#
000112:
000113:    4320           54067                           TS       NEWJOB                        	# Nudge watchdog as this processing might take a while
000114:    4321           30113                           CA       ROW_ID                        	# Load the row id
000115:    4322           00006                           EXTEND                                 	#
000116:
000117:    4323           14327                           BZF      D_DONE                        	# If row id is zero, we've done all rows now
000118:
000119:    4324           00006                           EXTEND                                 	#
000120:    4325           26113                           DIM      ROW_ID                        	# Not last row, move up into next row
000121:
000122:    4326           14242                           TCF      D_ROLOOP                      	# Process the next row
000123:
000124:    4327                        D_DONE                                                    	#
000125:
000126:    4327           30123                           CA       PLAY_ID                       	# Did we move anything in this iteration?
000127:    4330           00006                           EXTEND                                 	#
000128:    4331           14335                           BZF      D_NOWT                        	# If 0 we did not so return control to player
000129:
000130:    4332                        D_UPDATE                                                  	#
000131:
000132:    4332           04723                           TC       DISP15                        	# We moved something, update display
000133:    4333           05015                           TC       IODELAY                       	# Delay a bit so numbers don't move instantly from one end to other
000134:    4334           14070                           TCF      MAINLOOP                      	# Return to main loop to see if anything still to move
000135:
000136:    4335                        D_NOWT                                                    	#
000137:    4335           35300                           CA       STA_ADD                       	# All movement handled, now add new number to grid
000138:    4336           54101                           TS       GM_STATE                      	# Save to game state, we'll do in next main loop
000139:
000140:    4337           05015                           TC       IODELAY                       	# A little delay before adding so it's obvious where it went
000141:
000142:    4340           14070                           TCF      MAINLOOP                      	# Return to main loop which will add a new number next time
000143:
000144:
000145:    4341                        CELL_MOV                                                  	#
000146:
000147:    4341           24123                           INCR     PLAY_ID                       	# We are moving a number into empty space. Inc move counter.
000148:
000149:    4342           30100                           CA       CELL_VALUE                    	# Load the value in cell that's moving
000150:    4343           50077                           INDEX    CHK_ID                        	# Index by cell below id
000151:    4344           54124                           TS       VALUES                        	# Set cell below to value of original cell
000152:
000153:    4345           35160                           CA       NEG_ONE                       	# Load -1 to A (empty)
000154:    4346           50075                           INDEX    CUR_ID                        	# Index by original cell id
000155:    4347           54124                           TS       VALUES                        	# Set original cell to now be empty
000156:
000157:    4350           00002                           RETURN                                 	#
000158:
000159:    4351                        UPGRADE                                                   	#
000160:
000161:
000162:    4351           24123                           INCR     PLAY_ID                       	#
000163:                                                                                          	# Increase counter as something is going to move
000164:
000165:    4352           30100                           CA       CELL_VALUE                    	# Load value in original cell
000166:    4353           65274                           AD       DEC1                          	# Add 1 because we are combining
000167:    4354           50077                           INDEX    CHK_ID                        	# Index using cell below id
000168:    4355           54124                           TS       VALUES                        	# Set cell below to be +1
000169:    4356           54061                           TS       TEMPI                         	# Save to temp var, we need to check if it's 9
000170:
000171:    4357           35304                           CA       DEC9                          	# Load 9 into A
000172:    4360           00006                           EXTEND                                 	#
000173:    4361           60061                           SU       TEMPI                         	# Subtract the value of combined cell
000174:    4362           00006                           EXTEND                                 	#
000175:    4363           14365                           BZF      COMPLETE                      	# If zero, we must have made a 9, game complete
000176:
000177:    4364           14371                           TCF      NOTCOMP                       	# If zero, we must have made a 9, game complete
000178:
000179:
000180:    4365                        COMPLETE                                                  	#
000181:
000182:    4365           35172                           CA       BIT5                          	# Load value where bit 5 = 1, rest 0 (key rel flash)
000183:    4366           00006                           EXTEND                                 	#
000184:    4367           01011                           WRITE    CH11                          	# Output to DSKY lights IO channel
000185:    4370           24112                           INCR     GM_DONE                       	# Set done flag so we don't allow further play'
000186:
000187:    4371                        NOTCOMP                                                   	#
000188:
000189:
000190:    4371           35160                           CA       NEG_ONE                       	# Load -1 to A (empty)
000191:    4372           50075                           INDEX    CUR_ID                        	# Index by original cell id
000192:    4373           54124                           TS       VALUES                        	# Set original cell to now be empty
000193:
000194:
000195:
000196:    4374           00002                           RETURN                                 	#
000197:
(End of include-file Down.agc, resuming Main.agc)
000056: $Up.agc
000001:                                                                                          	# See Down.agc for detailed explanation of how the code
000002:                                                                                          	# to move and combine numbers works. The only differences between them
000003:                                                                                          	# is to reverse directions and/or swap rows for columns (if horizontal)
000004:
000005:    4375                        MOVE_UP                                                   	#
000006:
000007:    4375           04220                           TC       SETUPMOV                      	# Setup a table and check if can proceed - may never return!
000008:    4376           30112                           CA       GM_DONE                       	# Load game complete status into A
000009:    4377           00006                           EXTEND                                 	#
000010:    4400           14402                           BZF      MOVING_UP                     	# Flag is zero, not complete yet
000011:
000012:    4401           14070                           TCF      MAINLOOP                      	#
000013:
000014:    4402                        MOVING_UP                                                  	#
000015:
000016:    4402           35275                           CA       STA_UP                        	#
000017:    4403           54101                           TS       GM_STATE                      	#
000018:
000019:    4404           30007                           CA       ZERO                          	#
000020:    4405           54123                           TS       PLAY_ID                       	#
000021:
000022:    4406           35274                           CA       DEC1                          	#
000023:    4407           54113                           TS       ROW_ID                        	#
000024:
000025:    4410                        U_ROLOOP                                                  	#
000026:
000027:    4410           50113                           INDEX    ROW_ID                        	#
000028:    4411           35317                           CA       ROW_STRT                      	#
000029:    4412           54075                           TS       CUR_ID                        	#
000030:    4413           65300                           AD       DEC5                          	#
000031:    4414           54115                           TS       END_ID                        	#
000032:
000033:    4415                        U_COLOOP                                                  	#
000034:
000035:    4415           50075                           INDEX    CUR_ID                        	#
000036:    4416           35327                           CA       GRID_COL                      	#
000037:    4417           54111                           TS       CELLCOL                       	#
000038:
000039:    4420           50075                           INDEX    CUR_ID                        	#
000040:    4421           30124                           CA       VALUES                        	#
000041:    4422           54100                           TS       CELL_VALUE                    	#
000042:    4423           65274                           AD       DEC1                          	#
000043:    4424           00006                           EXTEND                                 	#
000044:    4425           14465                           BZF      U_NOCOL                       	#
000045:
000046:
000047:    4426                        CHK_ABV                                                   	#
000048:
000049:    4426           30075                           CA       CUR_ID                        	#
000050:    4427           65171                           AD       NEG5                          	#
000051:    4430           54077                           TS       CHK_ID                        	#
000052:
000053:    4431           50077                           INDEX    CHK_ID                        	#
000054:    4432           30124                           CA       VALUES                        	#
000055:    4433           54102                           TS       CHK_VALUE                     	#
000056:    4434           65274                           AD       DEC1                          	#
000057:    4435           00006                           EXTEND                                 	#
000058:    4436           14456                           BZF      MOV_UP                        	#
000059:
000060:    4437                        U_SOMEHR                                                  	#
000061:
000062:    4437           50111                           INDEX    CELLCOL                       	#
000063:    4440           30103                           CA       MATCHMD                       	#
000064:    4441           00006                           EXTEND                                 	#
000065:    4442           14444                           BZF      U_NOSOF                       	#
000066:
000067:    4443           14465                           TCF      U_NOCOL                       	#
000068:
000069:    4444                        U_NOSOF                                                   	#
000070:
000071:    4444           30100                           CA       CELL_VALUE                    	#
000072:    4445           00006                           EXTEND                                 	#
000073:    4446           60102                           SU       CHK_VALUE                     	#
000074:    4447           00006                           EXTEND                                 	#
000075:    4450           14452                           BZF      U_MATCH                       	#
000076:
000077:    4451           14465                           TCF      U_NOCOL                       	#
000078:
000079:    4452                        U_MATCH                                                   	#
000080:
000081:    4452           50111                           INDEX    CELLCOL                       	#
000082:    4453           24103                           INCR     MATCHMD                       	# Set flag that we have combined in this column
000083:
000084:    4454           04351                           TC       UPGRADE                       	# Increase target cell, empty orig cell
000085:
000086:    4455           14465                           TCF      U_NOCOL                       	#
000087:    4456                        MOV_UP                                                    	#
000088:
000089:    4456           24123                           INCR     PLAY_ID                       	#
000090:
000091:    4457           30100                           CA       CELL_VALUE                    	#
000092:    4460           50077                           INDEX    CHK_ID                        	#
000093:    4461           54124                           TS       VALUES                        	#
000094:
000095:    4462           35160                           CA       NEG_ONE                       	#
000096:    4463           50075                           INDEX    CUR_ID                        	#
000097:    4464           54124                           TS       VALUES                        	#
000098:
000099:    4465                        U_NOCOL                                                   	#
000100:
000101:    4465           24075                           INCR     CUR_ID                        	#
000102:    4466           30075                           CA       CUR_ID                        	#
000103:    4467           00006                           EXTEND                                 	#
000104:    4470           60115                           SU       END_ID                        	#
000105:    4471           00006                           EXTEND                                 	#
000106:    4472           14474                           BZF      U_NXTRW                       	#
000107:
000108:    4473           14415                           TCF      U_COLOOP                      	#
000109:
000110:    4474                        U_NXTRW                                                   	#
000111:
000112:    4474           54067                           TS       NEWJOB                        	#
000113:
000114:    4475           35275                           CA       DEC2                          	#
000115:    4476           00006                           EXTEND                                 	#
000116:    4477           60113                           SU       ROW_ID                        	#
000117:    4500           00006                           EXTEND                                 	#
000118:    4501           14327                           BZF      D_DONE                        	#
000119:
000120:
000121:    4502           24113                           INCR     ROW_ID                        	#
000122:
000123:    4503           14410                           TCF      U_ROLOOP                      	#
000124:
(End of include-file Up.agc, resuming Main.agc)
000057: $Left.agc
000001:                                                                                          	# See Down.agc for detailed explanation of how the code
000002:                                                                                          	# to move and combine numbers works. The only differences between them
000003:                                                                                          	# is to reverse directions and/or swap rows for columns (if horizontal)
000004:
000005:    4504                        MOVE_LEFT                                                  	#
000006:
000007:    4504           04220                           TC       SETUPMOV                      	# Setup a table and check if can proceed - may never return!
000008:    4505           30112                           CA       GM_DONE                       	# Load game complete status into A
000009:    4506           00006                           EXTEND                                 	#
000010:    4507           14511                           BZF      MOVING_LT                     	# Flag is zero, not complete yet
000011:
000012:    4510           14070                           TCF      MAINLOOP                      	#
000013:
000014:
000015:    4511                        MOVING_LT                                                  	#
000016:
000017:    4511           35276                           CA       STA_LEFT                      	#
000018:    4512           54101                           TS       GM_STATE                      	#
000019:
000020:    4513           30007                           CA       ZERO                          	#
000021:    4514           54123                           TS       PLAY_ID                       	#
000022:
000023:    4515           35274                           CA       DEC1                          	#
000024:    4516           54114                           TS       COL_ID                        	#
000025:
000026:    4517                        L_COLOOP                                                  	#
000027:
000028:    4517           50114                           INDEX    COL_ID                        	#
000029:    4520           35322                           CA       COL_STRT                      	#
000030:    4521           54075                           TS       CUR_ID                        	#
000031:    4522           65312                           AD       DEC15                         	#
000032:    4523           54115                           TS       END_ID                        	#
000033:
000034:    4524                        L_ROLOOP                                                  	#
000035:
000036:    4524           50075                           INDEX    CUR_ID                        	#
000037:    4525           35354                           CA       GRID_ROW                      	#
000038:    4526           54110                           TS       CELLROW                       	#
000039:
000040:    4527           50075                           INDEX    CUR_ID                        	#
000041:    4530           30124                           CA       VALUES                        	#
000042:    4531           54100                           TS       CELL_VALUE                    	#
000043:    4532           65274                           AD       DEC1                          	#
000044:    4533           00006                           EXTEND                                 	#
000045:    4534           14574                           BZF      L_NOROW                       	#
000046:
000047:
000048:    4535                        CHK_LFT                                                   	#
000049:
000050:    4535           30075                           CA       CUR_ID                        	#
000051:    4536           65167                           AD       NEG1                          	#
000052:    4537           54077                           TS       CHK_ID                        	#
000053:
000054:    4540           50077                           INDEX    CHK_ID                        	#
000055:    4541           30124                           CA       VALUES                        	#
000056:    4542           54102                           TS       CHK_VALUE                     	#
000057:    4543           65274                           AD       DEC1                          	#
000058:    4544           00006                           EXTEND                                 	#
000059:    4545           14565                           BZF      MOV_LEFT                      	#
000060:
000061:    4546                        L_SOMEHR                                                  	#
000062:
000063:    4546           50110                           INDEX    CELLROW                       	#
000064:    4547           30103                           CA       MATCHMD                       	#
000065:    4550           00006                           EXTEND                                 	#
000066:    4551           14553                           BZF      L_NOMAT                       	#
000067:
000068:    4552           14574                           TCF      L_NOROW                       	#
000069:
000070:    4553                        L_NOMAT                                                   	#
000071:
000072:    4553           30100                           CA       CELL_VALUE                    	#
000073:    4554           00006                           EXTEND                                 	#
000074:    4555           60102                           SU       CHK_VALUE                     	#
000075:    4556           00006                           EXTEND                                 	#
000076:    4557           14561                           BZF      L_MATCH                       	#
000077:
000078:    4560           14574                           TCF      L_NOROW                       	#
000079:
000080:    4561                        L_MATCH                                                   	#
000081:
000082:
000083:    4561           50110                           INDEX    CELLROW                       	#
000084:    4562           24103                           INCR     MATCHMD                       	# Set flag that we have combined in this column
000085:
000086:    4563           04351                           TC       UPGRADE                       	# Increase target cell, empty orig cell
000087:
000088:    4564           14574                           TCF      L_NOROW                       	#
000089:    4565                        MOV_LEFT                                                  	#
000090:
000091:    4565           24123                           INCR     PLAY_ID                       	#
000092:
000093:    4566           30100                           CA       CELL_VALUE                    	#
000094:    4567           50077                           INDEX    CHK_ID                        	#
000095:    4570           54124                           TS       VALUES                        	#
000096:
000097:    4571           35160                           CA       NEG_ONE                       	#
000098:    4572           50075                           INDEX    CUR_ID                        	#
000099:    4573           54124                           TS       VALUES                        	#
000100:
000101:    4574                        L_NOROW                                                   	#
000102:
000103:    4574           30075                           CA       CUR_ID                        	#
000104:    4575           65300                           AD       DEC5                          	#
000105:    4576           54075                           TS       CUR_ID                        	#
000106:    4577           00006                           EXTEND                                 	#
000107:    4600           60115                           SU       END_ID                        	#
000108:    4601           00006                           EXTEND                                 	#
000109:    4602           14604                           BZF      L_NXTCOL                      	#
000110:
000111:    4603           14524                           TCF      L_ROLOOP                      	#
000112:
000113:    4604                        L_NXTCOL                                                  	#
000114:    4604           54067                           TS       NEWJOB                        	#
000115:
000116:    4605           35277                           CA       DEC4                          	#
000117:    4606           00006                           EXTEND                                 	#
000118:    4607           60114                           SU       COL_ID                        	#
000119:    4610           00006                           EXTEND                                 	#
000120:    4611           14327                           BZF      D_DONE                        	#
000121:
000122:
000123:    4612           24114                           INCR     COL_ID                        	#
000124:
000125:    4613           14517                           TCF      L_COLOOP                      	#
000126:
000127:
(End of include-file Left.agc, resuming Main.agc)
000058: $Right.agc
000001:
000002:                                                                                          	# See Down.agc for detailed explanation of how the code
000003:                                                                                          	# to move and combine numbers works. The only differences between them
000004:                                                                                          	# is to reverse directions and/or swap rows for columns (if horizontal)
000005:
000006:    4614                        MOVE_RT                                                   	#
000007:
000008:    4614           04220                           TC       SETUPMOV                      	# Setup a table and check if can proceed - may never return!
000009:    4615           30112                           CA       GM_DONE                       	# Load game complete status into A
000010:    4616           00006                           EXTEND                                 	#
000011:    4617           14621                           BZF      MOVING_RT                     	# Flag is zero, not complete yet
000012:
000013:    4620           14070                           TCF      MAINLOOP                      	#
000014:
000015:    4621                        MOVING_RT                                                  	#
000016:
000017:    4621           35277                           CA       STA_RIGHT                     	#
000018:    4622           54101                           TS       GM_STATE                      	#
000019:
000020:    4623           30007                           CA       ZERO                          	#
000021:    4624           54123                           TS       PLAY_ID                       	#
000022:
000023:    4625           35276                           CA       DEC3                          	#
000024:    4626           54114                           TS       COL_ID                        	#
000025:
000026:    4627                        R_COLOOP                                                  	#
000027:
000028:    4627           50114                           INDEX    COL_ID                        	#
000029:    4630           35322                           CA       COL_STRT                      	#
000030:    4631           54075                           TS       CUR_ID                        	#
000031:    4632           65312                           AD       DEC15                         	#
000032:    4633           54115                           TS       END_ID                        	#
000033:
000034:    4634                        R_ROLOOP                                                  	#
000035:
000036:    4634           50075                           INDEX    CUR_ID                        	#
000037:    4635           35354                           CA       GRID_ROW                      	#
000038:    4636           54110                           TS       CELLROW                       	#
000039:
000040:    4637           50075                           INDEX    CUR_ID                        	#
000041:    4640           30124                           CA       VALUES                        	#
000042:    4641           54100                           TS       CELL_VALUE                    	#
000043:    4642           65274                           AD       DEC1                          	#
000044:    4643           00006                           EXTEND                                 	#
000045:    4644           14704                           BZF      R_NOROW                       	#
000046:
000047:
000048:    4645                        CHK_RT                                                    	#
000049:
000050:    4645           30075                           CA       CUR_ID                        	#
000051:    4646           65274                           AD       DEC1                          	#
000052:    4647           54077                           TS       CHK_ID                        	#
000053:
000054:    4650           50077                           INDEX    CHK_ID                        	#
000055:    4651           30124                           CA       VALUES                        	#
000056:    4652           54102                           TS       CHK_VALUE                     	#
000057:    4653           65274                           AD       DEC1                          	#
000058:    4654           00006                           EXTEND                                 	#
000059:    4655           14675                           BZF      MOV_RT                        	#
000060:
000061:    4656                        R_SOMEHR                                                  	#
000062:
000063:    4656           50110                           INDEX    CELLROW                       	#
000064:    4657           30103                           CA       MATCHMD                       	#
000065:    4660           00006                           EXTEND                                 	#
000066:    4661           14663                           BZF      R_NOMAT                       	#
000067:
000068:    4662           14704                           TCF      R_NOROW                       	#
000069:
000070:    4663                        R_NOMAT                                                   	#
000071:
000072:    4663           30100                           CA       CELL_VALUE                    	#
000073:    4664           00006                           EXTEND                                 	#
000074:    4665           60102                           SU       CHK_VALUE                     	#
000075:    4666           00006                           EXTEND                                 	#
000076:    4667           14671                           BZF      R_MATCH                       	#
000077:
000078:    4670           14704                           TCF      R_NOROW                       	#
000079:
000080:    4671                        R_MATCH                                                   	#
000081:
000082:    4671           50110                           INDEX    CELLROW                       	#
000083:    4672           24103                           INCR     MATCHMD                       	# Set flag that we have combined in this column
000084:
000085:    4673           04351                           TC       UPGRADE                       	# Increase target cell, empty orig cell
000086:
000087:    4674           14704                           TCF      R_NOROW                       	#
000088:    4675                        MOV_RT                                                    	#
000089:
000090:    4675           24123                           INCR     PLAY_ID                       	#
000091:
000092:    4676           30100                           CA       CELL_VALUE                    	#
000093:    4677           50077                           INDEX    CHK_ID                        	#
000094:    4700           54124                           TS       VALUES                        	#
000095:
000096:    4701           35160                           CA       NEG_ONE                       	#
000097:    4702           50075                           INDEX    CUR_ID                        	#
000098:    4703           54124                           TS       VALUES                        	#
000099:
000100:    4704                        R_NOROW                                                   	#
000101:
000102:    4704           30075                           CA       CUR_ID                        	#
000103:    4705           65300                           AD       DEC5                          	#
000104:    4706           54075                           TS       CUR_ID                        	#
000105:    4707           00006                           EXTEND                                 	#
000106:    4710           60115                           SU       END_ID                        	#
000107:    4711           00006                           EXTEND                                 	#
000108:    4712           14714                           BZF      R_NXTCOL                      	#
000109:
000110:    4713           14634                           TCF      R_ROLOOP                      	#
000111:
000112:    4714                        R_NXTCOL                                                  	#
000113:    4714           54067                           TS       NEWJOB                        	#
000114:    4715           30114                           CA       COL_ID                        	#
000115:    4716           00006                           EXTEND                                 	#
000116:    4717           14327                           BZF      D_DONE                        	#
000117:
000118:    4720           00006                           EXTEND                                 	#
000119:    4721           26114                           DIM      COL_ID                        	#
000120:
000121:    4722           14627                           TCF      R_COLOOP                      	#
000122:
(End of include-file Right.agc, resuming Main.agc)
000059: $Display.agc
000001:
000002:
000003:                                                                                          	# DISPLAY ALL 15 SEGMENTS IN THE GAME GRID
000004:
000005:    4723                        DISP15                                                    	#
000006:    4723           00006                           EXTEND                                 	#
000007:    4724           22071                           QXCH     RET_ADR                       	# Store return address because we TC elsewhere
000008:
000009:    4725           35301                           CA       DEC6                          	# Do top left cell first as its digit doesn't have a segment partner
000010:    4726           54075                           TS       CUR_ID                        	# Use id for top left cell
000011:    4727           04745                           TC       DISPNUM                       	# Call function to display this digit
000012:
000013:    4730           24075                           INCR     CUR_ID                        	# Move onto next digit. The rest all come in pairs.
000014:
000015:    4731                        SEGLOOP                                                   	#
000016:
000017:    4731           04745                           TC       DISPNUM                       	# Call function to display next two digits.
000018:
000019:    4732           24075                           INCR     CUR_ID                        	# Inc cell id, it's now +2 from before display call.
000020:    4733           35162                           CA       TWENTY1                       	# Load id of last cell + 1
000021:    4734           00006                           EXTEND                                 	#
000022:    4735           60075                           SU       CUR_ID                        	# Subtract current cell id
000023:    4736           00006                           EXTEND                                 	#
000024:    4737           14742                           BZF      DONE15                        	# If zero, we displayed all cells
000025:
000026:    4740           54067                           TS       NEWJOB                        	# Nudge watchdog as display code fairly slow
000027:
000028:    4741           14731                           TCF      SEGLOOP                       	# Loop back to draw the next two segments
000029:
000030:
000031:    4742                        DONE15                                                    	#
000032:    4742           00006                           EXTEND                                 	#
000033:    4743           22071                           QXCH     RET_ADR                       	# Retrieve our return address
000034:    4744           00002                           RETURN                                 	# Return to caller (multiple places)
000035:
000036:
000037:
000038:
000039:    4745                        DISPNUM                                                   	# CUR_ID is the index of next segment to display (0=left prog, 20 = digit 5 bottom row)
000040:                                                                                          	# Print value held in VALUES array to correct segment
000041:
000042:                                                                                          	# Data is sent to the DSKY via Channel 10 two digits at a time.
000043:                                                                                          	# Bits 10-14 select which pair of digits we want to draw
000044:                                                                                          	# Bits 0-4 selects which digit to draw on the right segment
000045:                                                                                          	# Bits 5-9 selects which digit to draw on the left segment
000046:
000047:    4745           30007                           CA       ZEROES                        	# Load 0 into accumulator from a fixed rom constant
000048:    4746           54117                           TS       DIGIT_L                       	# Reset left digit calculation to 0 (empty)
000049:    4747           54120                           TS       DIGIT_R                       	# Reset right digit calculation to 0 (empty)
000050:
000051:    4750           50075                           INDEX    CUR_ID                        	# Index next instruction by segment id
000052:    4751           35233                           CA       SEG_0                         	# Get which pair of digits this segment belongs to
000053:    4752           54076                           TS       SEG_OUT                       	# Save ID to RAM
000054:
000055:    4753           50076                           INDEX    SEG_OUT                       	# Index next instruction by segment pair id
000056:    4754           35260                           CA       SEGCODE                       	# Get value required in bits 10-14 to select pair, using id
000057:    4755           54116                           TS       DSKY_OUT                      	# Save to RAM to use later when we have the digit data
000058:
000059:    4756           50075                           INDEX    CUR_ID                        	# Index next instruction by segment id
000060:    4757           30124                           CA       VALUES                        	# Get the value in RAM we want to display here
000061:    4760           54061                           TS       TEMPI                         	# Save to temporary RAM variable
000062:
000063:    4761           50075                           INDEX    CUR_ID                        	# Index next instruction by segment id
000064:    4762           35206                           CA       LEFTRIGHT                     	# Get whether this segment is left or right of its pair
000065:    4763           00006                           EXTEND                                 	# Extend to use a new Block 2 AGC instruction
000066:    4764           15003                           BZF      SKIPLEFT                      	# If zero (is right), skip the left digit
000067:
000068:    4765                        CALCLEFT                                                  	#
000069:    4765           50061                           INDEX    TEMPI                         	# Index next instruction by our digit (0-9)
000070:    4766           35174                           CA       DSP0                          	# Get the 5-bit code for this digit to send to DSKY
000071:    4767           54022                           TS       CYL                           	# Transfer it to the shift left register
000072:    4770           30022                           CA       CYL                           	# Shift left no 1
000073:    4771           30022                           CA       CYL                           	# Shift left no 2
000074:    4772           30022                           CA       CYL                           	# Shift left no 3
000075:    4773           30022                           CA       CYL                           	# Shift left no 4
000076:    4774           30022                           CA       CYL                           	# Shift left no 5 (is now in bits 5-9 for the left digit)
000077:    4775           54117                           TS       DIGIT_L                       	# Save to RAM to use later
000078:
000079:    4776           24075                           INCR     CUR_ID                        	# Move onto the right segment of the pair
000080:    4777           50075                           INDEX    CUR_ID                        	# Index by new segment id
000081:    5000           30124                           CA       VALUES                        	# Get value to display on right digit
000082:    5001           54120                           TS       DIGIT_R                       	# Save to RAM to use later
000083:
000084:    5002           15005                           TCF      DIDLEFT                       	# Skip the code to set only the right digit if left not drawn
000085:
000086:    5003                        SKIPLEFT                                                  	#
000087:    5003           30061                           CA       TEMPI                         	# Load the value for this digit to draw on the right of pair
000088:    5004           54120                           TS       DIGIT_R                       	# Store to RAM
000089:
000090:    5005                        DIDLEFT                                                   	#
000091:
000092:    5005           50120                           INDEX    DIGIT_R                       	# Index by value of right digit
000093:    5006           35174                           CA       DSP0                          	# Get the 5-bit code for this digit to send to DSKY
000094:
000095:    5007                        OUTPUT                                                    	#
000096:    5007           60116                           AD       DSKY_OUT                      	# Add bits 10-14
000097:    5010           60117                           AD       DIGIT_L                       	# Add bits 5-9
000098:    5011           00006                           EXTEND                                 	# Extend in order to use I/O channel instruction
000099:    5012           01010                           WRITE    CH10                          	# Send the value to channel 10 to display on DKSY
000100:
000101:    5013           00002                           RETURN                                 	# Return from subroutine
000102:
000103:
000104:
000105:                                                                                          	#Hold up CPU to delay between movement of numbers to give animation effect
000106:
000107:    5014           01750        IODELAYT           DEC      1000       B-14               	# This constant is stored in fixed ROM
000108:
000109:    5015                        IODELAY                                                   	#
000110:    5015           54061                           TS       TEMPI                         	# Save accumulator.
000111:    5016           15017                           NOOP                                   	# Do thing for a bit
000112:    5017           35014                           CA       IODELAYT                      	# Load delay into A
000113:    5020           54067                           TS       NEWJOB                        	# Nudge watchdog as we're in a busy loop
000114:    5021           10000                           CCS      A                             	# Decrement a and compare
000115:    5022           15020                           TCF      -2                            	# >0 so jump back up to TS NEWJOB
000116:    5023           30061                           CA       TEMPI                         	# Restore accumulator.
000117:    5024           00002                           RETURN                                 	# Return to where delay was asked for
(End of include-file Display.agc, resuming Main.agc)
000060: $Interrupts.agc
000001:
000002:    5025                                           BLOCK    02                            	#
000003:    5025                        T3RUPT                                                    	#
000004:    5025           35153                           CAF      O37774                        	# Schedule another TIME3 interrupt
000005:    5026           54026                           TS       TIME3                         	# ... and don't do anything else, yet...
000006:
000007:    5027           24074                           INCR     COUNTER                       	# Increment counter for random number generation
000008:
000009:    5030           52011        RESUME             DXCH     ARUPT                         	# Restore A, L, and Q, and exit the interrupt
000010:    5031           00006                           EXTEND                                 	#
000011:    5032           22012                           QXCH     QRUPT                         	#
000012:    5033           50017                           RESUME                                 	#
(End of include-file Interrupts.agc, resuming Main.agc)
000061: $Input.agc
000001:    5034                        KEYRUPT1                                                  	# Triggered automatically when a key is pressed
000002:
000003:    5034           35150                           CA       NOKEY                         	# Load code for 'NO KEY PRESSED'
000004:    5035           54070                           TS       KEYBUF                        	# Clear key buffer so we don't persist presses from when they are not wanted
000005:
000006:    5036           30073                           CA       ACTIVE                        	# Load whether game is active
000007:    5037           00006                           EXTEND                                 	#
000008:    5040           15045                           BZF      CAN_READ                      	# If not active, we can accept key press to start the game
000009:
000010:    5041           30101                           CA       GM_STATE                      	# Load game state into A
000011:    5042           00006                           EXTEND                                 	#
000012:    5043           15045                           BZF      CAN_READ                      	# If not 'check_key', we don't care about key presses
000013:
000014:    5044           15051                           TCF      EXITRUPT                      	# Exit, we're not listening for key presses while processing happens
000015:
000016:    5045                        CAN_READ                                                  	#
000017:
000018:    5045           00006                           EXTEND                                 	#
000019:    5046           00015                           READ     CH15                          	# Read I/O channel that contains the keycode
000020:    5047           75152                           MASK     LOW5                          	# Retain only lower 5 bits
000021:    5050           54070                           TS       KEYBUF                        	# Store into keyboard buffer variable for main loop to pick up
000022:
000023:    5051                        EXITRUPT                                                  	#
000024:    5051           30007                           CA       ZEROES                        	# Clear the input channel
000025:    5052           00006                           EXTEND                                 	#
000026:    5053           01015                           WRITE    CH15                          	#
000027:
000028:    5054           52011                           DXCH     ARUPT                         	# Restore A, L, and Q, and exit the interrupt
000029:    5055           00006                           EXTEND                                 	#
000030:    5056           22012                           QXCH     QRUPT                         	#
000031:    5057           50017                           RESUME                                 	#
000032:
000033:
000034:
000035:
000036:    5060                        WAITKEY                                                   	# Waiting for any key press to start game
000037:                                                                                          	# If we didn't wait, the RNG would always start in same state
000038:
000039:    5060           35150                           CA       NOKEY                         	# Load key code for 'no key pressed'
000040:    5061           00006                           EXTEND                                 	#
000041:    5062           60070                           SU       KEYBUF                        	# Subtract the key code read
000042:    5063           00006                           EXTEND                                 	#
000043:    5064           15071                           BZF      WAITMORE                      	# If zero, nothing pressed, continue waiting
000044:
000045:    5065           35150                           CA       NOKEY                         	# Clear keyboard buffer so not carried into game
000046:    5066           54070                           TS       KEYBUF                        	#
000047:
000048:    5067           35300                           CA       STA_ADD                       	# Set game state to add the two starting numbers and exit
000049:    5070           54101                           TS       GM_STATE                      	#
000050:
000051:    5071                        WAITMORE                                                  	#
000052:    5071           14070                           TCF      MAINLOOP                      	#
000053:
000054:
000055:
000056:    5072                        CHECK_KEY                                                  	# Check whether key press in buffer from interrupt
000057:
000058:    5072           35150                           CA       NOKEY                         	# Load key code for nothing pressed into A
000059:    5073           56070                           XCH      KEYBUF                        	# Swap A and buffer. A is now key code and buffer is clear.
000060:    5074           50000                           INDEX    A                             	# Index using the keycode
000061:    5075           15076                           TCF      KEYTABL                       	# Into a jump table with jumps for each possible key
000062:
000063:                                                                                          	# We ignore all presses except for 2, 4, 6, 8 for game control and ENTER/RESTART to reset game.
000064:    5076                        KEYTABL                                                   	#
000065:    5076           15137                           TCF      ENDKYCK                       	# unused
000066:    5077           15137                           TCF      ENDKYCK                       	# 1
000067:    5100           14227                           TCF      MOVE_DOWN                     	# 2
000068:    5101           15137                           TCF      ENDKYCK                       	# 3
000069:    5102           14504                           TCF      MOVE_LEFT                     	# 4
000070:    5103           15137                           TCF      ENDKYCK                       	# 5
000071:    5104           14614                           TCF      MOVE_RT                       	# 6
000072:    5105           15137                           TCF      ENDKYCK                       	# 7
000073:    5106           14375                           TCF      MOVE_UP                       	# 8
000074:    5107           15137                           TCF      ENDKYCK                       	# 9
000075:    5110           15137                           TCF      ENDKYCK                       	# unused
000076:    5111           15137                           TCF      ENDKYCK                       	# unused
000077:    5112           15137                           TCF      ENDKYCK                       	# unused
000078:    5113           15137                           TCF      ENDKYCK                       	# unused
000079:    5114           15137                           TCF      ENDKYCK                       	# unused
000080:    5115           15137                           TCF      ENDKYCK                       	# unused
000081:    5116           15137                           TCF      ENDKYCK                       	# 0
000082:    5117           15137                           TCF      ENDKYCK                       	# VERB
000083:    5120           14054                           TCF      INIT                          	# RSET
000084:    5121           15137                           TCF      ENDKYCK                       	# unused
000085:    5122           15137                           TCF      ENDKYCK                       	# unused
000086:    5123           15137                           TCF      ENDKYCK                       	# unused
000087:    5124           15137                           TCF      ENDKYCK                       	# unused
000088:    5125           15137                           TCF      ENDKYCK                       	# unused
000089:    5126           15137                           TCF      ENDKYCK                       	# unused
000090:    5127           15137                           TCF      ENDKYCK                       	# KEY REL
000091:    5130           15137                           TCF      ENDKYCK                       	# +
000092:    5131           15137                           TCF      ENDKYCK                       	# -
000093:    5132           14054                           TCF      INIT                          	# ENTR
000094:    5133           15137                           TCF      ENDKYCK                       	# unused
000095:    5134           15137                           TCF      ENDKYCK                       	# CLR
000096:    5135           15137                           TCF      ENDKYCK                       	# NOUN
000097:    5136           15137                           TCF      ENDKYCK                       	# NOKEY
000098:
000099:    5137                        ENDKYCK                                                   	#
000100:    5137           14070                           TCF      MAINLOOP                      	# When we do nothing, just exit back to main loop to wait for a valid key
000101:
(End of include-file Input.agc, resuming Main.agc)
000062: $Random.agc
000001:
000002:    5140                        RANDOM                                                    	#
000003:
000004:                                                                                          	# I tried various methods for generating 'random' numbers. Most traditional methods are designed
000005:                                                                                          	# for 8-bit or 16-bit hardware, and the various xor 'magic numbers' are particular to that paradigm.
000006:                                                                                          	# I'm not patient enough to find values that might work. Using a fast-moving index into a lookup
000007:                                                                                          	# table should be 'good enough' for a game.
000008:
000009:
000010:    5140           30025                           CA       TIME1                         	# Load a register that is updated very often by the hardware
000011:    5141           60074                           AD       COUNTER                       	# Add previous value of counter in case we were so quick TIME1 didn't change
000012:    5142           75163                           MASK     MASK128                       	# Mask value so now between 0-127.
000013:    5143           54074                           TS       COUNTER                       	# Store this as new counter
000014:    5144           50074                           INDEX    COUNTER                       	# Index using value between 0-127
000015:    5145           35401                           CA       RAND1                         	# Into a table of random numbers between 0 and 9 (generated in Excel)
000016:    5146           24074                           INCR     COUNTER                       	# Move counter on one so next index unlikely to be the same
000017:
000018:
000019:    5147           00002                           RETURN                                 	#
000020:
000021:
(End of include-file Random.agc, resuming Main.agc)
000063:
000064: $Constants.agc
000001:                                                                                          	# The AGC does not support 'immediate mode', where you can embed a fixed value into the operand.
000002:                                                                                          	# So where you might do lda #48 in 6502 to load 48 into A, here 48 must be present somewhere in RAM
000003:                                                                                          	# or ROM so that it has an address we can reference in 'CA MYCONSTANT'.
000004:                                                                                          	# So these constants are stored in the ROM itself as data to be lookup up when needed.
000005:
000006:                                                                                          	#-----------------------------------------------------------------------
000007:                                                                                          	# Constants and read-only memory.
000008:
000009:                                                                                          	# Names of CPU registers.
000010:    5150                        A                  EQUALS   0                             	#
000011:    5150                        L                  EQUALS   1                             	# L AND Q ARE BOTH CHANNELS AND REGISTERS.
000012:    5150                        Q                  EQUALS   2                             	#
000013:    5150                        EBANK              EQUALS   3                             	#
000014:    5150                        FBANK              EQUALS   4                             	#
000015:    5150                        Z                  EQUALS   5                             	# ADJACENT TO FBANK AND BBANK FOR DXCH Z
000016:    5150                        BBANK              EQUALS   6                             	# (DTCB) AND DXCH FBANK (DTCF).
000017:    5150                        ZEROES             EQUALS   7                             	# REGISTER 7 IS A ZERO-SOURCE, USED BY ZL.
000018:    5150                        ARUPT              EQUALS   10                            	# INTERRUPT STORAGE.
000019:    5150                        LRUPT              EQUALS   11                            	#
000020:    5150                        QRUPT              EQUALS   12                            	#
000021:    5150                        SAMPTIME           EQUALS   13                            	# SAMPLED TIME 1 & 2.
000022:    5150                        ZRUPT              EQUALS   15                            	# (13 AND 14 ARE SPARES.)
000023:    5150                        BANKRUPT           EQUALS   16                            	# USUALLY HOLDS FBANK OR BBANK.
000024:    5150                        BRUPT              EQUALS   17                            	# RESUME ADDRESS AS WELL.
000025:    5150                        CYR                EQUALS   20                            	#
000026:    5150                        SR                 EQUALS   21                            	#
000027:    5150                        CYL                EQUALS   22                            	#
000028:    5150                        EDOP               EQUALS   23                            	#
000029:
000030:
000031:    5150                        CH10               EQUALS   10                            	#
000032:    5150                        CH11               EQUALS   11                            	#
000033:    5150                        CH12               EQUALS   12                            	#
000034:    5150                        CH15               EQUALS   15                            	#
000035:    5150                        CH32               EQUALS   32                            	#
000036:    5150                        CH13               EQUALS   13                            	#
000037:    5150           00040        NOKEY              OCT      40                            	#
000038:
000039:    5151           40000        BIT15              DEC      16384      B-14               	#
000040:    5152  0000007               ZERO               EQUALS   ZEROES                        	#
000041:
000042:
000043:    5152           00037        LOW5               OCT      37                            	#
000044:
000045:    5153           37774        O37774             OCT      37774                         	#
000046:    5154           37777        O37777             OCT      37777                         	#
000047:
000048:    5155           00012        TEN                DEC      10         B-14               	#
000049:    5156           00034        CLEARBTN           DEC      28         B-14               	#
000050:    5157           00022        RESETBTN           DEC      18         B-14               	#
000051:    5160           77776        NEG_ONE            DEC      -1         B-14               	#
000052:
000053:    5161           00024        TWENTY             DEC      20         B-14               	#
000054:    5162           00025        TWENTY1            DEC      21         B-14               	#
000055:    5163           00177        MASK128            DEC      127        B-14               	#
000056:    5164           00017        MASK15             DEC      15         B-14               	#
000057:    5165           00400        TWO56              DEC      256        B-14               	#
000058:    5166           00016        FOURTEEN           DEC      14         B-14               	#
000059:
000060:    5167           77776        NEG1               DEC      -1         B-14               	#
000061:    5170           77775        NEG2               DEC      -2         B-14               	#
000062:    5171           77772        NEG5               DEC      -5         B-14               	#
000063:    5172           00176        BIT5               DEC      126        B-14               	#
000064:
000065:
(End of include-file Constants.agc, resuming Main.agc)
000065: $Tables.agc
000001:
000002:                                                                                          	# Because constants are held in fixed memory (ROM), we can organise them consecutively
000003:                                                                                          	# and use them as handy lookup tables
000004:
000005:                                                                                          	# For each possible digit (blank, 0-9), the 5-bit code we need to send to the DSKY.
000006:
000007:    5173           00000        DSPBLANK           OCT      0                             	#
000008:    5174           00025        DSP0               OCT      25                            	#
000009:    5175           00003        DSP1               OCT      3                             	#
000010:    5176           00031        DSP2               OCT      31                            	#
000011:    5177           00033        DSP3               OCT      33                            	#
000012:    5200           00017        DSP4               OCT      17                            	#
000013:    5201           00036        DSP5               OCT      36                            	#
000014:    5202           00034        DSP6               OCT      34                            	#
000015:    5203           00023        DSP7               OCT      23                            	#
000016:    5204           00035        DSP8               OCT      35                            	#
000017:    5205           00037        DSP9               OCT      37                            	#
000018:
000019:                                                                                          	# For each of the 21 display digits, is it left (1) or right (0) of the pair?
000020:
000021:    5206           00001        LEFTRIGHT           DEC      1          B-14               	#
000022:    5207           00000        LR1                DEC      0          B-14               	#
000023:    5210           00001        LR2                DEC      1          B-14               	#
000024:    5211           00000        LR3                DEC      0          B-14               	#
000025:    5212           00001        LR4                DEC      1          B-14               	#
000026:    5213           00000        LR5                DEC      0          B-14               	#
000027:    5214           00000        LR6                DEC      0          B-14               	#
000028:    5215           00001        LR7                DEC      1          B-14               	#
000029:    5216           00000        LR8                DEC      0          B-14               	#
000030:    5217           00001        LR9                DEC      1          B-14               	#
000031:    5220           00000        LR10               DEC      0          B-14               	#
000032:    5221           00001        LR11               DEC      1          B-14               	#
000033:    5222           00000        LR12               DEC      0          B-14               	#
000034:    5223           00001        LR13               DEC      1          B-14               	#
000035:    5224           00000        LR14               DEC      0          B-14               	#
000036:    5225           00001        LR15               DEC      1          B-14               	#
000037:    5226           00000        LR16               DEC      0          B-14               	#
000038:    5227           00001        LR17               DEC      1          B-14               	#
000039:    5230           00000        LR18               DEC      0          B-14               	#
000040:    5231           00001        LR19               DEC      1          B-14               	#
000041:    5232           00000        LR20               DEC      0          B-14               	#
000042:
000043:                                                                                          	# For each of the 21 display digits, which pair of segments does it belong to?
000044:
000045:    5233           00000        SEG_0              DEC      00         B-14               	#
000046:    5234           00000        SEG_1              DEC      00         B-14               	#
000047:    5235           00001        SEG_2              DEC      01         B-14               	#
000048:    5236           00001        SEG_3              DEC      01         B-14               	#
000049:    5237           00002        SEG_4              DEC      02         B-14               	#
000050:    5240           00002        SEG_5              DEC      02         B-14               	#
000051:    5241           00003        SEG_6              DEC      03         B-14               	#
000052:    5242           00004        SEG_7              DEC      04         B-14               	#
000053:    5243           00004        SEG_8              DEC      04         B-14               	#
000054:    5244           00005        SEG_9              DEC      05         B-14               	#
000055:    5245           00005        SEG_10             DEC      05         B-14               	#
000056:    5246           00006        SEG_11             DEC      06         B-14               	#
000057:    5247           00006        SEG_12             DEC      06         B-14               	#
000058:    5250           00007        SEG_13             DEC      07         B-14               	#
000059:    5251           00007        SEG_14             DEC      07         B-14               	#
000060:    5252           00010        SEG_15             DEC      08         B-14               	#
000061:    5253           00010        SEG_16             DEC      08         B-14               	#
000062:    5254           00011        SEG_17             DEC      09         B-14               	#
000063:    5255           00011        SEG_18             DEC      09         B-14               	#
000064:    5256           00012        SEG_19             DEC      10         B-14               	#
000065:    5257           00012        SEG_20             DEC      10         B-14               	#
000066:
000067:
000068:                                                                                          	# Lookup bits 10-14 to select the segement pair in Channel 10 WRITE
000069:
000070:
000071:    5260           54000        SEGCODE            OCT      54000                         	#
000072:    5261           50000        VERBLR             OCT      50000                         	#
000073:    5262           44000        NOUNLR             OCT      44000                         	#
000074:    5263           40000        TOP1               OCT      40000                         	#
000075:    5264           34000        TOP23              OCT      34000                         	#
000076:    5265           30000        TOP45              OCT      30000                         	#
000077:    5266           24000        MID12              OCT      24000                         	#
000078:    5267           20000        MID34              OCT      20000                         	#
000079:    5270           14000        MID5BOT1           OCT      14000                         	#
000080:    5271           10000        BOT23              OCT      10000                         	#
000081:    5272           04000        BOT45              OCT      4000                          	#
000082:
000083:
000084:
000085:                                                                                          	# Decimal table for easy loading into A
000086:
000087:    5273           00000        DIGITS             DEC      0          B-14               	#
000088:    5274           00001        DEC1               DEC      1          B-14               	#
000089:    5275           00002        DEC2               DEC      2          B-14               	#
000090:    5276           00003        DEC3               DEC      3          B-14               	#
000091:    5277           00004        DEC4               DEC      4          B-14               	#
000092:    5300           00005        DEC5               DEC      5          B-14               	#
000093:    5301           00006        DEC6               DEC      6          B-14               	#
000094:    5302           00007        DEC7               DEC      7          B-14               	#
000095:    5303           00010        DEC8               DEC      8          B-14               	#
000096:    5304           00011        DEC9               DEC      9          B-14               	#
000097:    5305           00012        DEC10              DEC      10         B-14               	#
000098:    5306           00013        DEC11              DEC      11         B-14               	#
000099:    5307           00014        DEC12              DEC      12         B-14               	#
000100:    5310           00015        DEC13              DEC      13         B-14               	#
000101:    5311           00016        DEC14              DEC      14         B-14               	#
000102:    5312           00017        DEC15              DEC      15         B-14               	#
000103:    5313           00020        DEC16              DEC      16         B-14               	#
000104:    5314           00021        DEC17              DEC      17         B-14               	#
000105:    5315           00022        DEC18              DEC      18         B-14               	#
000106:    5316           00023        DEC19              DEC      19         B-14               	#
000107:
000108:                                                                                          	# Game state constants, re-using some of the above
000109:
000110:    5317     5273               STA_INPUT           EQUALS   DIGITS                        	#
000111:    5317     5274               STA_DOWN           EQUALS   DEC1                          	#
000112:    5317     5275               STA_UP             EQUALS   DEC2                          	#
000113:    5317     5276               STA_LEFT           EQUALS   DEC3                          	#
000114:    5317     5277               STA_RIGHT           EQUALS   DEC4                          	#
000115:    5317     5300               STA_ADD            EQUALS   DEC5                          	#
000116:    5317     5301               STA_WAIT           EQUALS   DEC6                          	#
000117:
000118:
000119:
000120:                                                                                          	# For each grid row, which segment ID does it start at?
000121:
000122:    5317           00006        ROW_STRT           DEC      6          B-14               	#
000123:    5320           00013        ROW_STRT2           DEC      11         B-14               	#
000124:    5321           00020        ROW_STRT3           DEC      16         B-14               	#
000125:
000126:                                                                                          	# For each grid column, which segment ID does it start at?
000127:
000128:    5322           00006        COL_STRT           DEC      6          B-14               	#
000129:    5323           00007        COL_STRT2           DEC      7          B-14               	#
000130:    5324           00010        COL_STRT3           DEC      8          B-14               	#
000131:    5325           00011        COL_STRT4           DEC      9          B-14               	#
000132:    5326           00012        COL_STRT5           DEC      10         B-14               	#
000133:
000134:                                                                                          	# For each grid cell, which column does it belong to (0-5 ignored)
000135:
000136:    5327           00000        GRID_COL           DEC      0          B-14               	#
000137:    5330           00000        GRID_CM5           DEC      0          B-14               	#
000138:    5331           00000        GRID_CM4           DEC      0          B-14               	#
000139:    5332           00000        GRID_CM3           DEC      0          B-14               	#
000140:    5333           00000        GRID_CM2           DEC      0          B-14               	#
000141:    5334           00000        GRID_CM1           DEC      0          B-14               	#
000142:    5335           00000        GRID_C0            DEC      0          B-14               	#
000143:    5336           00001        GRID_C1            DEC      1          B-14               	#
000144:    5337           00002        GRID_C2            DEC      2          B-14               	#
000145:    5340           00003        GRID_C3            DEC      3          B-14               	#
000146:    5341           00004        GRID_C4            DEC      4          B-14               	#
000147:    5342           00000        GRID_C5            DEC      0          B-14               	#
000148:    5343           00001        GRID_C6            DEC      1          B-14               	#
000149:    5344           00002        GRID_C7            DEC      2          B-14               	#
000150:    5345           00003        GRID_C8            DEC      3          B-14               	#
000151:    5346           00004        GRID_C9            DEC      4          B-14               	#
000152:    5347           00000        GRID_C10           DEC      0          B-14               	#
000153:    5350           00001        GRID_C11           DEC      1          B-14               	#
000154:    5351           00002        GRID_C12           DEC      2          B-14               	#
000155:    5352           00003        GRID_C13           DEC      3          B-14               	#
000156:    5353           00004        GRID_C14           DEC      4          B-14               	#
000157:
000158:                                                                                          	# For each grid cell, which ro wdoes it belong to (0-5 ignored)
000159:
000160:    5354           00000        GRID_ROW           DEC      0          B-14               	#
000161:    5355           00000        GRID_RM5           DEC      0          B-14               	#
000162:    5356           00000        GRID_RM4           DEC      0          B-14               	#
000163:    5357           00000        GRID_RM3           DEC      0          B-14               	#
000164:    5360           00000        GRID_RM2           DEC      0          B-14               	#
000165:    5361           00000        GRID_RM1           DEC      0          B-14               	#
000166:    5362           00000        GRID_R0            DEC      0          B-14               	#
000167:    5363           00000        GRID_R1            DEC      0          B-14               	#
000168:    5364           00000        GRID_R2            DEC      0          B-14               	#
000169:    5365           00000        GRID_R3            DEC      0          B-14               	#
000170:    5366           00000        GRID_R4            DEC      0          B-14               	#
000171:    5367           00001        GRID_R5            DEC      1          B-14               	#
000172:    5370           00001        GRID_R6            DEC      1          B-14               	#
000173:    5371           00001        GRID_R7            DEC      1          B-14               	#
000174:    5372           00001        GRID_R8            DEC      1          B-14               	#
000175:    5373           00001        GRID_R9            DEC      1          B-14               	#
000176:    5374           00002        GRID_R10           DEC      2          B-14               	#
000177:    5375           00002        GRID_R11           DEC      2          B-14               	#
000178:    5376           00002        GRID_R12           DEC      2          B-14               	#
000179:    5377           00002        GRID_R13           DEC      2          B-14               	#
000180:    5400           00002        GRID_R14           DEC      2          B-14               	#
000181:
000182:                                                                                          	# Table of 128 'random' numbers between 0-9 that we can index into
000183:
000184:    5401           00005        RAND1              DEC      5          B-14               	#
000185:    5402           00002        RAND2              DEC      2          B-14               	#
000186:    5403           00000        RAND3              DEC      0          B-14               	#
000187:    5404           00002        RAND4              DEC      2          B-14               	#
000188:    5405           00011        RAND5              DEC      9          B-14               	#
000189:    5406           00004        RAND6              DEC      4          B-14               	#
000190:    5407           00005        RAND7              DEC      5          B-14               	#
000191:    5410           00001        RAND8              DEC      1          B-14               	#
000192:    5411           00000        RAND9              DEC      0          B-14               	#
000193:    5412           00003        RAND10             DEC      3          B-14               	#
000194:    5413           00011        RAND11             DEC      9          B-14               	#
000195:    5414           00005        RAND12             DEC      5          B-14               	#
000196:    5415           00006        RAND13             DEC      6          B-14               	#
000197:    5416           00007        RAND14             DEC      7          B-14               	#
000198:    5417           00007        RAND15             DEC      7          B-14               	#
000199:    5420           00001        RAND16             DEC      1          B-14               	#
000200:    5421           00006        RAND17             DEC      6          B-14               	#
000201:    5422           00005        RAND18             DEC      5          B-14               	#
000202:    5423           00007        RAND19             DEC      7          B-14               	#
000203:    5424           00004        RAND20             DEC      4          B-14               	#
000204:    5425           00005        RAND21             DEC      5          B-14               	#
000205:    5426           00002        RAND22             DEC      2          B-14               	#
000206:    5427           00000        RAND23             DEC      0          B-14               	#
000207:    5430           00005        RAND24             DEC      5          B-14               	#
000208:    5431           00011        RAND25             DEC      9          B-14               	#
000209:    5432           00006        RAND26             DEC      6          B-14               	#
000210:    5433           00005        RAND27             DEC      5          B-14               	#
000211:    5434           00007        RAND28             DEC      7          B-14               	#
000212:    5435           00005        RAND29             DEC      5          B-14               	#
000213:    5436           00006        RAND30             DEC      6          B-14               	#
000214:    5437           00000        RAND31             DEC      0          B-14               	#
000215:    5440           00006        RAND32             DEC      6          B-14               	#
000216:    5441           00011        RAND33             DEC      9          B-14               	#
000217:    5442           00004        RAND34             DEC      4          B-14               	#
000218:    5443           00002        RAND35             DEC      2          B-14               	#
000219:    5444           00005        RAND36             DEC      5          B-14               	#
000220:    5445           00011        RAND37             DEC      9          B-14               	#
000221:    5446           00011        RAND38             DEC      9          B-14               	#
000222:    5447           00002        RAND39             DEC      2          B-14               	#
000223:    5450           00000        RAND40             DEC      0          B-14               	#
000224:    5451           00007        RAND41             DEC      7          B-14               	#
000225:    5452           00006        RAND42             DEC      6          B-14               	#
000226:    5453           00000        RAND43             DEC      0          B-14               	#
000227:    5454           00005        RAND44             DEC      5          B-14               	#
000228:    5455           00006        RAND45             DEC      6          B-14               	#
000229:    5456           00001        RAND46             DEC      1          B-14               	#
000230:    5457           00007        RAND47             DEC      7          B-14               	#
000231:    5460           00007        RAND48             DEC      7          B-14               	#
000232:    5461           00002        RAND49             DEC      2          B-14               	#
000233:    5462           00004        RAND50             DEC      4          B-14               	#
000234:    5463           00011        RAND51             DEC      9          B-14               	#
000235:    5464           00006        RAND52             DEC      6          B-14               	#
000236:    5465           00011        RAND53             DEC      9          B-14               	#
000237:    5466           00000        RAND54             DEC      0          B-14               	#
000238:    5467           00003        RAND55             DEC      3          B-14               	#
000239:    5470           00005        RAND56             DEC      5          B-14               	#
000240:    5471           00001        RAND57             DEC      1          B-14               	#
000241:    5472           00004        RAND58             DEC      4          B-14               	#
000242:    5473           00007        RAND59             DEC      7          B-14               	#
000243:    5474           00001        RAND60             DEC      1          B-14               	#
000244:    5475           00002        RAND61             DEC      2          B-14               	#
000245:    5476           00007        RAND62             DEC      7          B-14               	#
000246:    5477           00002        RAND63             DEC      2          B-14               	#
000247:    5500           00001        RAND64             DEC      1          B-14               	#
000248:    5501           00005        RAND65             DEC      5          B-14               	#
000249:    5502           00010        RAND66             DEC      8          B-14               	#
000250:    5503           00001        RAND67             DEC      1          B-14               	#
000251:    5504           00007        RAND68             DEC      7          B-14               	#
000252:    5505           00007        RAND69             DEC      7          B-14               	#
000253:    5506           00003        RAND70             DEC      3          B-14               	#
000254:    5507           00003        RAND71             DEC      3          B-14               	#
000255:    5510           00004        RAND72             DEC      4          B-14               	#
000256:    5511           00005        RAND73             DEC      5          B-14               	#
000257:    5512           00005        RAND74             DEC      5          B-14               	#
000258:    5513           00005        RAND75             DEC      5          B-14               	#
000259:    5514           00006        RAND76             DEC      6          B-14               	#
000260:    5515           00006        RAND77             DEC      6          B-14               	#
000261:    5516           00006        RAND78             DEC      6          B-14               	#
000262:    5517           00010        RAND79             DEC      8          B-14               	#
000263:    5520           00006        RAND80             DEC      6          B-14               	#
000264:    5521           00005        RAND81             DEC      5          B-14               	#
000265:    5522           00001        RAND82             DEC      1          B-14               	#
000266:    5523           00007        RAND83             DEC      7          B-14               	#
000267:    5524           00010        RAND84             DEC      8          B-14               	#
000268:    5525           00001        RAND85             DEC      1          B-14               	#
000269:    5526           00011        RAND86             DEC      9          B-14               	#
000270:    5527           00003        RAND87             DEC      3          B-14               	#
000271:    5530           00000        RAND88             DEC      0          B-14               	#
000272:    5531           00003        RAND89             DEC      3          B-14               	#
000273:    5532           00007        RAND90             DEC      7          B-14               	#
000274:    5533           00002        RAND91             DEC      2          B-14               	#
000275:    5534           00005        RAND92             DEC      5          B-14               	#
000276:    5535           00001        RAND93             DEC      1          B-14               	#
000277:    5536           00000        RAND94             DEC      0          B-14               	#
000278:    5537           00011        RAND95             DEC      9          B-14               	#
000279:    5540           00001        RAND96             DEC      1          B-14               	#
000280:    5541           00011        RAND97             DEC      9          B-14               	#
000281:    5542           00005        RAND98             DEC      5          B-14               	#
000282:    5543           00006        RAND99             DEC      6          B-14               	#
000283:    5544           00006        RAND100            DEC      6          B-14               	#
000284:    5545           00011        RAND101            DEC      9          B-14               	#
000285:    5546           00010        RAND102            DEC      8          B-14               	#
000286:    5547           00001        RAND103            DEC      1          B-14               	#
000287:    5550           00007        RAND104            DEC      7          B-14               	#
000288:    5551           00003        RAND105            DEC      3          B-14               	#
000289:    5552           00006        RAND106            DEC      6          B-14               	#
000290:    5553           00007        RAND107            DEC      7          B-14               	#
000291:    5554           00006        RAND108            DEC      6          B-14               	#
000292:    5555           00001        RAND109            DEC      1          B-14               	#
000293:    5556           00004        RAND110            DEC      4          B-14               	#
000294:    5557           00011        RAND111            DEC      9          B-14               	#
000295:    5560           00000        RAND112            DEC      0          B-14               	#
000296:    5561           00002        RAND113            DEC      2          B-14               	#
000297:    5562           00005        RAND114            DEC      5          B-14               	#
000298:    5563           00004        RAND115            DEC      4          B-14               	#
000299:    5564           00005        RAND116            DEC      5          B-14               	#
000300:    5565           00000        RAND117            DEC      0          B-14               	#
000301:    5566           00000        RAND118            DEC      0          B-14               	#
000302:    5567           00005        RAND119            DEC      5          B-14               	#
000303:    5570           00010        RAND120            DEC      8          B-14               	#
000304:    5571           00005        RAND121            DEC      5          B-14               	#
000305:    5572           00001        RAND122            DEC      1          B-14               	#
000306:    5573           00000        RAND123            DEC      0          B-14               	#
000307:    5574           00003        RAND124            DEC      3          B-14               	#
000308:    5575           00006        RAND125            DEC      6          B-14               	#
000309:    5576           00003        RAND126            DEC      3          B-14               	#
000310:    5577           00004        RAND127            DEC      4          B-14               	#
000311:    5600           00001        RAND128            DEC      1          B-14               	#
(End of include-file Tables.agc, resuming Main.agc)
000066: $Ram.agc
000001:
000002:                                                                                          	# The AGC has 2,000 words (4KB) of erasable memory. We only need a fraction for this game!
000003:
000004:
000005:                                                                                          	#-------------------------------------------------------------------------
000006:                                                                                          	# Some variables.
000007:
000008:    0024                                           SETLOC   24                            	#
000009:    0024                        TIME2              ERASE                                  	#
000010:    0025                        TIME1              ERASE                                  	#
000011:    0026                        TIME3              ERASE                                  	#
000012:    0027                        TIME4              ERASE                                  	#
000013:    0030                        TIME5              ERASE                                  	#
000014:    0031                        TIME6              ERASE                                  	#
000015:
000016:    0061                                           SETLOC   61                            	#
000017:
000018:                                                                                          	# Temp variables.
000019:    0061                        TEMPI              ERASE                                  	#
000020:    0062                        TEMPJ              ERASE                                  	#
000021:    0063                        TEMPK              ERASE                                  	#
000022:
000023:
000024:    0067                                           SETLOC   67                            	#
000025:    0067                        NEWJOB             ERASE                                  	#
000026:
000027:
000028:    0070                        KEYBUF             ERASE                                  	#
000029:    0071                        RET_ADR            ERASE                                  	#
000030:    0072                        RET_ADR2           ERASE                                  	#
000031:
000032:    0073                        ACTIVE             ERASE                                  	#
000033:    0074                        COUNTER            ERASE                                  	#
000034:    0075                        CUR_ID             ERASE                                  	#
000035:    0076                        SEG_OUT            ERASE                                  	#
000036:    0077                        CHK_ID             ERASE                                  	#
000037:    0100                        CELL_VALUE           ERASE                                  	#
000038:    0101                        GM_STATE           ERASE                                  	#
000039:    0102                        CHK_VALUE           ERASE                                  	#
000040:    0103                        MATCHMD            ERASE                                  	#
000041:    0104                        MATCH1             ERASE                                  	#
000042:    0105                        MATCH2             ERASE                                  	#
000043:    0106                        MATCH3             ERASE                                  	#
000044:    0107                        MATCH4             ERASE                                  	#
000045:    0110                        CELLROW            ERASE                                  	#
000046:    0111                        CELLCOL            ERASE                                  	#
000047:    0112                        GM_DONE            ERASE                                  	#
000048:
000049:    0113                        ROW_ID             ERASE                                  	#
000050:    0114                        COL_ID             ERASE                                  	#
000051:    0115                        END_ID             ERASE                                  	#
000052:    0116                        DSKY_OUT           ERASE                                  	#
000053:    0117                        DIGIT_L            ERASE                                  	#
000054:    0120                        DIGIT_R            ERASE                                  	#
000055:    0121                        INPUTBUF           ERASE                                  	#
000056:    0122                        BTNMASK            ERASE                                  	#
000057:    0123                        PLAY_ID            ERASE                                  	#
000058:
000059:    0124                        VALUES             ERASE    +21                           	#
(End of include-file Ram.agc, resuming Main.agc)
000067:


Usage Table for Fixed-Memory Banks
----------------------------------
Bank 00:  0000/2000 words used.
Bank 01:  0000/2000 words used.
Bank 02:  1601/2000 words used.
Bank 03:  0000/2000 words used.
Bank 04:  0000/2000 words used.
Bank 05:  0000/2000 words used.
Bank 06:  0000/2000 words used.
Bank 07:  0000/2000 words used.
Bank 10:  0000/2000 words used.
Bank 11:  0000/2000 words used.
Bank 12:  0000/2000 words used.
Bank 13:  0000/2000 words used.
Bank 14:  0000/2000 words used.
Bank 15:  0000/2000 words used.
Bank 16:  0000/2000 words used.
Bank 17:  0000/2000 words used.
Bank 20:  0000/2000 words used.
Bank 21:  0000/2000 words used.
Bank 22:  0000/2000 words used.
Bank 23:  0000/2000 words used.
Bank 24:  0000/2000 words used.
Bank 25:  0000/2000 words used.
Bank 26:  0000/2000 words used.
Bank 27:  0000/2000 words used.
Bank 30:  0000/2000 words used.
Bank 31:  0000/2000 words used.
Bank 32:  0000/2000 words used.
Bank 33:  0000/2000 words used.
Bank 34:  0000/2000 words used.
Bank 35:  0000/2000 words used.
Bank 36:  0000/2000 words used.
Bank 37:  0000/2000 words used.
Bank 40:  0000/2000 words used.
Bank 41:  0000/2000 words used.
Bank 42:  0000/2000 words used.
Bank 43:  0000/2000 words used.


Symbol Table
------------
     1,E:   $17             0017  		     2,E:   $3              0003  		     3,E:   $4              0004  		     4,E:   $5              0005
     5,E:   $6              0006  		     6,E:   $7              0007  		     7,C:   A            0000000  		     8,E:   ACTIVE          0073
     9,F:   ADD5            4167  		    10,F:   ADD6            4164  		    11,C:   ARUPT        0000010  		    12,C:   BANKRUPT     0000016
    13,C:   BBANK        0000006  		    14,F:   BIT15           5151  		    15,F:   BIT5            5172  		    16,F:   BOT23           5271
    17,F:   BOT45           5272  		    18,C:   BRUPT        0000017  		    19,E:   BTNMASK         0122  		    20,F:   CALCLEFT        4765
    21,F:   CAN_READ        5045  		    22,E:   CELLCOL         0111  		    23,E:   CELLROW         0110  		    24,F:   CELL_MOV        4341
    25,E:   CELL_VALUE      0100  		    26,C:   CH10         0000010  		    27,C:   CH11         0000011  		    28,C:   CH12         0000012
    29,C:   CH13         0000013  		    30,C:   CH15         0000015  		    31,C:   CH32         0000032  		    32,F:   CHECKEMP        4133
    33,F:   CHECK_KEY       5072  		    34,F:   CHKLOOP         4135  		    35,F:   CHKVALID        4171  		    36,F:   CHK_ABV         4426
    37,F:   CHK_BEL         4260  		    38,E:   CHK_ID          0077  		    39,F:   CHK_LFT         4535  		    40,F:   CHK_RT          4645
    41,F:   CHK_STATE       4071  		    42,E:   CHK_VALUE       0102  		    43,F:   CLEARBTN        5156  		    44,E:   COL_ID          0114
    45,F:   COL_STRT        5322  		    46,F:   COL_STRT2       5323  		    47,F:   COL_STRT3       5324  		    48,F:   COL_STRT4       5325
    49,F:   COL_STRT5       5326  		    50,F:   COMPLETE        4365  		    51,E:   COUNTER         0074  		    52,E:   CUR_ID          0075
    53,C:   CYL          0000022  		    54,C:   CYR          0000020  		    55,F:   DEC1            5274  		    56,F:   DEC10           5305
    57,F:   DEC11           5306  		    58,F:   DEC12           5307  		    59,F:   DEC13           5310  		    60,F:   DEC14           5311
    61,F:   DEC15           5312  		    62,F:   DEC16           5313  		    63,F:   DEC17           5314  		    64,F:   DEC18           5315
    65,F:   DEC19           5316  		    66,F:   DEC2            5275  		    67,F:   DEC3            5276  		    68,F:   DEC4            5277
    69,F:   DEC5            5300  		    70,F:   DEC6            5301  		    71,F:   DEC7            5302  		    72,F:   DEC8            5303
    73,F:   DEC9            5304  		    74,F:   DIDLEFT         5005  		    75,F:   DIGITS          5273  		    76,E:   DIGIT_L         0117
    77,E:   DIGIT_R         0120  		    78,F:   DISP15          4723  		    79,F:   DISPNUM         4745  		    80,F:   DONE15          4742
    81,E:   DSKY_OUT        0116  		    82,F:   DSP0            5174  		    83,F:   DSP1            5175  		    84,F:   DSP2            5176
    85,F:   DSP3            5177  		    86,F:   DSP4            5200  		    87,F:   DSP5            5201  		    88,F:   DSP6            5202
    89,F:   DSP7            5203  		    90,F:   DSP8            5204  		    91,F:   DSP9            5205  		    92,F:   DSPBLANK        5173
    93,F:   D_COLOOP        4247  		    94,F:   D_DONE          4327  		    95,F:   D_MATCH         4304  		    96,F:   D_NOCOL         4311
    97,F:   D_NOSOF         4276  		    98,F:   D_NOWT          4335  		    99,F:   D_NXTRW         4320  		   100,F:   D_ROLOOP        4242
   101,F:   D_SOMEHR        4271  		   102,F:   D_UPDATE        4332  		   103,C:   EBANK        0000003  		   104,C:   EDOP         0000023
   105,F:   ENDKYCK         5137  		   106,E:   END_ID          0115  		   107,F:   EXITGEN         4215  		   108,F:   EXITRUPT        5051
   109,C:   FBANK        0000004  		   110,F:   FOURTEEN        5166  		   111,F:   GENZERO         4131  		   112,E:   GM_DONE         0112
   113,E:   GM_STATE        0101  		   114,F:   GRID_C0         5335  		   115,F:   GRID_C1         5336  		   116,F:   GRID_C10        5347
   117,F:   GRID_C11        5350  		   118,F:   GRID_C12        5351  		   119,F:   GRID_C13        5352  		   120,F:   GRID_C14        5353
   121,F:   GRID_C2         5337  		   122,F:   GRID_C3         5340  		   123,F:   GRID_C4         5341  		   124,F:   GRID_C5         5342
   125,F:   GRID_C6         5343  		   126,F:   GRID_C7         5344  		   127,F:   GRID_C8         5345  		   128,F:   GRID_C9         5346
   129,F:   GRID_CM1        5334  		   130,F:   GRID_CM2        5333  		   131,F:   GRID_CM3        5332  		   132,F:   GRID_CM4        5331
   133,F:   GRID_CM5        5330  		   134,F:   GRID_COL        5327  		   135,F:   GRID_R0         5362  		   136,F:   GRID_R1         5363
   137,F:   GRID_R10        5374  		   138,F:   GRID_R11        5375  		   139,F:   GRID_R12        5376  		   140,F:   GRID_R13        5377
   141,F:   GRID_R14        5400  		   142,F:   GRID_R2         5364  		   143,F:   GRID_R3         5365  		   144,F:   GRID_R4         5366
   145,F:   GRID_R5         5367  		   146,F:   GRID_R6         5370  		   147,F:   GRID_R7         5371  		   148,F:   GRID_R8         5372
   149,F:   GRID_R9         5373  		   150,F:   GRID_RM1        5361  		   151,F:   GRID_RM2        5360  		   152,F:   GRID_RM3        5357
   153,F:   GRID_RM4        5356  		   154,F:   GRID_RM5        5355  		   155,F:   GRID_ROW        5354  		   156,F:   INIT            4054
   157,E:   INPUTBUF        0121  		   158,F:   IODELAY         5015  		   159,F:   IODELAYT        5014  		   160,F:   ISEMPTY         4201
   161,E:   KEYBUF          0070  		   162,F:   KEYRUPT1        5034  		   163,F:   KEYTABL         5076  		   164,C:   L            0000001
   165,F:   LEFTRIGHT       5206  		   166,F:   LOW5            5152  		   167,F:   LR1             5207  		   168,F:   LR10            5220
   169,F:   LR11            5221  		   170,F:   LR12            5222  		   171,F:   LR13            5223  		   172,F:   LR14            5224
   173,F:   LR15            5225  		   174,F:   LR16            5226  		   175,F:   LR17            5227  		   176,F:   LR18            5230
   177,F:   LR19            5231  		   178,F:   LR2             5210  		   179,F:   LR20            5232  		   180,F:   LR3             5211
   181,F:   LR4             5212  		   182,F:   LR5             5213  		   183,F:   LR6             5214  		   184,F:   LR7             5215
   185,F:   LR8             5216  		   186,F:   LR9             5217  		   187,C:   LRUPT        0000011  		   188,F:   L_COLOOP        4517
   189,F:   L_MATCH         4561  		   190,F:   L_NOMAT         4553  		   191,F:   L_NOROW         4574  		   192,F:   L_NXTCOL        4604
   193,F:   L_ROLOOP        4524  		   194,F:   L_SOMEHR        4546  		   195,F:   MAINLOOP        4070  		   196,F:   MAKEONE         4212
   197,F:   MASK128         5163  		   198,F:   MASK15          5164  		   199,E:   MATCH1          0104  		   200,E:   MATCH2          0105
   201,E:   MATCH3          0106  		   202,E:   MATCH4          0107  		   203,E:   MATCHMD         0103  		   204,F:   MID12           5266
   205,F:   MID34           5267  		   206,F:   MID5BOT1        5270  		   207,F:   MOVE_DOWN       4227  		   208,F:   MOVE_LEFT       4504
   209,F:   MOVE_RT         4614  		   210,F:   MOVE_UP         4375  		   211,F:   MOVING_DN       4234  		   212,F:   MOVING_LT       4511
   213,F:   MOVING_RT       4621  		   214,F:   MOVING_UP       4402  		   215,F:   MOV_DN          4310  		   216,F:   MOV_LEFT        4565
   217,F:   MOV_RT          4675  		   218,F:   MOV_UP          4456  		   219,F:   NEG1            5167  		   220,F:   NEG2            5170
   221,F:   NEG5            5171  		   222,F:   NEG_ONE         5160  		   223,F:   NEWBOX          4152  		   224,E:   NEWJOB          0067
   225,F:   NEWNUM          4117  		   226,F:   NOKEY           5150  		   227,F:   NOTCOMP         4371  		   228,F:   NOTEMPTY        4177
   229,F:   NOUNLR          5262  		   230,F:   O37774          5153  		   231,F:   O37777          5154  		   232,F:   OUTPUT          5007
   233,E:   PLAY_ID         0123  		   234,C:   Q            0000002  		   235,C:   QRUPT        0000012  		   236,F:   RAND1           5401
   237,F:   RAND10          5412  		   238,F:   RAND100         5544  		   239,F:   RAND101         5545  		   240,F:   RAND102         5546
   241,F:   RAND103         5547  		   242,F:   RAND104         5550  		   243,F:   RAND105         5551  		   244,F:   RAND106         5552
   245,F:   RAND107         5553  		   246,F:   RAND108         5554  		   247,F:   RAND109         5555  		   248,F:   RAND11          5413
   249,F:   RAND110         5556  		   250,F:   RAND111         5557  		   251,F:   RAND112         5560  		   252,F:   RAND113         5561
   253,F:   RAND114         5562  		   254,F:   RAND115         5563  		   255,F:   RAND116         5564  		   256,F:   RAND117         5565
   257,F:   RAND118         5566  		   258,F:   RAND119         5567  		   259,F:   RAND12          5414  		   260,F:   RAND120         5570
   261,F:   RAND121         5571  		   262,F:   RAND122         5572  		   263,F:   RAND123         5573  		   264,F:   RAND124         5574
   265,F:   RAND125         5575  		   266,F:   RAND126         5576  		   267,F:   RAND127         5577  		   268,F:   RAND128         5600
   269,F:   RAND13          5415  		   270,F:   RAND14          5416  		   271,F:   RAND15          5417  		   272,F:   RAND16          5420
   273,F:   RAND17          5421  		   274,F:   RAND18          5422  		   275,F:   RAND19          5423  		   276,F:   RAND2           5402
   277,F:   RAND20          5424  		   278,F:   RAND21          5425  		   279,F:   RAND22          5426  		   280,F:   RAND23          5427
   281,F:   RAND24          5430  		   282,F:   RAND25          5431  		   283,F:   RAND26          5432  		   284,F:   RAND27          5433
   285,F:   RAND28          5434  		   286,F:   RAND29          5435  		   287,F:   RAND3           5403  		   288,F:   RAND30          5436
   289,F:   RAND31          5437  		   290,F:   RAND32          5440  		   291,F:   RAND33          5441  		   292,F:   RAND34          5442
   293,F:   RAND35          5443  		   294,F:   RAND36          5444  		   295,F:   RAND37          5445  		   296,F:   RAND38          5446
   297,F:   RAND39          5447  		   298,F:   RAND4           5404  		   299,F:   RAND40          5450  		   300,F:   RAND41          5451
   301,F:   RAND42          5452  		   302,F:   RAND43          5453  		   303,F:   RAND44          5454  		   304,F:   RAND45          5455
   305,F:   RAND46          5456  		   306,F:   RAND47          5457  		   307,F:   RAND48          5460  		   308,F:   RAND49          5461
   309,F:   RAND5           5405  		   310,F:   RAND50          5462  		   311,F:   RAND51          5463  		   312,F:   RAND52          5464
   313,F:   RAND53          5465  		   314,F:   RAND54          5466  		   315,F:   RAND55          5467  		   316,F:   RAND56          5470
   317,F:   RAND57          5471  		   318,F:   RAND58          5472  		   319,F:   RAND59          5473  		   320,F:   RAND6           5406
   321,F:   RAND60          5474  		   322,F:   RAND61          5475  		   323,F:   RAND62          5476  		   324,F:   RAND63          5477
   325,F:   RAND64          5500  		   326,F:   RAND65          5501  		   327,F:   RAND66          5502  		   328,F:   RAND67          5503
   329,F:   RAND68          5504  		   330,F:   RAND69          5505  		   331,F:   RAND7           5407  		   332,F:   RAND70          5506
   333,F:   RAND71          5507  		   334,F:   RAND72          5510  		   335,F:   RAND73          5511  		   336,F:   RAND74          5512
   337,F:   RAND75          5513  		   338,F:   RAND76          5514  		   339,F:   RAND77          5515  		   340,F:   RAND78          5516
   341,F:   RAND79          5517  		   342,F:   RAND8           5410  		   343,F:   RAND80          5520  		   344,F:   RAND81          5521
   345,F:   RAND82          5522  		   346,F:   RAND83          5523  		   347,F:   RAND84          5524  		   348,F:   RAND85          5525
   349,F:   RAND86          5526  		   350,F:   RAND87          5527  		   351,F:   RAND88          5530  		   352,F:   RAND89          5531
   353,F:   RAND9           5411  		   354,F:   RAND90          5532  		   355,F:   RAND91          5533  		   356,F:   RAND92          5534
   357,F:   RAND93          5535  		   358,F:   RAND94          5536  		   359,F:   RAND95          5537  		   360,F:   RAND96          5540
   361,F:   RAND97          5541  		   362,F:   RAND98          5542  		   363,F:   RAND99          5543  		   364,F:   RANDOM          5140
   365,F:   RESETALL        4102  		   366,F:   RESETBTN        5157  		   367,F:   RESETEND        4115  		   368,F:   RESETLOOP       4104
   369,F:   RESTART         4000  		   370,F:   RESUME          5030  		   371,E:   RET_ADR         0071  		   372,E:   RET_ADR2        0072
   373,E:   ROW_ID          0113  		   374,F:   ROW_STRT        5317  		   375,F:   ROW_STRT2       5320  		   376,F:   ROW_STRT3       5321
   377,F:   R_COLOOP        4627  		   378,F:   R_MATCH         4671  		   379,F:   R_NOMAT         4663  		   380,F:   R_NOROW         4704
   381,F:   R_NXTCOL        4714  		   382,F:   R_ROLOOP        4634  		   383,F:   R_SOMEHR        4656  		   384,C:   SAMPTIME     0000013
   385,F:   SECOND          4116  		   386,F:   SEGCODE         5260  		   387,F:   SEGLOOP         4731  		   388,F:   SEG_0           5233
   389,F:   SEG_1           5234  		   390,F:   SEG_10          5245  		   391,F:   SEG_11          5246  		   392,F:   SEG_12          5247
   393,F:   SEG_13          5250  		   394,F:   SEG_14          5251  		   395,F:   SEG_15          5252  		   396,F:   SEG_16          5253
   397,F:   SEG_17          5254  		   398,F:   SEG_18          5255  		   399,F:   SEG_19          5256  		   400,F:   SEG_2           5235
   401,F:   SEG_20          5257  		   402,F:   SEG_3           5236  		   403,F:   SEG_4           5237  		   404,F:   SEG_5           5240
   405,F:   SEG_6           5241  		   406,F:   SEG_7           5242  		   407,F:   SEG_8           5243  		   408,F:   SEG_9           5244
   409,E:   SEG_OUT         0076  		   410,F:   SETUPMOV        4220  		   411,F:   SKIPLEFT        5003  		   412,C:   SR           0000021
   413,F:   STA_ADD         5300  		   414,F:   STA_DOWN        5274  		   415,F:   STA_INPUT       5273  		   416,F:   STA_LEFT        5276
   417,F:   STA_RIGHT       5277  		   418,F:   STA_UP          5275  		   419,F:   STA_WAIT        5301  		   420,F:   STORENEW        4213
   421,F:   ST_TABLE        4073  		   422,F:   T3RUPT          5025  		   423,E:   TEMPI           0061  		   424,E:   TEMPJ           0062
   425,E:   TEMPK           0063  		   426,F:   TEN             5155  		   427,E:   TIME1           0025  		   428,E:   TIME2           0024
   429,E:   TIME3           0026  		   430,E:   TIME4           0027  		   431,E:   TIME5           0030  		   432,E:   TIME6           0031
   433,F:   TOP1            5263  		   434,F:   TOP23           5264  		   435,F:   TOP45           5265  		   436,F:   TWENTY          5161
   437,F:   TWENTY1         5162  		   438,F:   TWO56           5165  		   439,F:   UPGRADE         4351  		   440,F:   U_COLOOP        4415
   441,F:   U_MATCH         4452  		   442,F:   U_NOCOL         4465  		   443,F:   U_NOSOF         4444  		   444,F:   U_NXTRW         4474
   445,F:   U_ROLOOP        4410  		   446,F:   U_SOMEHR        4437  		   447,E:   VALUES          0124  		   448,F:   VERBLR          5261
   449,F:   WAITKEY         5060  		   450,F:   WAITMORE        5071  		   451,C:   Z            0000005  		   452,C:   ZERO         0000007
   453,C:   ZEROES       0000007  		   454,C:   ZRUPT        0000015

Unresolved symbols:  0
Fatal errors:  0
Warnings:  0
Removing the duplicated lines...

Symbol-table file written.

Bugger word 75001 at 02,3603.
