
Source Code
000001:
000002:                                                                                                  #  See Down.agc for detailed explanation of how the code
000003:                                                                                                  #  to move and combine numbers works. The only differences between them
000004:                                                                                                  #  is to reverse directions and/or swap rows for columns (if horizontal)
000005:
000006:    4574                        MOVE_RT
000007:
000008:    4574           04201                           TC       SETUPMOV                              #  Setup a table and check if can proceed - may never return!
000009:    4575           30112                           CA       GM_DONE                               #  Load game complete status into A
000010:    4576           00006                           EXTEND
000011:    4577           14601                           BZF      MOVING_RT                             #  Flag is zero, not complete yet
000012:
000013:    4600           14070                           TCF      MAINLOOP
000014:
000015:    4601                        MOVING_RT
000016:
000017:    4601           35257                           CA       STA_RIGHT
000018:    4602           54101                           TS       GM_STATE
000019:
000020:    4603           30007                           CA       ZERO
000021:    4604           54123                           TS       PLAY_ID
000022:
000023:    4605           35256                           CA       DEC3
000024:    4606           54114                           TS       COL_ID
000025:
000026:    4607                        R_COLOOP
000027:
000028:    4607           50114                           INDEX    COL_ID
000029:    4610           35302                           CA       COL_STRT
000030:    4611           54075                           TS       CUR_ID
000031:    4612           65272                           AD       DEC15
000032:    4613           54115                           TS       END_ID
000033:
000034:    4614                        R_ROLOOP
000035:
000036:    4614           50075                           INDEX    CUR_ID
000037:    4615           35334                           CA       GRID_ROW
000038:    4616           54110                           TS       CELLROW
000039:
000040:    4617           50075                           INDEX    CUR_ID
000041:    4620           30124                           CA       VALUES
000042:    4621           54100                           TS       CELL_VALUE
000043:    4622           65254                           AD       DEC1
000044:    4623           00006                           EXTEND
000045:    4624           14664                           BZF      R_NOROW
000046:
000047:
000048:    4625                        CHK_RT
000049:
000050:    4625           30075                           CA       CUR_ID
000051:    4626           65254                           AD       DEC1
000052:    4627           54077                           TS       CHK_ID
000053:
000054:    4630           50077                           INDEX    CHK_ID
000055:    4631           30124                           CA       VALUES
000056:    4632           54102                           TS       CHK_VALUE
000057:    4633           65254                           AD       DEC1
000058:    4634           00006                           EXTEND
000059:    4635           14655                           BZF      MOV_RT
000060:
000061:    4636                        R_SOMEHR
000062:
000063:    4636           50110                           INDEX    CELLROW
000064:    4637           30103                           CA       MATCHMD
000065:    4640           00006                           EXTEND
000066:    4641           14643                           BZF      R_NOMAT
000067:
000068:    4642           14664                           TCF      R_NOROW
000069:
000070:    4643                        R_NOMAT
000071:
000072:    4643           30100                           CA       CELL_VALUE
000073:    4644           00006                           EXTEND
000074:    4645           60102                           SU       CHK_VALUE
000075:    4646           00006                           EXTEND
000076:    4647           14651                           BZF      R_MATCH
000077:
000078:    4650           14664                           TCF      R_NOROW
000079:
000080:    4651                        R_MATCH
000081:
000082:    4651           50110                           INDEX    CELLROW
000083:    4652           24103                           INCR     MATCHMD                               #  Set flag that we have combined in this column
000084:
000085:    4653           04331                           TC       UPGRADE                               #  Increase target cell, empty orig cell
000086:
000087:    4654           14664                           TCF      R_NOROW
000088:    4655                        MOV_RT
000089:
000090:    4655           24123                           INCR     PLAY_ID
000091:
000092:    4656           30100                           CA       CELL_VALUE
000093:    4657           50077                           INDEX    CHK_ID
000094:    4660           54124                           TS       VALUES
000095:
000096:    4661           35140                           CA       NEG_ONE
000097:    4662           50075                           INDEX    CUR_ID
000098:    4663           54124                           TS       VALUES
000099:
000100:    4664                        R_NOROW
000101:
000102:    4664           30075                           CA       CUR_ID
000103:    4665           65260                           AD       DEC5
000104:    4666           54075                           TS       CUR_ID
000105:    4667           00006                           EXTEND
000106:    4670           60115                           SU       END_ID
000107:    4671           00006                           EXTEND
000108:    4672           14674                           BZF      R_NXTCOL
000109:
000110:    4673           14614                           TCF      R_ROLOOP
000111:
000112:    4674                        R_NXTCOL
000113:    4674           54067                           TS       NEWJOB
000114:    4675           30114                           CA       COL_ID
000115:    4676           00006                           EXTEND
000116:    4677           14307                           BZF      D_DONE
000117:
000118:    4700           00006                           EXTEND
000119:    4701           26114                           DIM      COL_ID
000120:
000121:    4702           14607                           TCF      R_COLOOP
000122:

End of include-file Right.agc.  Parent file is Main.agc


