
Source Code
000001:
000002:                                                                                                  #  Because constants are held in fixed memory (ROM), we can organise them consecutively
000003:                                                                                                  #  and use them as handy lookup tables
000004:
000005:                                                                                                  #  For each possible digit (blank, 0-9), the 5-bit code we need to send to the DSKY.
000006:
000007:    5153           00000        DSPBLANK           OCT      0
000008:    5154           00025        DSP0               OCT      25
000009:    5155           00003        DSP1               OCT      3
000010:    5156           00031        DSP2               OCT      31
000011:    5157           00033        DSP3               OCT      33
000012:    5160           00017        DSP4               OCT      17
000013:    5161           00036        DSP5               OCT      36
000014:    5162           00034        DSP6               OCT      34
000015:    5163           00023        DSP7               OCT      23
000016:    5164           00035        DSP8               OCT      35
000017:    5165           00037        DSP9               OCT      37
000018:
000019:                                                                                                  #  For each of the 21 display digits, is it left (1) or right (0) of the pair?
000020:
000021:    5166           00001        LEFTRIGHT           DEC      1          B-14
000022:    5167           00000        LR1                DEC      0          B-14
000023:    5170           00001        LR2                DEC      1          B-14
000024:    5171           00000        LR3                DEC      0          B-14
000025:    5172           00001        LR4                DEC      1          B-14
000026:    5173           00000        LR5                DEC      0          B-14
000027:    5174           00000        LR6                DEC      0          B-14
000028:    5175           00001        LR7                DEC      1          B-14
000029:    5176           00000        LR8                DEC      0          B-14
000030:    5177           00001        LR9                DEC      1          B-14
000031:    5200           00000        LR10               DEC      0          B-14
000032:    5201           00001        LR11               DEC      1          B-14
000033:    5202           00000        LR12               DEC      0          B-14
000034:    5203           00001        LR13               DEC      1          B-14
000035:    5204           00000        LR14               DEC      0          B-14
000036:    5205           00001        LR15               DEC      1          B-14
000037:    5206           00000        LR16               DEC      0          B-14
000038:    5207           00001        LR17               DEC      1          B-14
000039:    5210           00000        LR18               DEC      0          B-14
000040:    5211           00001        LR19               DEC      1          B-14
000041:    5212           00000        LR20               DEC      0          B-14
000042:
000043:                                                                                                  #  For each of the 21 display digits, which pair of segments does it belong to?
000044:
000045:    5213           00000        SEG_0              DEC      00         B-14
000046:    5214           00000        SEG_1              DEC      00         B-14
000047:    5215           00001        SEG_2              DEC      01         B-14
000048:    5216           00001        SEG_3              DEC      01         B-14
000049:    5217           00002        SEG_4              DEC      02         B-14
000050:    5220           00002        SEG_5              DEC      02         B-14
000051:    5221           00003        SEG_6              DEC      03         B-14
000052:    5222           00004        SEG_7              DEC      04         B-14
000053:    5223           00004        SEG_8              DEC      04         B-14
000054:    5224           00005        SEG_9              DEC      05         B-14
000055:    5225           00005        SEG_10             DEC      05         B-14
000056:    5226           00006        SEG_11             DEC      06         B-14
000057:    5227           00006        SEG_12             DEC      06         B-14
000058:    5230           00007        SEG_13             DEC      07         B-14
000059:    5231           00007        SEG_14             DEC      07         B-14
000060:    5232           00010        SEG_15             DEC      08         B-14
000061:    5233           00010        SEG_16             DEC      08         B-14
000062:    5234           00011        SEG_17             DEC      09         B-14
000063:    5235           00011        SEG_18             DEC      09         B-14
000064:    5236           00012        SEG_19             DEC      10         B-14
000065:    5237           00012        SEG_20             DEC      10         B-14
000066:
000067:
000068:                                                                                                  #  Lookup bits 10-14 to select the segement pair in Channel 10 WRITE
000069:
000070:
000071:    5240           54000        SEGCODE            OCT      54000
000072:    5241           50000        VERBLR             OCT      50000
000073:    5242           44000        NOUNLR             OCT      44000
000074:    5243           40000        TOP1               OCT      40000
000075:    5244           34000        TOP23              OCT      34000
000076:    5245           30000        TOP45              OCT      30000
000077:    5246           24000        MID12              OCT      24000
000078:    5247           20000        MID34              OCT      20000
000079:    5250           14000        MID5BOT1           OCT      14000
000080:    5251           10000        BOT23              OCT      10000
000081:    5252           04000        BOT45              OCT      4000
000082:
000083:
000084:
000085:                                                                                                  #  Decimal table for easy loading into A
000086:
000087:    5253           00000        DIGITS             DEC      0          B-14
000088:    5254           00001        DEC1               DEC      1          B-14
000089:    5255           00002        DEC2               DEC      2          B-14
000090:    5256           00003        DEC3               DEC      3          B-14
000091:    5257           00004        DEC4               DEC      4          B-14
000092:    5260           00005        DEC5               DEC      5          B-14
000093:    5261           00006        DEC6               DEC      6          B-14
000094:    5262           00007        DEC7               DEC      7          B-14
000095:    5263           00010        DEC8               DEC      8          B-14
000096:    5264           00011        DEC9               DEC      9          B-14
000097:    5265           00012        DEC10              DEC      10         B-14
000098:    5266           00013        DEC11              DEC      11         B-14
000099:    5267           00014        DEC12              DEC      12         B-14
000100:    5270           00015        DEC13              DEC      13         B-14
000101:    5271           00016        DEC14              DEC      14         B-14
000102:    5272           00017        DEC15              DEC      15         B-14
000103:    5273           00020        DEC16              DEC      16         B-14
000104:    5274           00021        DEC17              DEC      17         B-14
000105:    5275           00022        DEC18              DEC      18         B-14
000106:    5276           00023        DEC19              DEC      19         B-14
000107:
000108:                                                                                                  #  Game state constants, re-using some of the above
000109:
000110:    5277     5253               STA_INPUT           EQUALS   DIGITS
000111:    5277     5254               STA_DOWN           EQUALS   DEC1
000112:    5277     5255               STA_UP             EQUALS   DEC2
000113:    5277     5256               STA_LEFT           EQUALS   DEC3
000114:    5277     5257               STA_RIGHT           EQUALS   DEC4
000115:    5277     5260               STA_ADD            EQUALS   DEC5
000116:    5277     5261               STA_WAIT           EQUALS   DEC6
000117:
000118:
000119:
000120:                                                                                                  #  For each grid row, which segment ID does it start at?
000121:
000122:    5277           00006        ROW_STRT           DEC      6          B-14
000123:    5300           00013        ROW_STRT2           DEC      11         B-14
000124:    5301           00020        ROW_STRT3           DEC      16         B-14
000125:
000126:                                                                                                  #  For each grid column, which segment ID does it start at?
000127:
000128:    5302           00006        COL_STRT           DEC      6          B-14
000129:    5303           00007        COL_STRT2           DEC      7          B-14
000130:    5304           00010        COL_STRT3           DEC      8          B-14
000131:    5305           00011        COL_STRT4           DEC      9          B-14
000132:    5306           00012        COL_STRT5           DEC      10         B-14
000133:
000134:                                                                                                  #  For each grid cell, which column does it belong to (0-5 ignored)
000135:
000136:    5307           00000        GRID_COL           DEC      0          B-14
000137:    5310           00000        GRID_CM5           DEC      0          B-14
000138:    5311           00000        GRID_CM4           DEC      0          B-14
000139:    5312           00000        GRID_CM3           DEC      0          B-14
000140:    5313           00000        GRID_CM2           DEC      0          B-14
000141:    5314           00000        GRID_CM1           DEC      0          B-14
000142:    5315           00000        GRID_C0            DEC      0          B-14
000143:    5316           00001        GRID_C1            DEC      1          B-14
000144:    5317           00002        GRID_C2            DEC      2          B-14
000145:    5320           00003        GRID_C3            DEC      3          B-14
000146:    5321           00004        GRID_C4            DEC      4          B-14
000147:    5322           00000        GRID_C5            DEC      0          B-14
000148:    5323           00001        GRID_C6            DEC      1          B-14
000149:    5324           00002        GRID_C7            DEC      2          B-14
000150:    5325           00003        GRID_C8            DEC      3          B-14
000151:    5326           00004        GRID_C9            DEC      4          B-14
000152:    5327           00000        GRID_C10           DEC      0          B-14
000153:    5330           00001        GRID_C11           DEC      1          B-14
000154:    5331           00002        GRID_C12           DEC      2          B-14
000155:    5332           00003        GRID_C13           DEC      3          B-14
000156:    5333           00004        GRID_C14           DEC      4          B-14
000157:
000158:                                                                                                  #  For each grid cell, which ro wdoes it belong to (0-5 ignored)
000159:
000160:    5334           00000        GRID_ROW           DEC      0          B-14
000161:    5335           00000        GRID_RM5           DEC      0          B-14
000162:    5336           00000        GRID_RM4           DEC      0          B-14
000163:    5337           00000        GRID_RM3           DEC      0          B-14
000164:    5340           00000        GRID_RM2           DEC      0          B-14
000165:    5341           00000        GRID_RM1           DEC      0          B-14
000166:    5342           00000        GRID_R0            DEC      0          B-14
000167:    5343           00000        GRID_R1            DEC      0          B-14
000168:    5344           00000        GRID_R2            DEC      0          B-14
000169:    5345           00000        GRID_R3            DEC      0          B-14
000170:    5346           00000        GRID_R4            DEC      0          B-14
000171:    5347           00001        GRID_R5            DEC      1          B-14
000172:    5350           00001        GRID_R6            DEC      1          B-14
000173:    5351           00001        GRID_R7            DEC      1          B-14
000174:    5352           00001        GRID_R8            DEC      1          B-14
000175:    5353           00001        GRID_R9            DEC      1          B-14
000176:    5354           00002        GRID_R10           DEC      2          B-14
000177:    5355           00002        GRID_R11           DEC      2          B-14
000178:    5356           00002        GRID_R12           DEC      2          B-14
000179:    5357           00002        GRID_R13           DEC      2          B-14
000180:    5360           00002        GRID_R14           DEC      2          B-14
000181:
000182:                                                                                                  #  Table of 128 'random' numbers between 0-9 that we can index into
000183:
000184:    5361           00005        RAND1              DEC      5          B-14
000185:    5362           00002        RAND2              DEC      2          B-14
000186:    5363           00000        RAND3              DEC      0          B-14
000187:    5364           00002        RAND4              DEC      2          B-14
000188:    5365           00011        RAND5              DEC      9          B-14
000189:    5366           00004        RAND6              DEC      4          B-14
000190:    5367           00005        RAND7              DEC      5          B-14
000191:    5370           00001        RAND8              DEC      1          B-14
000192:    5371           00000        RAND9              DEC      0          B-14
000193:    5372           00003        RAND10             DEC      3          B-14
000194:    5373           00011        RAND11             DEC      9          B-14
000195:    5374           00005        RAND12             DEC      5          B-14
000196:    5375           00006        RAND13             DEC      6          B-14
000197:    5376           00007        RAND14             DEC      7          B-14
000198:    5377           00007        RAND15             DEC      7          B-14
000199:    5400           00001        RAND16             DEC      1          B-14
000200:    5401           00006        RAND17             DEC      6          B-14
000201:    5402           00005        RAND18             DEC      5          B-14
000202:    5403           00007        RAND19             DEC      7          B-14
000203:    5404           00004        RAND20             DEC      4          B-14
000204:    5405           00005        RAND21             DEC      5          B-14
000205:    5406           00002        RAND22             DEC      2          B-14
000206:    5407           00000        RAND23             DEC      0          B-14
000207:    5410           00005        RAND24             DEC      5          B-14
000208:    5411           00011        RAND25             DEC      9          B-14
000209:    5412           00006        RAND26             DEC      6          B-14
000210:    5413           00005        RAND27             DEC      5          B-14
000211:    5414           00007        RAND28             DEC      7          B-14
000212:    5415           00005        RAND29             DEC      5          B-14
000213:    5416           00006        RAND30             DEC      6          B-14
000214:    5417           00000        RAND31             DEC      0          B-14
000215:    5420           00006        RAND32             DEC      6          B-14
000216:    5421           00011        RAND33             DEC      9          B-14
000217:    5422           00004        RAND34             DEC      4          B-14
000218:    5423           00002        RAND35             DEC      2          B-14
000219:    5424           00005        RAND36             DEC      5          B-14
000220:    5425           00011        RAND37             DEC      9          B-14
000221:    5426           00011        RAND38             DEC      9          B-14
000222:    5427           00002        RAND39             DEC      2          B-14
000223:    5430           00000        RAND40             DEC      0          B-14
000224:    5431           00007        RAND41             DEC      7          B-14
000225:    5432           00006        RAND42             DEC      6          B-14
000226:    5433           00000        RAND43             DEC      0          B-14
000227:    5434           00005        RAND44             DEC      5          B-14
000228:    5435           00006        RAND45             DEC      6          B-14
000229:    5436           00001        RAND46             DEC      1          B-14
000230:    5437           00007        RAND47             DEC      7          B-14
000231:    5440           00007        RAND48             DEC      7          B-14
000232:    5441           00002        RAND49             DEC      2          B-14
000233:    5442           00004        RAND50             DEC      4          B-14
000234:    5443           00011        RAND51             DEC      9          B-14
000235:    5444           00006        RAND52             DEC      6          B-14
000236:    5445           00011        RAND53             DEC      9          B-14
000237:    5446           00000        RAND54             DEC      0          B-14
000238:    5447           00003        RAND55             DEC      3          B-14
000239:    5450           00005        RAND56             DEC      5          B-14
000240:    5451           00001        RAND57             DEC      1          B-14
000241:    5452           00004        RAND58             DEC      4          B-14
000242:    5453           00007        RAND59             DEC      7          B-14
000243:    5454           00001        RAND60             DEC      1          B-14
000244:    5455           00002        RAND61             DEC      2          B-14
000245:    5456           00007        RAND62             DEC      7          B-14
000246:    5457           00002        RAND63             DEC      2          B-14
000247:    5460           00001        RAND64             DEC      1          B-14
000248:    5461           00005        RAND65             DEC      5          B-14
000249:    5462           00010        RAND66             DEC      8          B-14
000250:    5463           00001        RAND67             DEC      1          B-14
000251:    5464           00007        RAND68             DEC      7          B-14
000252:    5465           00007        RAND69             DEC      7          B-14
000253:    5466           00003        RAND70             DEC      3          B-14
000254:    5467           00003        RAND71             DEC      3          B-14
000255:    5470           00004        RAND72             DEC      4          B-14
000256:    5471           00005        RAND73             DEC      5          B-14
000257:    5472           00005        RAND74             DEC      5          B-14
000258:    5473           00005        RAND75             DEC      5          B-14
000259:    5474           00006        RAND76             DEC      6          B-14
000260:    5475           00006        RAND77             DEC      6          B-14
000261:    5476           00006        RAND78             DEC      6          B-14
000262:    5477           00010        RAND79             DEC      8          B-14
000263:    5500           00006        RAND80             DEC      6          B-14
000264:    5501           00005        RAND81             DEC      5          B-14
000265:    5502           00001        RAND82             DEC      1          B-14
000266:    5503           00007        RAND83             DEC      7          B-14
000267:    5504           00010        RAND84             DEC      8          B-14
000268:    5505           00001        RAND85             DEC      1          B-14
000269:    5506           00011        RAND86             DEC      9          B-14
000270:    5507           00003        RAND87             DEC      3          B-14
000271:    5510           00000        RAND88             DEC      0          B-14
000272:    5511           00003        RAND89             DEC      3          B-14
000273:    5512           00007        RAND90             DEC      7          B-14
000274:    5513           00002        RAND91             DEC      2          B-14
000275:    5514           00005        RAND92             DEC      5          B-14
000276:    5515           00001        RAND93             DEC      1          B-14
000277:    5516           00000        RAND94             DEC      0          B-14
000278:    5517           00011        RAND95             DEC      9          B-14
000279:    5520           00001        RAND96             DEC      1          B-14
000280:    5521           00011        RAND97             DEC      9          B-14
000281:    5522           00005        RAND98             DEC      5          B-14
000282:    5523           00006        RAND99             DEC      6          B-14
000283:    5524           00006        RAND100            DEC      6          B-14
000284:    5525           00011        RAND101            DEC      9          B-14
000285:    5526           00010        RAND102            DEC      8          B-14
000286:    5527           00001        RAND103            DEC      1          B-14
000287:    5530           00007        RAND104            DEC      7          B-14
000288:    5531           00003        RAND105            DEC      3          B-14
000289:    5532           00006        RAND106            DEC      6          B-14
000290:    5533           00007        RAND107            DEC      7          B-14
000291:    5534           00006        RAND108            DEC      6          B-14
000292:    5535           00001        RAND109            DEC      1          B-14
000293:    5536           00004        RAND110            DEC      4          B-14
000294:    5537           00011        RAND111            DEC      9          B-14
000295:    5540           00000        RAND112            DEC      0          B-14
000296:    5541           00002        RAND113            DEC      2          B-14
000297:    5542           00005        RAND114            DEC      5          B-14
000298:    5543           00004        RAND115            DEC      4          B-14
000299:    5544           00005        RAND116            DEC      5          B-14
000300:    5545           00000        RAND117            DEC      0          B-14
000301:    5546           00000        RAND118            DEC      0          B-14
000302:    5547           00005        RAND119            DEC      5          B-14
000303:    5550           00010        RAND120            DEC      8          B-14
000304:    5551           00005        RAND121            DEC      5          B-14
000305:    5552           00001        RAND122            DEC      1          B-14
000306:    5553           00000        RAND123            DEC      0          B-14
000307:    5554           00003        RAND124            DEC      3          B-14
000308:    5555           00006        RAND125            DEC      6          B-14
000309:    5556           00003        RAND126            DEC      3          B-14
000310:    5557           00004        RAND127            DEC      4          B-14
000311:    5560           00001        RAND128            DEC      1          B-14

End of include-file Tables.agc.  Parent file is Main.agc


