
Source Code
000001:                                                                                                  #  See Down.agc for detailed explanation of how the code
000002:                                                                                                  #  to move and combine numbers works. The only differences between them
000003:                                                                                                  #  is to reverse directions and/or swap rows for columns (if horizontal)
000004:
000005:    4355                        MOVE_UP
000006:
000007:    4355           04201                           TC       SETUPMOV                              #  Setup a table and check if can proceed - may never return!
000008:    4356           30112                           CA       GM_DONE                               #  Load game complete status into A
000009:    4357           00006                           EXTEND
000010:    4360           14362                           BZF      MOVING_UP                             #  Flag is zero, not complete yet
000011:
000012:    4361           14070                           TCF      MAINLOOP
000013:
000014:    4362                        MOVING_UP
000015:
000016:    4362           35255                           CA       STA_UP
000017:    4363           54101                           TS       GM_STATE
000018:
000019:    4364           30007                           CA       ZERO
000020:    4365           54123                           TS       PLAY_ID
000021:
000022:    4366           35254                           CA       DEC1
000023:    4367           54113                           TS       ROW_ID
000024:
000025:    4370                        U_ROLOOP
000026:
000027:    4370           50113                           INDEX    ROW_ID
000028:    4371           35277                           CA       ROW_STRT
000029:    4372           54075                           TS       CUR_ID
000030:    4373           65260                           AD       DEC5
000031:    4374           54115                           TS       END_ID
000032:
000033:    4375                        U_COLOOP
000034:
000035:    4375           50075                           INDEX    CUR_ID
000036:    4376           35307                           CA       GRID_COL
000037:    4377           54111                           TS       CELLCOL
000038:
000039:    4400           50075                           INDEX    CUR_ID
000040:    4401           30124                           CA       VALUES
000041:    4402           54100                           TS       CELL_VALUE
000042:    4403           65254                           AD       DEC1
000043:    4404           00006                           EXTEND
000044:    4405           14445                           BZF      U_NOCOL
000045:
000046:
000047:    4406                        CHK_ABV
000048:
000049:    4406           30075                           CA       CUR_ID
000050:    4407           65151                           AD       NEG5
000051:    4410           54077                           TS       CHK_ID
000052:
000053:    4411           50077                           INDEX    CHK_ID
000054:    4412           30124                           CA       VALUES
000055:    4413           54102                           TS       CHK_VALUE
000056:    4414           65254                           AD       DEC1
000057:    4415           00006                           EXTEND
000058:    4416           14436                           BZF      MOV_UP
000059:
000060:    4417                        U_SOMEHR
000061:
000062:    4417           50111                           INDEX    CELLCOL
000063:    4420           30103                           CA       MATCHMD
000064:    4421           00006                           EXTEND
000065:    4422           14424                           BZF      U_NOSOF
000066:
000067:    4423           14445                           TCF      U_NOCOL
000068:
000069:    4424                        U_NOSOF
000070:
000071:    4424           30100                           CA       CELL_VALUE
000072:    4425           00006                           EXTEND
000073:    4426           60102                           SU       CHK_VALUE
000074:    4427           00006                           EXTEND
000075:    4430           14432                           BZF      U_MATCH
000076:
000077:    4431           14445                           TCF      U_NOCOL
000078:
000079:    4432                        U_MATCH
000080:
000081:    4432           50111                           INDEX    CELLCOL
000082:    4433           24103                           INCR     MATCHMD                               #  Set flag that we have combined in this column
000083:
000084:    4434           04331                           TC       UPGRADE                               #  Increase target cell, empty orig cell
000085:
000086:    4435           14445                           TCF      U_NOCOL
000087:    4436                        MOV_UP
000088:
000089:    4436           24123                           INCR     PLAY_ID
000090:
000091:    4437           30100                           CA       CELL_VALUE
000092:    4440           50077                           INDEX    CHK_ID
000093:    4441           54124                           TS       VALUES
000094:
000095:    4442           35140                           CA       NEG_ONE
000096:    4443           50075                           INDEX    CUR_ID
000097:    4444           54124                           TS       VALUES
000098:
000099:    4445                        U_NOCOL
000100:
000101:    4445           24075                           INCR     CUR_ID
000102:    4446           30075                           CA       CUR_ID
000103:    4447           00006                           EXTEND
000104:    4450           60115                           SU       END_ID
000105:    4451           00006                           EXTEND
000106:    4452           14454                           BZF      U_NXTRW
000107:
000108:    4453           14375                           TCF      U_COLOOP
000109:
000110:    4454                        U_NXTRW
000111:
000112:    4454           54067                           TS       NEWJOB
000113:
000114:    4455           35255                           CA       DEC2
000115:    4456           00006                           EXTEND
000116:    4457           60113                           SU       ROW_ID
000117:    4460           00006                           EXTEND
000118:    4461           14307                           BZF      D_DONE
000119:
000120:
000121:    4462           24113                           INCR     ROW_ID
000122:
000123:    4463           14370                           TCF      U_ROLOOP
000124:

End of include-file Up.agc.  Parent file is Main.agc


